:1000000015C100002FC100002DC100002BC1000050
:1000100029C1000027C1000025C1000023C1000044
:1000200021C100001FC100000C9487121BC10000F9
:1000300019C1000017C1000015C1000013C1000064
:1000400011C100008BC700000DC100000BC10000F2
:1000500009C10000BBC1000005C1000003C10000D0
:1000600001C10000FFC00000FDC00000FBC0000097
:10007000F9C00000F7C00000F5C00000F3C00000A8
:10008000F1C00000EFC00000EDC00000EBC00000B8
:10009000E9C00000E7C00000E5C00000E3C00000C8
:1000A000E1C00000DFC00000DDC000001803410017
:1000B0005600520049005300500020006D006B00B4
:1000C0004900490000000C03410054004D00450068
:1000D0004C0000000403090412011001FF0000108D
:1000E000EB030421000201020301400041014243ED
:1000F0000309000A000A000B000C000D000D000EA1
:10010000000F00100010001200130013001400165E
:10011000001600180019001A001C001D001F002006
:1001200000220023002500270029002B002E00308C
:10013000003200340037003A003D004000430046E2
:10014000004A004E00520055005A005E00630068ED
:10015000006D00730078007E0084008B0091009990
:1001600000A000A900B100B900C300CC00D600E196
:1001700000EC00F700040111011E012D013B014BB1
:10018000015B016C017D019101A501BA01CF01E67E
:1001900001FE01160231024C026A028802A802CA5C
:1001A00002ED021103380360038B03B803E7031861
:1001B000044B048104B904F50434057505B905013F
:1001C000064E069D06EF064807A30704086508D0FB
:1001D000084009B6092B0AAB0A300BC30B510CEED1
:1001E0000C8F0D400EF60EAF0F681047111412F56C
:1001F00012ED13E214F015F9161B185C19911AE5AB
:100200001B251D831E0320AB21302332250F27F130
:1002100028F82A1A2D492FA1311434A1364539174F
:100220003C1A3F34426045DF48704C0011241FBE29
:10023000CFEFDAE0DEBFCDBF11E0A0E0B1E0EAE24F
:10024000F9E202C005900D92A23AB107D9F711E088
:10025000A2EAB1E001C01D92A53BB107E1F74ED083
:100260000C949314CDCE95B19F71982B95B90895A8
:1002700084B7877F84BF88E10FB6F89480936000CD
:10028000109260000FBE90E080E80FB6F894809363
:100290006100909361000FBE84B1806E84B985B116
:1002A0008F7185B90C946A1280ECDDCF80E4DBCFCE
:1002B000CF9342E360E882E00E94CB11C82F42E373
:1002C00061E883E00E94CB11882321F0CC2311F058
:1002D00080E801C080E4CF91C6CF8EB3843069F44A
:1002E000D7D182E08093E9008091E80082FF05C0C9
:1002F00080ECB9DF88D080E8B6CF0895B9DF7BD035
:1003000080E4B1DF7894489B02C090E001C090E2A5
:1003100085B18F7D892B85B9E0DF0E945E14F3CF14
:1003200000C0D9011C92292F33272230310541F01A
:100330002330310561F02130310509F439C03DC069
:1003400082E08C93E0E2F0E08EE191E03AC0992700
:100350008130910589F01CF4892B39F02EC0823050
:10036000910589F0039749F515C0E4EDF0E0E491BB
:10037000F0E084ED90E025C0E6ECF0E0E491F0E000
:1003800086EC90E01EC0ECEAF0E0E491F0E08CEA4C
:1003900090E017C0E0910001F0E083E390E09093DB
:1003A0000F0180930E0182E08C9380E091E009C000
:1003B000E2E1F0E088ED90E004C0E0E0F0E080E011
:1003C00090E0DA018D939C93CF01089578941F9269
:1003D0000F920FB60F9211248F938AB5882321F0C4
:1003E0008AB581508ABD01C015BC8F910F900FBE98
:1003F0000F901F9018958BE987BD82E084BD809394
:100400006E002BD1D9C5EF92FF921F93CF93DF934C
:100410001F92CDB7DEB71091F10084E68ABD85E06A
:1004200085BD143109F4C4C000F51A3009F4A7C021
:1004300068F4143038F4123008F050C0113009F06C
:10044000CAC02FC0163009F0C6C073C0113109F4FC
:10045000AAC020F4103109F0BEC0A3C0123109F4C3
:10046000AAC0133109F0B7C0A0C0193109F4A8C05F
:1004700060F4163109F49CC008F497C0173109F4F0
:100480009FC0183109F0A7C098C01D3109F49BC066
:1004900008F493C0103509F49AC0113509F09BC0D7
:1004A00094C08091E8008B778093E80083E080938C
:1004B000E9008091EC0081608093EC001093F100E2
:1004C0001092F1008AE08093F10040E050E06AE091
:1004D00070E087E991E00E94A90F9AC0F090F100C6
:1004E000123011F46091F1008091E8008B778093D5
:1004F000E80083E08093E9008091EC0081608093C4
:10050000EC001093F1008F2D6983C3D06981123004
:1005100039F481FF0CC01092F1008F2DCAD078C041
:1005200080FF05C01092F1008F2DBBD06FC080EC12
:100530006DC040E050E064E070E086EA91E00E9427
:1005400045108091E8008B778093E80083E08093EA
:10055000E9008091EC0081608093EC008091A6011D
:100560009091A701A091A801B091A901B7FF03C084
:1005700081E08093A50186E08093F1000FC0809117
:10058000E8008B778093E80083E08093E900809116
:10059000EC0081608093EC001093F1001092F10068
:1005A00037C058D43AC022D438C0812FC5D035C006
:1005B000812FFED132C0CDD330C0812F97D22DC034
:1005C000812FEFD22AC033D328C03DD726C06BD7A6
:1005D00024C00E94FE119091F3008091F200F92E48
:1005E000E12C9701282B8091E8008B778093E8001D
:1005F0002034310571F383E08093E9008091EC00B1
:1006000081608093EC001093F10089EC8093F100FD
:100610008091E8008E778093E80015BC0E94FE115F
:1006200082E08093E9008091EC008E7F8093EC0063
:100630000F90DF91CF911F91FF90EF900895EEE31F
:10064000F1E09081891739F0339691E0EC35F907A4
:10065000C1F7E0E0F0E0CF010895CF93DF9380E0B1
:1006600090E00E947914D82F81E090E00E947914E4
:10067000C82FDF3F21F08EE9E2DFFC01D283CF3FBC
:1006800021F088E9DCDFFC01C283DF91CF9108957E
:100690000895D5DF009719F0FC018181089580E06D
:1006A0000895CDDF009719F0FC018281089580E064
:1006B00008951F93CF93DF931F92CDB7DEB7182F06
:1006C0006983BDDF6981009789F0FC0162831E396F
:1006D00019F480E090E004C0183941F481E090E022
:1006E0000F90DF91CF911F910C9481140F90DF91A7
:1006F000CF911F91089590915C01992329F08EBDAF
:100700000DB407FEFDCF0895BEC490915C019923FE
:1007100031F08EBD0DB407FEFDCF8EB50895B3C484
:1007200080915C01882331F01EBC0DB407FEFDCF23
:100730008EB5089580E0A7C45F926F927F928F92EA
:100740009F92AF92BF92CF92DF92EF92FF920F9360
:100750001F93CF93DF93CDB7DEB7CA50D1400FB60A
:10076000F894DEBF0FBECDBF182F40E050E069E027
:1007700070E0CE0101960E94F70F6A8179817A8339
:100780006983613081E0780788F08091E8008B7799
:100790008093E80083E08093E9008091EC00816021
:1007A0008093EC001093F10080ECE4C040E050E056
:1007B000CE010A960E94F70F89819A810A968F735B
:1007C0009927892B39F48091E8008B778093E80092
:1007D0000E94FE118091E8008B778093E80083E00F
:1007E0008093E9008091EC0081608093EC001331EC
:1007F00011F4988401C099848090A6017090A7019B
:10080000C12CD12C5E01EAE0AE0EB11CE12CF12C22
:1008100088E0682E5524539477C0F50101915F015B
:100820009B818091A501882369F0C65FDE4F988384
:10083000CA50D1407BD41092A501C65FDE4F98818B
:10084000CA50D1408D81C65FDE4F9883CA50D140D7
:1008500052DF8091A7014FDF8091A6014CDF802FEE
:100860004ADFC65FDE4F9881CA50D140133119F478
:100870002D8126252D83E114F10479F4091569F001
:100880008F81C0FE04C0133111F4886001C0877FDE
:100890008F83E090A601F090A70190FD11C0E114B4
:1008A000F10421F493FD02C0997F92600F812C81A5
:1008B000492DB701892F43D481112DC0E12CF12C92
:1008C000C0FC02C01531E9F48091A6019091A70106
:1008D000A091A801B091A9010196A11DB11D80931D
:1008E000A6019093A701A093A801B093A901133189
:1008F00041F4AA27BB27892B8A2B8B2B11F450920A
:10090000A501FFEFCF1ADF0A89819A81C816D9069F
:1009100008F483CF80E09B8197FF2AC08E81EBDEB5
:10092000872DE9DE882DE7DE80E0E5DE8B8185FF1F
:1009300006C0E114F10419F48F7C80618B830F8170
:100940002C81492DB7018B81FAD3133189F4409161
:10095000A6015091A7016091A8017091A901662795
:100960007727452B462B472B19F491E09093A5014F
:100970001093F1008093F1008091E8008E778093CE
:10098000E800C65FDE4F0FB6F894DEBF0FBECDBFE6
:10099000DF91CF911F910F91FF90EF90DF90CF905B
:1009A000BF90AF909F908F907F906F905F900895D1
:1009B000DF92EF92FF920F931F93CF93DF9300D0BC
:1009C0001F92CDB7DEB7F82E40E050E063E070E054
:1009D000CE0101960E94F70F89819A8199838A83BB
:1009E0008091E8008B778093E80083E08093E900B2
:1009F0008091EC0081608093EC00F092F100109205
:100A0000F10000E010E098E0E92EDD24D39449C025
:100A10008091A501882319F089D31092A5018B81BB
:100A20006ADE8091A70167DE8091A60164DE78DE30
:100A30008093F1008091E80085FD07C08091E80077
:100A40008E778093E8000E94FE1184E1F81203C0C3
:100A50008B818E258B8300FD03C086E1F8121FC0B9
:100A60004091A6015091A7016091A8017091A90140
:100A70004F5F5F4F6F4F7F4F4093A6015093A70189
:100A80006093A8017093A90186E1F81641F06627EA
:100A90007727452B462B472B11F4D092A5010F5FEA
:100AA0001F4F29813A810217130708F4B1CF109222
:100AB000F1009091E8008091E8008E778093E80043
:100AC00095FD09C00E94FE118091E8008E77809309
:100AD000E8000E94FE110F900F900F90DF91CF91D0
:100AE0001F910F91FF90EF90DF900895BF92CF92EA
:100AF000DF92EF92FF920F931F93CF93DF93CDB7C7
:100B0000DEB729970FB6F894DEBF0FBECDBFB82E63
:100B100040E050E065E070E0CE0101960E94F70FE2
:100B20009091E8009B779093E80083E08093E90040
:100B30009091EC0091609093EC008E010E5F1F4F3E
:100B40007E0186E0E80EF11C6701F80181918F01BA
:100B5000DCDDF70181937F010C151D05B1F7B09223
:100B6000F1001092F1008981FE01E80FF11D8581ED
:100B70008093F1001092F1008091E8008E778093CD
:100B8000E80029960FB6F894DEBF0FBECDBFDF9107
:100B9000CF911F910F91FF90EF90DF90CF90BF907A
:100BA0000895DF92EF92FF920F931F93CF93DF93FD
:100BB00000D000D0CDB7DEB7D82E40E050E064E0E2
:100BC00070E0CE0101960E94F70F9091E8009B77AC
:100BD0009093E80083E08093E9009091EC009160AD
:100BE0009093EC008E010F5F1F4F7E0185E0E80EB1
:100BF000F11CF80181918F017EDD0E151F05C9F7EB
:100C0000D092F1001092F1001092F1008091E80072
:100C10008E778093E8000F900F900F900F90DF91E8
:100C2000CF911F910F91FF90EF90DF900895FF9269
:100C30000F931F93CF93DF93CDB7DEB7C250D14050
:100C40000FB6F894DEBF0FBECDBF40E050E063E0CA
:100C500070E0CE0101960E94F70F69818E010C5F52
:100C60001F4F40E050E070E0C8010E94F70F8091F4
:100C7000E8008B778093E80083E08093E90080911F
:100C8000EC0081608093EC008DE18093F100109284
:100C9000F100F12C0BC08981F81628F4F801EF0D52
:100CA000F11D808101C080E026DDF3948B81F81670
:100CB00090F310E01CC08981F81650F4E4E0F0E0F5
:100CC000EC0FFD1FEF0DF11DF39480811EDD01C0BF
:100CD00027DD8093F1008091E80085FD07C08091B9
:100CE000E8008E778093E8000E94FE111F5F8A81E2
:100CF000181708F31092F1009091E8008091E80035
:100D00008E778093E80095FD09C00E94FE118091C6
:100D1000E8008E778093E8000E94FE11CE5FDE4FE0
:100D20000FB6F894DEBF0FBECDBFDF91CF911F91FC
:100D30000F91FF90089506C0EFE9FFE03197F1F7BA
:100D400000C00000882321F09AB581509111F4CFA2
:100D50000895EF92FF920F931F93CF93DF9300D0EC
:100D600000D000D0CDB7DEB740E050E066E070E0E4
:100D7000CE0101960E94F70F8091E8008B77809357
:100D8000E80083E08093E9008091EC00816080932B
:100D9000EC008E010D5F1F4F7E0187E0E80EF11C15
:100DA000F80181918F01A7DC0E151F05C9F78A8113
:100DB000811104C08981BFDF80E001C099D192E137
:100DC0009093F1008093F1008091E8008E778093FA
:100DD000E80026960FB6F894DEBF0FBECDBFDF91B8
:100DE000CF911F910F91FF90EF9008950F931F9354
:100DF000CF93DF9300D0CDB7DEB740E050E062E0A4
:100E000070E0CE0101960E94F70F08EE10E0F801A5
:100E100080818B77808383E08093E900ECEEF0E0C3
:100E2000808181608083898186DF80E055D1D8D040
:100E30008A8181DFE1EFF0E081E180831082F801B7
:100E400080818E7780830F900F90DF91CF911F91DB
:100E50000F910895CF92DF92EF92FF920F931F931D
:100E6000CF93DF93CDB7DEB72F970FB6F894DEBFE1
:100E70000FBECDBF40E050E06BE070E0CE010196C8
:100E80000E94F70F8091E8008B778093E80083E061
:100E90008093E9008091EC0081608093EC001092D7
:100EA000A6011092A7011092A8011092A9018B81AE
:100EB00042DFC2D081E010D18A813DDF7E018CE02B
:100EC000E80EF11C23C08D8136DFF80181918F017E
:100ED0001CDCF60181936F010E151F05A1F78F81B0
:100EE000882351F0EBE0F0E0EC0FFD1FE80FF11D5F
:100EF00090818E81981302C080E017C080E0ECD012
:100F00008A8119DF81E0E8D08A8115DF8C81982FF2
:100F100091509C83882341F08AB5882329F08E0163
:100F2000085F1F4F6701CFCF80EC90E19093F100F5
:100F30008093F1008091E8008E778093E8002F96EF
:100F40000FB6F894DEBF0FBECDBFDF91CF911F91DA
:100F50000F91FF90EF90DF90CF9008951F920F9226
:100F60000FB60F9211248F93199908C08091A30195
:100F700087FF02C02A9A19C02A9817C08091A3013E
:100F8000880F8093A3018091A20181508093A201D8
:100F9000811104C01092810082E086BB1B9B05C0BA
:100FA0008091A30181608093A301199A8F910F9082
:100FB0000FBE0F901F901895259A10926F001092F7
:100FC00085001092840081E090E0909389008093E6
:100FD000880080E48093800089E0809381000895F8
:100FE00080915C01882349F084B1897F84B985B1FF
:100FF000867F85B91CBC1DBC089584B1897F84B9E6
:1010000085B1867F85B9D8CF92E090936F0010921A
:10101000850010928400E82FF0E0EE0FFF1FED51E5
:10102000FF4F85919491909389008093880010924E
:10103000800010928100089588E933DB8730D0F476
:1010400091E090935C01E82FF0E0E651FF4FE491CE
:10105000209A289A84B1866084B923982B9A8DB5FA
:10106000E6FF02C0816001C08E7F8DBD2098E065E3
:10107000ECBD089510925C0194B1966094B995B15D
:10108000996095B9C1CF8093A30188E08093A201B4
:101090008091A30187FF02C02A9A01C02A9810926A
:1010A0008500109284008AE0809381008091A201E3
:1010B000882319F08AB58111F9CF109281008091AF
:1010C000A301089590915C01992329F08EBD0DB480
:1010D00007FEFDCF0895D7CF882339F0249A8EE9F3
:1010E000E0DA811103C02C9A089524982C98089571
:1010F00080EFE8DF80E0E6DF80E0E4DF80915C0104
:10110000882331F01EBC0DB407FEFDCF8EB502C0A2
:1011100080E0B9DF80FF03C08AB58111E9CF8AB5CD
:10112000882311F080E0089581E808958DE4CADFF6
:1011300080E0C8DF8091A801C5DF80E0C3CF0F93B6
:101140001F93CF93DF93EB01142F8E77E82FF0E0FE
:10115000E830F10569F134F4E230F10559F03497E3
:1011600049F50BC0E032F10541F0E034F10501F141
:10117000709701F5822FDFDD1DC0802FA3DF8D2F3B
:10118000A1DF8C2F9FDF80915C01882331F01EBC92
:101190000DB407FEFDCF8EB502C080E074DF811371
:1011A00003C08AB58111E9CF8AB5882329F002C02E
:1011B0009FDF03C080E001C080E894E69ABDDF9124
:1011C000CF911F910F9108959B01692F782F832F45
:1011D000922F0895CF93DF93CDB7DEB7C750D1409C
:1011E0000FB6F894DEBF0FBECDBF40E050E067E021
:1011F00070E0CE018F5F9E4FFAD6CE5FDE4F6881E2
:1012000079818A819B81C250D140DEDFCE5FDE4F83
:10121000688379838A839B83C250D140CA5FDE4F43
:101220008881C650D140C95FDE4F9881C750D140F8
:10123000CA5FDE4F9883C650D140C95FDE4F8883B6
:10124000C750D1408091E8008B778093E80083E01D
:101250008093E9008091EC0081608093EC008091A4
:10126000A401CA5FDE4F28813981C650D140811167
:1012700012C0CE5FDE4F688179818A819B81C25026
:10128000D140AE014F5F5F4FE9D3882311F080E07A
:101290000EC083E00CC0A901BE016F5F7F4FCE5F1F
:1012A000DE4F88819981C250D140D2D5EECF90E5F2
:1012B0009093F10095E09093F1008093F1008111FB
:1012C0000BC0CA5FDE4F68817981C650D14040E0D3
:1012D00050E0CE0101963DD68091E8008E77809354
:1012E000E800C95FDE4F0FB6F894DEBF0FBECDBF7A
:1012F000DF91CF910895AF92BF92CF92DF92EF929C
:10130000FF920F931F93CF93DF93CDB7DEB7C850F3
:10131000D1400FB6F894DEBF0FBECDBF40E050E025
:1013200068E070E0CE01019662D66B817C818D8190
:101330009E814ADF6B837C838D839E837F8168855A
:101340006F83788740E050E0CE01099650D68F81B8
:10135000988509968F739927892B39F48091E80035
:101360008B778093E8000E94FE118091E8008B77D4
:101370008093E80083E08093E9008091EC00816035
:101380008093EC008091A40181112EC0298121500D
:10139000EB80FC800D811E812630A0F430E0F90145
:1013A000E359FE4F8081F901ED58FE4F9081F9011C
:1013B000E758FE4F6081F901E158FE4F208122235A
:1013C00059F103C066E293E28EE2AF80B88429E06F
:1013D000C22ED12CCC0EDD1E2A81482F892FB1D3ED
:1013E00081110BC083E00AC04F815885BE01675F41
:1013F0007F4F8B819C8158D5F3CF80E090E590930F
:10140000F10094E09093F1008093F1008091E80066
:101410008E778093E80005C02985B801A70163D3C2
:10142000DFCFC85FDE4F0FB6F894DEBF0FBECDBF73
:10143000DF91CF911F910F91FF90EF90DF90CF90B0
:10144000BF90AF900895CF93DF931F92CDB7DEB7D3
:1014500040E050E061E070E0CE010196C8D5809197
:10146000E8008B778093E80083E08093E900809127
:10147000EC0081608093EC0089818093A40181E578
:101480008093F1008981813011F080E001C080EC0F
:101490008093F1008091E8008E778093E8000F90B0
:1014A000DF91CF910895CF93DF93CDB7DEB7299722
:1014B0000FB6F894DEBF0FBECDBF8091F10084302F
:1014C00009F493C040F4823079F108F04AC08130C9
:1014D00009F02CC109C0863009F48BC008F487C01C
:1014E000873009F023C1CEC08091E8008B778093CC
:1014F000E80083E08093E9008091EC0081608093B4
:10150000EC008091A401811102C01ED205C082307E
:1015100011F450D401C080E090E59093F10091E087
:101520009093F1008927FBC08091E8008B7780932E
:10153000E80083E08093E9008091EC008160809373
:10154000EC008091A401811102C045D201C075D484
:1015500080E58093F10082E08093F1001092F10029
:10156000E0C040E050E065E070E0CE0101963FD57C
:101570006A817B818C819D8127DE6A837B838C835A
:101580009D838091E8008B778093E80083E08093CF
:10159000E9008091EC0081608093EC008091A401CF
:1015A000E981811114C0E150E83028F4F0E0EB59F2
:1015B000FE4F808101C080E04A815B816C817D812A
:1015C00035D3882311F080E00BC083E009C0E130FF
:1015D00011F480E101C084E16A817B819DD4F1CF67
:1015E00090E59093F10093E098C085DE9FC0F2DD16
:1015F0009DC040E050E061E070E0CE010196F7D47C
:101600008091E8008B778093E80083E08093E90085
:101610008091EC0081608093EC008091A4018111A5
:1016200012C0E981E150E23028F4F0E0EB57FE4FC0
:10163000808101C088E7BE016A5F7F4FD7D18823D0
:1016400021F080E003C081E001C083E090E5909349
:10165000F10096E09093F1008093F100811161C058
:101660008E819F81A885B985CD01AA27BB2780934C
:10167000F1008E819F81A885B9858093F100892F23
:1016800099274DC08091F100833029F128F48130F1
:1016900041F0823081F516C0843011F1853059F562
:1016A00024C08091F1009091F1002091F1003091DF
:1016B000F100309361012093620190936301809364
:1016C000640117C08091F1009091F10090935F0147
:1016D000809360010EC08091F10080935E0109C08B
:1016E0008091F10080935D0104C08091F1008091B0
:1016F000F10080E001C081E09091E8009B77909339
:10170000E80093E09093E9009091EC009160909351
:10171000EC0090E59093F10097E09093F1008093B6
:10172000F1008091E8008E778093E80029960FB64B
:10173000F894DEBF0FBECDBFDF91CF9108954D99D4
:10174000FECF4D9BFECF4D99FECF5B9A539A809171
:10175000C9008F7E8093C9008091C9008860809302
:10176000C90081E08093AA0108958091C80086FF96
:10177000FCCF8091C80080648093C8008091C9002C
:10178000877F8093C9008091C90080618093C900E0
:1017900053985B981092AA0108958091AA01811133
:1017A000E4DF80EC8093C8001092C9001092CA0058
:1017B0008AB1877D8AB98BB1837D8BB90895809179
:1017C000AA018111D2DF8091C800806C8093C8008B
:1017D0001092C9001092CA008AB1877D8AB98BB174
:1017E000837D8BB924982C980895CF93DF931F9213
:1017F000CDB7DEB79091AA01911103C089839FDF15
:1018000089819091C80095FFFCCF9091C8009064A9
:101810009093C8008093CE000F90DF91CF910895F0
:101820008091AA018111A1DF8091C80087FD03C0CA
:101830008AB58111F9CF8091CE0008958091AA01D7
:10184000811101C07CDF8CE04D99FECF4D9BFECF16
:101850004D99FECF8150C1F708951092AA01249AA4
:101860002C988FE891E00197F1F700C000008AB151
:1018700088628AB9529883E090E09093CD0080937B
:10188000CC0088E08093C9008FE68093CA00D6DF41
:10189000D5CF1092AA018AB188628AB952985B9A10
:1018A0008FE891E00197F1F700C0000083E090E03D
:1018B0009093CD008093CC0088E08093C9008FE6A0
:1018C0008093CA00BBDFBACF1F93CF93DF9300D0C2
:1018D000CDB7DEB7182F862F79839A8386DF79817B
:1018E000872F83DF812F81DF9A81892F0F900F90BF
:1018F000DF91CF911F9179CF4091610150916201A9
:101900006091630170916401482BCB01BA01DCCF77
:1019100080E86BDF85DF9AB5992321F081FFF8CF4E
:1019200081E0089580E008958BE65FDF8FE0E4DFDB
:1019300080E25BDF75DF9AB5992321F087FDF8CF50
:1019400081E0089580E00895BF92CF92DF92EF92F8
:10195000FF920F931F93CF93DF93CDB7DEB72897F6
:101960000FB6F894DEBF0FBECDBF93DF81EC3DDF35
:1019700089E53BDF82EC39DF82E037DF80EE35DF5F
:101980007E0189E0E80EF11C8E010F5F1F4F88E099
:10199000D82EB02EC12EE7E8F1E0AB2DBC2D8D2D59
:1019A00001900D928A95E1F7F70182917F011DDF89
:1019B000E016F10681F728960FB6F894DEBF0FBE49
:1019C000CDBFDF91CF911F910F91FF90EF90DF90EE
:1019D000CF90BF909DCF9CDF81EC07DF80E005DFDB
:1019E00081E803DF1DDF8111F7CFD7CE1F93CF939F
:1019F000DF93182FEB01188219821A821B8294DF61
:101A0000811101C026C08CE4F0DE8AE075DF812FF1
:101A1000ECDE8CE4EADE8BE06FDF81E0E6DE78DF8F
:101A20008823B9F081DF8823A1F08BE6DEDE84E035
:101A300063DF80EADADE82E0D8DE84E2D6DEF0DE42
:101A40008883EEDE8983ECDE8A839AB581E091118A
:101A500001C080E0DF91CF911F910895CF92DF9276
:101A6000EF92FF920F931F93CF93DF936B017C0153
:101A7000EA01890159DF882361F18CE4B6DE8AE04E
:101A80003BDF83E4B2DE02301105C0F08BE6ADDE51
:101A9000C701B60119DF80EAA8DE802F8150A5DEDC
:101AA00084E2A3DE0C0F1D1F02C0BADE8993C017AB
:101AB000D10759F08AB58111F8CF07C08CE095DEC7
:101AC000C701B60101DFACDE88839AB581E09111D0
:101AD00001C080E0DF91CF911F910F91FF90EF90B7
:101AE000DF90CF9008950F931F93CF93DF9300D093
:101AF00000D0CDB7DEB7182F022F49835A836B83EE
:101B00007C8312DF882399F08CE46FDE8AE0F4DEB8
:101B1000812F6BDE8CE469DE49815A816B817C8187
:101B2000CB01BA01D1DE802F60DE81E001C080E010
:101B30000F900F900F900F90DF91CF911F910F9109
:101B400008952F923F924F925F926F927F928F9261
:101B50009F92AF92BF92CF92DF92EF92FF920F933C
:101B60001F93CF93DF93782E662E842E922E17012B
:101B70002801E60120FF11C0D7DE811102C080E0FC
:101B800042C08CE432DE8AE0B7DE862D2EDE8CE4A5
:101B90002CDE8BE0B1DE81E028DEA114B10419F463
:101BA00091FC1FC02FC0C0DE882349F38CE41DDEEA
:101BB0008AE0A2DE872D19DE8BE617DEC201B101B5
:101BC00083DE80EA12DE8A2D81500FDE84E60DDE90
:101BD000AC0EBD1E02C0899108DECA15DB05D9F71F
:101BE000DFCFA2DE882309F4CACF8CE4FEDD8AE0D1
:101BF00083DE882DFADD8CE4F8DDC201B10164DEFC
:101C000080E0F3DD81E0DF91CF911F910F91FF9094
:101C1000EF90DF90CF90BF90AF909F908F907F908C
:101C20006F905F904F903F902F9008951F93CF93A8
:101C3000DF9300D000D0CDB7DEB7182F49835A8389
:101C40006B837C8371DE49815A816B817C8188231F
:101C500009F467C08CE4103429F4C7DD8AE04CDE57
:101C600080E440C049835A836B837C83103309F03E
:101C700040C0BBDD8AE040DE86E3B7DD8CE4B5DD45
:101C80008BE03ADE81E0B1DD4FDE882309F449C004
:101C90008CE4ABDD8AE030DE83E3A7DD8BE6A5DDF7
:101CA00049815A816B817C81CB01BA010DDE80EACA
:101CB0009CDD80915F01815098DD84E696DD10E027
:101CC00003C080E092DD1F5F212F30E080915F0133
:101CD0009091600128173907A0F38CE486DD8AE033
:101CE0000BDE80E382DD8CE480DD8BE005DE81E0CD
:101CF0000FC07BDD8AE000DE812F77DD8CE475DDAF
:101D000049815A816B817C81CB01BA01DDDD80E0A4
:101D10006CDD0F900F900F900F90DF91CF911F917E
:101D2000F7CD80E00F900F900F900F90DF91CF9143
:101D30001F910895282F207330E0220F331F206950
:101D40003F6F8F70822B51CD1F93CF93DF931F92E4
:101D5000CDB7DEB7182F88E6998347DD812F45DDA3
:101D600089E643DD9981892F0F90DF91CF911F91F3
:101D70003CCD80E83ADD54DD9AB5992321F081FF0E
:101D8000F8CF81E0089580E0089580915D01282FCB
:101D9000207330E0220F331F20618F70822B25DDEE
:101DA0003FDD9AB5992321F087FDEFCF81E00895BB
:101DB00080E00895BF92CF92DF92EF92FF920F934F
:101DC0001F93CF93DF93CDB7DEB728970FB6F89464
:101DD000DEBF0FBECDBF41DD82EC07DD82E005DD59
:101DE00080EE03DD7E0189E0E80EF11C8E010F5FBD
:101DF0001F4F58E0D52EB02EC12EEFE8F1E0AB2DED
:101E0000BC2D8D2D01900D928A95E1F7F7018291FD
:101E10007F01EBDCE016F10681F728960FB6F89407
:101E2000DEBF0FBECDBFDF91CF911F910F91FF900D
:101E3000EF90DF90CF90BF909CCF9BDF80ECD5DC04
:101E400080E0D3DC80E8D1DCEBDC8111F7CFB7CCCC
:101E5000EF92FF920F931F93CF93DF937C01EB01DF
:101E60008A0193DF8823C1F080915E0163DF80E007
:101E7000BCDCC70169DF0C0F1D1F04C084E2B5DCA8
:101E8000CFDC8993C017D10719F08AB58111F6CF3D
:101E90009AB581E0911101C080E0DF91CF911F914F
:101EA0000F91FF90EF900895EF92FF920F931F9381
:101EB000CF93DF937C018B01EA0167DF811102C0C0
:101EC00080E023C0C0FF06C0F801EC0FFD1F8FEFBC
:101ED0008083219680915E012DDF8DE186DCC70134
:101EE00033DF10C052DF882359F384E67EDCF8012B
:101EF00080817BDC84E679DCF80181810E5F1F4FF5
:101F000074DC2297209771F781E0DF91CF911F91C8
:101F10000F91FF90EF9008951F93CF93DF93182FA9
:101F2000EB0133DF882381F080915E0103DF812F95
:101F30005CDCCE01816008DF80E657DC80E055DCA8
:101F4000DF91CF911F9121CF80E0DF91CF911F9141
:101F50000895BF92CF92DF92EF92FF920F931F935B
:101F6000CF93DF937C018B01EA0148D2B82E811117
:101F700033C0209731F028813981021B130BE20E08
:101F8000F31EC12CD12C23C08091E80085FD15C023
:101F90008091E8008E778093E80090D4209749F0F4
:101FA000888199818C0D9D1D9983888325E0B22EAF
:101FB00013C024D2882359F00EC0F70181917F010C
:101FC0008093F10001501109FFEFCF1ADF0A0115CC
:101FD0001105D1F601C0B82E8B2DDF91CF911F9145
:101FE0000F91FF90EF90DF90CF90BF900895BF9238
:101FF000CF92DF92EF92FF920F931F93CF93DF93D5
:102000007C018B01EA01FAD1B82E811133C02097EF
:1020100031F028813981021B130BE20EF31EC12C13
:10202000D12C23C08091E80085FD15C08091E80087
:102030008B778093E80042D4209749F0888199817A
:102040008C0D9D1D9983888345E0B42E13C0D6D195
:10205000882359F00EC08091F100F70181937F0130
:1020600001501109FFEFCF1ADF0A01151105D1F652
:1020700001C0B82E8B2DDF91CF911F910F91FF9052
:10208000EF90DF90CF90BF900895BF92CF92DF92F4
:10209000EF92FF920F931F93CF93DF936C018B010D
:1020A0007A01ACD1B82E81113AC0E8012197CC0D4C
:1020B000DD1DE114F10439F0F70120813181021BAB
:1020C000130BC21BD30BC12CD12C24C08091E80070
:1020D00085FD17C08091E8008B778093E800EED3F0
:1020E000E114F10451F0F701808191818C0D9D1D67
:1020F0009183808355E0B52E12C080D1882351F0A2
:102100000DC08091F1008883219701501109FFEFE4
:10211000CF1ADF0A01151105C9F601C0B82E8B2DA3
:10212000DF91CF911F910F91FF90EF90DF90CF90B3
:10213000BF9008954091B3015091B40146175707DD
:1021400048F06115710539F44091E8004E774093ED
:10215000E80001C0BA01FC0140E032C08EB3882320
:1021600009F441C0853009F440C08091E80083FD46
:1021700038C08091E80082FD2EC08091E80080FF89
:102180001FC09091F3008091F200392F20E0A90147
:10219000482BCA0106C041914093F100615071097A
:1021A00001966115710519F080319105A0F341E0A8
:1021B000409709F040E08091E8008E778093E80036
:1021C0006115710559F64111C9CF05C08EB3882339
:1021D00051F0853051F08091E80082FFF7CF80E028
:1021E000089581E0089582E0089583E00895409184
:1021F000B3015091B4014617570748F061157105B6
:1022000039F44091E8004E774093E80001C0BA01EC
:10221000FC0140E033C08EB3882309F442C085300E
:1022200009F441C08091E80083FD39C08091E80045
:1022300082FD2FC08091E80080FF20C09091F300C4
:102240008091F200392F20E0A901482BCA0107C074
:1022500044914093F10031966150710901966115E6
:10226000710519F08031910598F341E0409709F02C
:1022700040E08091E8008E778093E8006115710559
:1022800051F64111C8CF05C08EB3882351F0853077
:1022900051F08091E80082FFF7CF80E0089581E05F
:1022A000089582E0089583E00895CF92DF92EF923F
:1022B000FF920F931F93CF93DF93EB012091B30114
:1022C0003091B4012617370740F0209739F4209158
:1022D000E8002E772093E80001C0E9019C0180E02E
:1022E0003CC09EB3992309F44AC0953009F449C013
:1022F0009091E80093FD41C09091E80092FD37C0B5
:102300009091E80090FF29C09091F3008091F20035
:10231000F92EE12C8701082B6901C01AD10A07C0E8
:10232000CA01E7D28093F10021970F5F1F4FA601EA
:10233000400F511F742F652F209719F000311105A0
:1023400078F381E00031110509F080E09091E80018
:102350009E779093E800272F362F209711F6811152
:10236000C0CF05C08EB3882351F0853051F08091E5
:10237000E80082FFF7CF80E005C081E003C082E083
:1023800001C083E0DF91CF911F910F91FF90EF90FB
:10239000DF90CF9008958F708093E900EBEEF0E02E
:1023A000808181608083EDEEF0E010826093EC002C
:1023B00040838091EE00881F8827881F08958091B0
:1023C000AD0187FD05C08091E80080FF0DC010C001
:1023D0008091E80082FD04C08EB38111F9CF089589
:1023E0008091E8008B7707C08EB38111ECCF089500
:1023F0008091E8008E778093E80008958091E40052
:102400009091E50045E62091EC0020FD1EC022C021
:102410002EB3222391F0253091F02091EB0025FD81
:1024200010C02091E4003091E5002817390759F3D6
:102430004150C90141F784E0089582E0089583E0A6
:10244000089581E0089580E008952091E80020FF3C
:10245000DFCFF9CF2091E80022FFDACFF4CF0F933E
:102460001F93CF93DF9346D04DD0C8EDD0E0888145
:102470008F77888388818068888388818F7D88832F
:1024800019BC1EBA1092AB0100EE10E0F801808179
:102490008B7F808388818160888342E160E080E077
:1024A0007ADFE1EEF0E080818E7F8083E2EEF0E083
:1024B000808181608083808188608083F801808151
:1024C0008E7F8083888180618883DF91CF911F9187
:1024D0000F910895E8EDF0E080818F7E8083E7ED35
:1024E000F0E080818160808384E082BF81E080931E
:1024F000AC01B5CFE8EDF0E080818E7F8083109253
:10250000E20008951092DA001092E10008951F92FF
:102510000F920FB60F9211242F933F934F935F9317
:102520006F937F938F939F93AF93BF93EF93FF939B
:102530008091DA0080FF1DC08091D80080FF19C013
:102540008091DA008E7F8093DA008091D90080FF3D
:102550000CC080E189BD82E189BD09B400FEFDCFD8
:1025600081E08EBB0E94540104C019BC1EBA0E94B7
:1025700056018091E10080FF17C08091E20080FF4A
:1025800013C08091E2008E7F8093E2008091E20090
:1025900080618093E2008091D80080628093D800AF
:1025A00019BC85E08EBB89D18091E10084FF2EC0EB
:1025B0008091E20084FF2AC080E189BD82E189BD6B
:1025C00009B400FEFDCF8091D8008F7D8093D800A4
:1025D0008091E1008F7E8093E1008091E2008F7E08
:1025E0008093E2008091E20081608093E20080911C
:1025F000AB01882311F084E007C08091E30087FFDE
:1026000002C083E001C081E08EBB57D18091E10020
:1026100083FF21C08091E20083FF1DC08091E10013
:10262000877F8093E10082E08EBB1092AB018091A6
:10263000E1008E7F8093E1008091E2008E7F8093A5
:10264000E2008091E20080618093E20042E160E07C
:1026500080E0A1DE32D1FF91EF91BF91AF919F91C8
:102660008F917F916F915F914F913F912F910F903B
:102670000FBE0F901F9018951F93CF93DF9300D03C
:102680001F92CDB7DEB7EDEAF1E08091F1008193C2
:1026900081E0E53BF807C9F710D18091E80083FF9E
:1026A000F7C08091AD019091AE01953009F470C0F2
:1026B00038F4913079F170F0933009F0E9C02AC014
:1026C000983009F4B7C0993009F4C6C0963009F0C3
:1026D000DFC083C0803899F0823809F0D9C080917A
:1026E000B1019091B2018F7099278093E900909188
:1026F000EB0095FB992790F91092E90001C090E05A
:102700008091E800877F8093E8009093F100109219
:10271000F1009BC0882319F0823009F0B9C08F7195
:10272000823009F0B5C08091AF0181112BC080913A
:10273000B1019091B2018F709927009709F4A8C058
:102740008093E9002091EB0020FF1CC02091AE0196
:10275000233021F48091EB00806212C09091EB0055
:1027600090619093EB0021E030E001C0220F8A9548
:10277000EAF72093EA001092EA008091EB0088606B
:102780008093EB001092E9008091E800877F60C0A1
:1027900081117EC08091AF019091B0018F77992710
:1027A000182F9091E3009078982B9093E3008091FC
:1027B000E800877F8093E80002DE8091E80080FFD8
:1027C000FCCF8091E30080688093E300112311F037
:1027D00083E001C082E08EBB5BC08058823008F08D
:1027E00057C09E012D5F3F4FAE014F5F5F4F60911D
:1027F000B1018091AF019091B0010E949001BC01A4
:10280000009709F445C08091E800877F8093E80035
:102810002B8189819A81211102C0E9DC05C0213018
:1028200011F443DD01C086DC8091E8008B77809352
:10283000E8002EC0803861F58091E800877F8093A2
:10284000E8008091AB018093F1008091E8008E77E1
:102850008093E800B4DD1CC081111AC09091AF01D3
:102860009230B0F48091E800877F8093E8009093E5
:10287000AB01A5DD8091AB01811104C08091E30023
:1028800087FF02C084E001C081E08EBB0E94580136
:102890008091E80083FF0AC08091E800877F8093E1
:1028A000E8008091EB0080628093EB000F900F9026
:1028B0000F90DF91CF911F9108950895CF938EB31C
:1028C0008823A9F08091E9008F709091EC0090FF2F
:1028D00002C090E801C090E0C92FC82B1092E90017
:1028E0008091E80083FDC8DECF70C093E900CF91EE
:1028F0000895F999FECF92BD81BDF89A992780B5C8
:102900000895262FF999FECF92BD81BDF89A0197BF
:1029100000B4021639F01FBA20BD0FB6F894FA9A27
:0A292000F99A0FBE0895F894FFCF56
:10292A001C0330003000300032003000300030002C
:10293A003100320033003400350000000000090283
:10294A002000010100C0320904000002FF0000005B
:10295A000705830240000A0705020240000A8001B7
:10296A000081010090010091010192011794012157
:10297A009803069E0301A10110A40300013233202B
:10298A0000C001000140206830222A3218242C3568
:10299A004C081A23233323232326263626262601E8
:1029AA00010100000138391289AB45CDD888FF12E0
:1029BA0089AB45CDD888FF4156524953505F4D4B9C
:0229CA003200D9
:00000001FF
