:1000000073C100008DC100008BC1000089C10000D8
:1000100087C1000085C1000083C1000081C10000CC
:100020007FC100007DC100007BC100000C94A70CC3
:100030000C94530D75C1000073C1000071C1000024
:100040006FC100006DC100006BC1000069C10000FC
:1000500067C1000065C1000063C1000093C20000D9
:100060005FC100005DC100005BC1000059C100001C
:1000700057C1000030034100720064007500690040
:100080006E006F00200048006F006F0064006C007D
:100090006F0061006400650072002000420065008E
:1000A00074006100000012034E00690063006F00DD
:1000B00048006F006F006400000004030904090297
:1000C0005F00030100C032080B00020202010009B8
:1000D00004000001020201000524001001042402B2
:1000E000060524060001070582030800FF09040134
:1000F00000020A0000000705040240000107058312
:10010000024000010904020001030000000921115E
:1001100001000122B801070581032000011201102E
:1001200001EF020108EB03686E80010102DC0105AA
:10013000010902A1010901A100850105091901298F
:10014000051500250195057501810295017503814D
:100150000305010930093109381581257F75089596
:10016000038106C0C005010906A101850205071922
:10017000E029E715002501750195088102950175B3
:1001800008810395067508150025650507190029DE
:1001900065810005081901290595057501910295EC
:1001A0000175039103C006C0FF0A000CA10185037D
:1001B0007508150026FF00953F09018102953F094A
:1001C000029102C0050C0901A1018504150026FF5A
:1001D000FF19002AFFFF950475108100C005010971
:1001E00080A1018505150026FF00190029FF950152
:1001F00075088100C005010904A1018506050919DA
:10020000012920150025017501952081020501A114
:10021000000930093109320933093409351500273D
:10022000FFFF0000751095068102C005010939091C
:100230003915012508950275048102C005010904DC
:10024000A10185070509190129201500250175015E
:10025000952081020501A1000930093109320933D5
:1002600009340935150027FFFF0000751095068138
:1002700002C0093909391501250895027504810262
:10028000C005010904A1018508A10005091901297A
:100290000215002501750195028102050109300949
:1002A00031150026FF03750A95028102750295013A
:1002B0008103C0C005010904A1018509A100050948
:1002C0001901290215002501750195028102050118
:1002D00009300931150026FF03750A950281027560
:1002E0000295018103C0C00011241FBECFEFD2E0F0
:1002F000DEBFCDBF11E0A0E0B1E0E4EEF5E202C068
:1003000005900D92A633B107D9F712E0A6E3B1E04C
:1003100001C01D92AF34B107E1F72FD00C94F01259
:100320006FCE84B7877F84BF28E10FB6F8942093FF
:100330006000109260000FBE80E190E09093CD00CD
:100340008093CC0086E08093CA0082E08093C8004E
:100350002093C900539A5A9AE4D78AB180638AB924
:100360008BB180638BB90E94980C84E085BD5F9A45
:10037000579A209A22982A9A08954AE050E061E01C
:1003800070E084E092E00E94E912E6E3F1E09FB7BA
:10039000F894808180788068808311829FBF8091EB
:1003A0004101807C809341018BB180638BB9809146
:1003B0000E0280688F7B80930E021092C201109211
:1003C00039011092380110923A0110923C011092BA
:1003D0003B01A7DF789406E311E080E191E00E9401
:1003E000C20F97FD1BC040912401509125016091DF
:1003F000260170912701413051056105710511F405
:10040000ABD50CC05C98909141019C6090934101E8
:100410009091C80095FFFCCF8093CE009FB7F894D1
:1004200080913601880F880B2091370182239FBF6E
:1004300090E0009719F4A89935C08DC05D9820917F
:100440004101236020934101209111012F702093DD
:10045000E9002091E80020FFEECF8034910510F0F4
:100460008FE390E0F82EC0E0D0E019C0F8012FB77C
:10047000F894A081A7FF03C09181911104C02FBF00
:100480008FEF9FEF0AC0A91BAF77B0E0AA5CBE4F09
:100490001C968C91915091832FBFBCD12196FC1258
:1004A000E5CFC9CFA89A90914101892F807389F136
:1004B000892F82958F708D5F8370282F2295207FE2
:1004C0009F7C922B90934101811123C080913A012E
:1004D00081111FC075D180910E0287FD07C0682F62
:1004E000669566956695677071F008C086FF0BC0CB
:1004F000869586958695877061E001C080E090E0E2
:100500008D5E9D4F48D180910E0280688F7B8093D5
:100510000E0290914101892F837049F081508370C0
:100520009C7F982B90934101811101C05D9A90911D
:100530004101892F8C7079F0892F869586958D5F82
:100540008370282F220F220F937F922B90934101CB
:10055000811101C05C9A80E191E00E94AC0F0E9481
:10056000FB0E3BCF0895089580E091E00E94D811E2
:1005700080E191E00E94170FE2EEF0E0808184605C
:10058000808308951F920F920FB60F9211242F931C
:100590003F938F939F93AF93BF93EF93FF9380917C
:1005A000CE00909146029430E1F4E6E3F1E02FB7FB
:1005B000F894908197FF14C03181303809F410C04D
:1005C0009F77A92FB0E0AA5CBE4F1C968C939F5FCB
:1005D0009F7780818078892B808381818F5F818361
:1005E0002FBFFF91EF91BF91AF919F918F913F915D
:1005F0002F910F900FBE0F901F90189580E191E002
:100600000E94F00F80E091E00C94A11080910E0107
:1006100090910F01009729F0019790930F0180931B
:100620000E010895292F332723303105B1F04CF402
:100630002130310509F439C02230310509F03AC0C2
:1006400007C02132310539F12232310549F132C07A
:10065000EFE5F0E08EEB90E031C099278130910515
:1006600061F08230910581F0892B21F5EAEBF0E011
:10067000E491F0E08AEB90E021C0E6EAF0E0E4915A
:10068000F0E086EA90E01AC0E4E7F0E0E491F0E000
:1006900084E790E013C0E9E0F0E08DE091E00EC067
:1006A000E8EBF1E08FE291E009C0E2E1F0E08DE1FA
:1006B00091E004C0E0E0F0E080E090E0DA018D93AA
:1006C0009C93CF010895EF92FF920F931F93CF93C6
:1006D000DF937B01C901E801E091C201EE2329F11A
:1006E0004091C3012091C40142131FC0E33039F08F
:1006F00051E050930402F0E0EC5FFD4F5083E5ECD5
:10070000F1E050E0BF010E94E0128091C201F701C8
:1007100080838091C301888319821092C201109254
:10072000C4011092C30181E001C080E0DF91CF914C
:100730001F910F91FF90EF9008950F931F93C901A0
:10074000633051F45C98209141012C602093410169
:10075000B8011F910F918DC61F910F91089504C08C
:1007600080E091E00E94ED118091C201882331F078
:100770009091C3018091C401981791F30895E0917D
:10078000C201E150E93028F4F0E0E55DFE4F8081E0
:10079000089580E00895462F209111012F70209335
:1007A000E9002091E80020FFFCCF2091200120FFEC
:1007B00006C050E0BC0180E191E00C943C0F08952C
:1007C000CF93DF9300D000D000D0CDB7DEB76091DB
:1007D000C201662379F08091C40181110BC070E0E1
:1007E0007160AE014F5F5F4F81E04ED5682FCE0143
:1007F0000196D1DFB4DF1092C2011092C4011092B1
:10080000C30126960FB6F894DEBF0FBECDBFDF91B1
:10081000CF910895CF93DF931F92CDB7DEB790911C
:1008200041019063909341016EE072E00AD5882304
:1008300009F463C087FD54C0898391DF89818130C9
:10084000D9F4909110029130B9F4BADF80910F027F
:100850008093C2011092C4019FE3E5ECF1E0DF0157
:100860001D929A95E9F78BDF8093C301811145C0F2
:100870000F90DF91CF91A4CF9091C201992381F184
:100880006091C401462F50E0992787FD90959A0109
:100890002E5F3F4F359527952F5F3F4F8217930768
:1008A000F9F4FA01EB53FE4F80910F028083E62F9B
:1008B000EF5FE093C4018091C3018E1749F0F0E02F
:1008C000EB53FE4F9091100290836E5F6093C401D2
:1008D0009091C401891311C00F90DF91CF913FCF48
:1008E0006FDF60910E02669566956695677083E18D
:1008F00092E00F90DF91CF914ECF0F90DF91CF918B
:1009000008959BB1809589238BB90895682F80E164
:1009100091E00E945A0F8823E9F080E191E00E9463
:10092000AC0F0E94FB0E80E1ECDF2FEF81EE94E034
:10093000215080409040E1F700C0000080E1E1DFFD
:100940002FEF81EE94E0215080409040E1F700C00D
:100950000000E9CF089580E191E00E94C20F97FD69
:10096000FACF0895EF92FF920F931F93CF93DF93E7
:100970007C0102E411E0C0E0D0E005C0ECDFF8014A
:1009800081938F012196CE15DF05C4F3DF91CF91BE
:100990001F910F91FF90EF90089590914E0180E08C
:1009A00020914F01820F911D90933E0180933D0154
:1009B0009091500180E020915101820F911D909300
:1009C000400180933F010895CF93C82FC4DF803248
:1009D00039F484E19BDF8C2F99DF80E1CF9196CFB2
:1009E00085E194DF809138019091390101969093CF
:1009F000390180933801CF910895813859F018F466
:100A0000803871F405C0823839F0833949F406C062
:100A100082E007C081E005C082E103C083E501C038
:100A200080E0D2CF98DF803221F484E16FDF80E173
:100A30006DCF80E266DF2FEF80E792E021508040AB
:100A40009040E1F700C000005D9A2FEF80E792E050
:100A5000215080409040E1F700C0000080E251DF6B
:100A60002FEF80E792E0215080409040E1F700C0F6
:100A700000005D9A85E14ADF80913801909139014B
:100A800001969093390180933801089583E58CBDD8
:100A90008DB58EB508950DB407FEFDCF08958EBDBA
:100AA000FADF8EB50895CF93DF9300D01F92CDB7B4
:100AB000DEB72B834A836983F2DF6981862FEFDFFC
:100AC0004A81842FECDF2B81822F0F900F900F90A3
:100AD000DF91CF91E4CFE6E3F1E08FB7F894108295
:100AE00011828FBFD3DF249A2C9A219A29982FEF55
:100AF00080E792E0215080409040E1F700C0000084
:100B00002C982FEF80E792E0215080409040E1F751
:100B100000C000002398229A20E040E063E58CEAC0
:100B2000C2DF81E080933A010895462F880F880F35
:100B3000880F20E0672F805EB6CF0F931F93CF936F
:100B4000DF938C01C0E0D0E019C060913B0170914F
:100B50003C0180E0EADFDADE60913B0170913C010C
:100B600081E0E3DFD3DE20913B0130913C012F5F38
:100B70003F4F30933C0120933B012296C017D10791
:100B800024F380E1DF91CF911F910F91089584E0CC
:100B900090E0E8DE209145014091440160914301DD
:100BA0008091420180DF10CFD6DE803259F08091F3
:100BB0003801909139010196909339018093380161
:100BC00085E115C084E1A2DE20E040E060E080E342
:100BD0006ADF9CDE20E041E060E080E364DF96DED7
:100BE00020E042E060E080E35EDF90DE80E18ECED8
:100BF00023982298229A2198249810923A019FB71C
:100C0000F8948091360187FB882780F99FBF811176
:100C10000AC0E6E3F1E09FB7F894808180788068AD
:100C2000808311829FBF80910E0280688F7B8093AA
:100C30000E021092C2010895CF92DF92EF92FF92BE
:100C40000F931F93CF93DF93D82FC92F7B01CB0135
:100C500089DE5D9A82E4C82E81E0D82E0D2F1C2FEC
:100C6000E80111C0F60121916F014C2F6D2F80EC2E
:100C70001ADFFFE722E382E0F15020408040E1F7F5
:100C800000C000002196CE01801B910B8E159F05A0
:100C90004CF380E236DE80E1DF91CF911F910F911E
:100CA000FF90EF90DF90CF9008950F931F93CF9315
:100CB000DF93C0913B01D0913C0120913F013091E5
:100CC00040012817390724F0CC0FDD1F8C0112C01A
:100CD0008091380190913901019690933901809368
:100CE000380181E10EC060E270E0CE01A5DFA09680
:100CF0000052110901321105B4F7B801CE019CDF91
:100D000080E1DF91CF911F910F910895EF92FF92B3
:100D10000F931F93CF93DF937C0100913B011091C0
:100D20003C01000F111FE80107C02FEF4C2F6D2F62
:100D300080EAB9DEEBDD2196CE01801B910B8E158A
:100D40009F059CF380E1DF91CF911F910F91FF9060
:100D5000EF9008951F93CF93DF93FDDDD82FFBDD38
:100D6000C82FF9DD182FF7DD803259F08091380156
:100D7000909139010196909339018093380185E172
:100D800013C03D2F20E0C9018C0F911DEC0184E1BF
:100D9000BDDD163419F4CE01D0DE06C0153419F4C9
:100DA000CE01B4DF01C081E1DF91CF911F91AECDC3
:100DB0005D9A20E0482F692F8CE475DE2FEF86E7DF
:100DC00091E0215080409040E1F700C0000080E2B7
:100DD00098CD80913D0190913E0120913B01309151
:100DE0003C018032910511F4207F0EC080349105C2
:100DF00011F4207E09C08038910511F4207C04C0D4
:100E00008115914009F42078C9010895962F672F24
:100E1000242F880F880F880F492F805C44CECF92F3
:100E2000DF92EF92FF920F931F93CF93DF936C01AA
:100E3000D0DF8C01C0E0D0E029C0CBDF0817190754
:100E400021F0C801B5DFC5DF8C0146E3E42E41E0A7
:100E5000F42EEC0EFD1E60913B0170913C01F701F8
:100E6000448580E0D3DF229660913B0170913C0184
:100E7000F701458581E0CADF20913B0130913C01BB
:100E80002F5F3F4F30933C0120933B01CC15DD0594
:100E9000A4F2C8018DDF80E1DF91CF911F910F9106
:100EA000FF90EF90DF90CF900895CF93DF93EC0108
:100EB00059DD51DD803229F484E128DDCE01AFDF38
:100EC0000AC08091380190913901019690933901BF
:100ED0008093380185E1DF91CF9118CDCF93DF93D7
:100EE0003ADDD82F80E0C82F36DDC80FD11DC130C4
:100EF00081E0D80764F081E109DD809138019091AB
:100F000039010196909339018093380122C023DD85
:100F1000863421F4CE01DF91CF91C7CF8534A9F477
:100F2000CE01C3DEC82F17DD803221F484E1EEDC70
:100F30008C2F0CC0809138019091390101969093CB
:100F400039018093380185E101C081E1DF91CF91C2
:100F5000DDCCDF91CF910895CF93DF93EC018091A9
:100F60003A01882319F080E2CCDC01C05D9A8091BF
:100F7000380190913901892B19F080E1C2DC01C060
:100F80005C9AD7FDAEC0C135D10509F485C0E4F443
:100F9000C134D10509F452C054F4C033D10599F1DC
:100FA000C133D105A9F1A09709F089C07EC0C5342D
:100FB000D10509F44EC0C035D10509F44EC0C23484
:100FC000D10509F07CC03EC0C136D10509F459C035
:100FD0006CF4C635D10509F45CC0C036D10509F4FE
:100FE0004FC0C535D10509F06AC039C0C437D10535
:100FF00009F44CC0C537D10509F454C0C436D10535
:1010000009F05DC040C010923901109238011EC035
:10101000A2DC803209F065C084E178DC81E476DC12
:1010200086E574DC82E572DC80E270DC89E46EDCEB
:1010300083E56CDC80E56ADC80E150C08CDCDF910C
:10104000CF91DBCC84E190E08DDCA7DCDF91CF9108
:10105000E9CC85E090E086DCF9CF3DDDF7CF7BDCA5
:10106000C82FD0E0D0933C01C0933B0174DC382FF3
:1010700020E02C0F3D1F30933C0120933B01E6CF35
:101080006ADC69DCE3CFDF91CF9128CFDF91CF918C
:1010900061CEDF91CF917BCD109239011092380152
:1010A000A7DDD4CFDF91CF917FCD80913801909192
:1010B0003901019690933901809338010EC08091D7
:1010C000380190913901019690933901809338014C
:1010D00042DC803211F482E101C085E1DF91CF91E1
:1010E00015CCDF91CF9108950F931F93FB01908151
:1010F00096FF0FC0292F2695269526952770DB0190
:10110000A20FB11D15962C912583977C98609F7B2B
:1011100003C097FF02C0907C90839081969596952E
:1011200096959770DF01A90FB11D15968C93292F05
:101130002F5F2770220F220F220F4081477C422B06
:101140004083282F207C342F3770203809F463C067
:10115000203C09F045C0282F287326952695269512
:10116000332349F0990F990F990F477C492B40641D
:1011700040839EEF01C090E0223098F4908196FB6E
:10118000222720F9892F869586958695820F87706C
:10119000880F880F880F977C982B9F7B90839FEFF9
:1011A0003FC0273059F4082F0F7010E020E030E0E6
:1011B000018312832383348325E00AC0482F4770BC
:1011C00050E060E070E04183528363837483215078
:1011D00027708081887F822B8083992329F120C00A
:1011E000032F10E00230110524F1395F3770487F7A
:1011F000432B4083418152816381748197E0440F86
:10120000551F661F771F9A95D1F7482B418352834C
:101210006383748309C0313071F4982F9F739F5F8B
:1012200080818068808309C080818F77808390E08F
:1012300004C09DEFF5CF9CEFF3CF892F1F910F9145
:1012400008950F931F93CF93DF93EB014DDF181693
:10125000B4F409811A812B813C81A9016627772783
:101260002227332740275127622773274F3F5F4F9D
:101270006105710521F08881806888838BEFDF919B
:10128000CF911F910F910895FA012CE130E097E082
:10129000AB01022E02C0569547950A94E2F74830FA
:1012A00028F0973059F4408396E008C0408391506D
:1012B000411104C027503109923051F7492F425053
:1012C0000DC0DF01A40FB11D9B012F7733272C9395
:1012D000660F672F661F770B719541504111F1CF53
:1012E000492F50E09A0163E0220F331F6A95E1F71E
:1012F000206C3F6F3081322B3083E40FF51F319724
:1013000081508F7380688083892F0895FC01208924
:1013100020FF02C05F9808955F9A8BB180638BB9FC
:101320000895CF93DF935B9AE9ECF0E01082A8EC8C
:10133000B0E01C92CAECD0E0188286E0888382E09C
:101340008C9388E980835B98DF91CF9108951F93F8
:10135000CF93DF93EC01E98DE150E23028F4F0E027
:10136000EC5CFE4F108101C010E0888D823009F4E2
:1013700018608A8D873031F0883031F0863029F45A
:10138000126003C0146001C016605B9A1092C9001D
:101390001092C8001092CA002C893D894E895F893D
:1013A000211581EE38074105510579F0CA01B901CF
:1013B000969587957795679560587B47814E9F4FA7
:1013C0000E94B1122150310902C020E130E0309377
:1013D000CD002093CC001093CA008C899D89AE89E2
:1013E000BF898115914EA105B10511F480E001C0BE
:1013F00082E08093C80088E98093C9005B988C895B
:101400009D89AE89BF890197A105B105D1F480E11D
:1014100090E09093CD008093CC0086E08093CA004A
:1014200082E08093C80088E18093C900539A5A9A59
:1014300078DFE6E3F1E08FB7F894108211828FBF76
:1014400014C09FB7F8948091360187FB882780F9F4
:101450009FBF81110AC0E6E3F1E09FB7F894808155
:1014600080788068808311829FBFDF91CF911F9128
:101470000895680F791F09C0FC012191CF013091B7
:10148000C80035FFFCCF2093CE0086179707A1F741
:101490000895BF92CF92DF92EF92FF920F931F9326
:1014A000CF93DF937C018B01EA01D7D1B82E811154
:1014B00032C0209731F028813981021B130BE20ED4
:1014C000F31EC12CD12C22C08091E80085FD14C0F0
:1014D0008091E8008E778093E800209749F088811A
:1014E00099818C0D9D1D9983888325E0B22E13C0B0
:1014F000B4D1882359F00EC0F70181917F01809308
:10150000F10001501109FFEFCF1ADF0A0115110593
:10151000D9F601C0B82E8B2DDF91CF911F910F917D
:10152000FF90EF90DF90CF90BF90089520914D02F3
:1015300030914E022617370748F06115710539F4CE
:101540002091E8002E772093E80001C0B9019C01AA
:1015500080E034C090914602992309F443C095304D
:1015600009F442C09091E80093FD3AC09091E800E0
:1015700092FD30C09091E80090FF20C08091F20071
:1015800090E0F901821B930B05C021912093F1009B
:10159000615071099F01280F391F6115710519F0FC
:1015A0002830310590F381E02830310509F080E0E2
:1015B0009091E8009E779093E8009F016115710576
:1015C00049F68111C7CF06C080914602882351F0A9
:1015D000853051F08091E80082FFF6CF80E00895D9
:1015E00081E0089582E0089583E008956115710512
:1015F00029F42091E8002B772093E8009C0121C07A
:1016000080914602882381F1853041F18091E80084
:1016100083FD26C08091E80082FFF2CFF90107C068
:101620008091F10081939F016150710929F09F0120
:101630008091F2008111F4CF8091E8008B77809344
:10164000E80061157105E1F68091E80080FD0AC0AF
:1016500080914602882341F08530B1F783E00895F8
:1016600081E0089580E0089582E0089520914D0280
:1016700030914E022617370748F06115710539F48D
:101680002091E8002E772093E80001C0B9019C0169
:1016900080E035C090914602992309F444C095300A
:1016A00009F443C09091E80093FD3BC09091E8009D
:1016B00092FD31C09091E80090FF21C08091F2002E
:1016C00090E0F901821B930B06C024912093F10056
:1016D0003196615071099C012E0F3F1F61157105F4
:1016E00019F02830310588F381E02830310509F000
:1016F00080E09091E8009E779093E8009F0161154B
:10170000710541F68111C6CF06C08091460288233B
:1017100051F0853051F08091E80082FFF6CF80E0F3
:10172000089581E0089582E0089583E00895982F58
:101730002CC09093E900981739F07091EC0020913B
:10174000ED005091F00003C0242F762F50E021FDD2
:1017500002C09F5F1AC03091EB003E7F3093EB00D8
:101760003091ED003D7F3093ED003091EB00316022
:101770003093EB007093EC002093ED005093F00059
:101780002091EE0027FDE5CF07C0953090F28F70D5
:101790008093E90081E0089580E008950F931F93FE
:1017A000CF93DF93062FEC0110E02EC098819111AA
:1017B00003C01F5F259628C02C81E981FA816B81C7
:1017C000892F8F70853010F080E021C0223010F01A
:1017D00056E001C052E028E030E040E003C04F5F37
:1017E000220F331F2E173F07D0F34295407F452B22
:1017F000991F9927991F6295660F660F607C692B68
:1018000096DF8111D6CFE0CF1013D0CF81E0DF91EA
:10181000CF911F910F9108958091470287FD05C0D8
:101820008091E80080FF0EC012C08091E80082FD28
:1018300005C0809146028111F8CF08958091E8009B
:101840008B7708C0809146028111EACF089580917C
:10185000E8008E778093E80008958091E4009091ED
:10186000E50045E62091EC0020FD1FC023C020913B
:101870004602222391F0253091F02091EB0025FDC6
:1018800010C02091E4003091E5002817390751F38A
:101890004150C90139F784E0089582E0089583E05A
:1018A000089581E0089580E008952091E80020FFE8
:1018B000DECFF9CF2091E80022FFD9CFF4CF41D07D
:1018C00043D08091D8008F778093D8008091D80042
:1018D00080688093D8008091D8008F7D8093D80055
:1018E00084E089BD86E089BD09B400FEFDCF109279
:1018F000460210924202109244021092430242E0C9
:1019000060E080E014DF8091E1008E7F8093E10051
:101910008091E20081608093E2008091E200886023
:101920008093E2008091E0008E7F8093E000089534
:10193000E3E6F0E080818E7F808381E08093450242
:10194000BECF1092E20008951092E10008951F9218
:101950000F920FB60F9211242F933F934F935F93E3
:101960006F937F938F939F93AF93BF93EF93FF9367
:101970008091E10082FF0BC08091E20082FF07C0EE
:101980008091E1008B7F8093E1000E9406038091AB
:10199000E10080FF18C08091E20080FF14C08091B8
:1019A000E2008E7F8093E2008091E200806180936C
:1019B000E2008091D80080628093D80019BC109218
:1019C00046020E94B3028091E10084FF30C0809102
:1019D000E20084FF2CC084E089BD86E089BD09B4A3
:1019E00000FEFDCF8091D8008F7D8093D80080913C
:1019F000E1008F7E8093E1008091E2008F7E8093F2
:101A0000E2008091E20081608093E20080914202D6
:101A1000882311F084E007C08091E30087FF02C0B3
:101A200083E001C081E0809346020E94B20280916F
:101A3000E10083FF27C08091E20083FF23C08091F3
:101A4000E100877F8093E10082E08093460210925C
:101A500042028091E1008E7F8093E1008091E2005C
:101A60008E7F8093E2008091E20080618093E200AB
:101A700042E060E080E05BDE8091F000886080936F
:101A8000F000B8D1FF91EF91BF91AF919F918F91ED
:101A90007F916F915F914F913F912F910F900FBE6A
:101AA0000F901F9018951F920F920FB60F9211244E
:101AB0002F933F934F935F936F937F938F939F9356
:101AC000AF93BF93CF93EF93FF938091E9008F7013
:101AD0009091EC0090FF02C090E801C090E0C92F07
:101AE000C82B1092E9008091F000877F8093F0006E
:101AF00078941CD01092E9008091F0008860809367
:101B0000F000CF70C093E900FF91EF91CF91BF91AA
:101B1000AF919F918F917F916F915F914F913F9185
:101B20002F910F900FBE0F901F9018951F93CF937A
:101B3000DF93CDB7DEB7AC970FB6F894DEBF0FBE1C
:101B4000CDBFE7E4F2E08091F100819322E0EF3431
:101B5000F207C9F70E94FE028091E80083FF32C1BC
:101B60008091470290914802953009F487C038F47B
:101B70009130B1F170F0933009F024C131C0983048
:101B800009F4F4C0993009F400C1963009F01AC183
:101B90009BC0803821F0823809F014C108C08091C0
:101BA000430290914402992389F082600FC0809192
:101BB0004B0290914C028F7099278093E90080919D
:101BC000EB0085FB882780F91092E9009091E800EE
:101BD000977F9093E8008093F1001092F100D1C0BC
:101BE000882319F0823009F0EDC08F7121F0823026
:101BF00009F0E8C00BC080914902813009F0E2C0D1
:101C0000933009F080E0809344022FC08091490214
:101C100081112BC080914B0290914C028F709927BB
:101C2000009709F4CFC08093E9002091EB0020FFDA
:101C30001CC020914802233021F48091EB00806287
:101C400012C09091EB0090619093EB0021E030E0A6
:101C500001C0220F8A95EAF72093EA001092EA0069
:101C60008091EB0088608093EB001092E9008091F6
:101C7000E800877F8093E800CFDDA4C08111A2C077
:101C80008091490290914A028F779927182F90915D
:101C9000E3009078982B9093E3008091E800877F91
:101CA0008093E800B9DD8091E80080FFFCCF80914F
:101CB000E30080688093E300112311F083E001C00A
:101CC00082E0809346027EC08058823008F07AC05D
:101CD0008091490290914A028C3D23E0920771F570
:101CE00083E08A838AE289834FB7F894DE011396F2
:101CF00020E03EE051E2E32FF0E050935700E49102
:101D000020FF03C0E295EF703F5FEF708E2F90E0F1
:101D1000EA3010F0C79601C0C0968D939D932F5F57
:101D2000243149F74FBF8091E800877F8093E80016
:101D30006AE270E0CE010196F9DB12C0AE01455DAA
:101D40005F4F60914B020E9412030097D9F12091DE
:101D5000E800277F2093E800BC018BA59CA586DCCA
:101D60008091E8008B778093E8002CC0803851F593
:101D70008091E800877F8093E80080914202809301
:101D8000F1008091E8008E7775CF81111BC0909192
:101D900049029230B8F48091E800877F8093E80090
:101DA0009093420239DD80914202811104C08091FA
:101DB000E30087FF02C084E001C081E08093460217
:101DC0000E94B4028091E80083FF0AC08091E8007D
:101DD000877F8093E8008091EB0080628093EB0026
:101DE000AC960FB6F894DEBF0FBECDBFDF91CF919A
:101DF0001F9108950895CF93809146028823A9F0FA
:101E00008091E9008F709091EC0090FF02C090E803
:101E100001C090E0C92FC82B1092E9008091E80022
:101E200083FD84DECF70C093E900CF910895CF93F6
:101E3000DF93EC014096FC018BE0DF011D928A9557
:101E4000E9F782E08C83898783E08E8761E0CE01A9
:101E50000196A4DC882361F061E0CE0106969EDC49
:101E6000882331F061E0CE010B96DF91CF9196CCC3
:101E700080E0DF91CF9108950F931F93FC01CB0178
:101E8000BA0120914602243089F4048915892689F3
:101E90003789012B022B032B49F021812F702093CE
:101EA000E90040E050E01F910F91F3CA82E01F91DA
:101EB0000F910895CF93C62F209146022430F1F45C
:101EC000FC014489558966897789452B462B472B28
:101ED000A9F081818F708093E9008091E80085FFEF
:101EE00004C0C093F10080E00AC08091E8008E77C2
:101EF0008093E800B2DC8823A1F301C082E0CF9197
:101F0000089520914602243029F5FC014489558921
:101F100066897789452B462B472BE1F081818F70AD
:101F20008093E9008091F200811102C080E0089561
:101F30009091E8008091E8008E778093E80095FD0D
:101F4000F5CF8BDC811107C09091E8009E779093CC
:101F5000E800089582E0089520914602243089F433
:101F6000FC014489558966897789452B462B472B87
:101F700041F021812F702093E9002091E80020FD9D
:101F8000C0CF089520914602243019F02FEF3FEF83
:101F900024C0FC014489558966897789452B462BE5
:101FA000472BA1F386818F708093E9008091E80030
:101FB00082FFECCF8091F200882321F02091F10084
:101FC00030E002C02FEF3FEF8091F200811105C099
:101FD0008091E8008B778093E800C9010895089507
:101FE000CF93DF93EC018091E80083FFA7C0888145
:101FF00090E020914B0230914C022817390709F0EC
:102000009DC080914802813261F020F4803209F055
:1020100095C03DC0823209F46DC0833209F08EC094
:102020007DC080914702813A09F088C08091E80024
:10203000877F8093E8008091E80080FFFCCF4C8987
:102040005D896E897F894093F100BB27A72F962F6A
:10205000852F8093F100CB01AA27BB278093F10045
:10206000472F5527662777274093F100888D809367
:10207000F100898D8093F1008A8D8093F100809129
:10208000E8008E778093E800DF91CF91C5CB8091F7
:102090004702813209F052C08091E800877F809327
:1020A000E80005C080914602882309F447C080916A
:1020B000E80082FFF7CF3091F1002091F10090917C
:1020C000F1008091F1003C8B2D8B9E8B8F8B80914A
:1020D000F100888F8091F100898F8091F1008A8FC3
:1020E0008091E8008B778093E80096DBCE01DF914A
:1020F000CF912DC980914702813201F58091E8008E
:10210000877F8093E80088DB8091490290914A02A2
:10211000998B888BCE01DF91CF91F8C880914702CF
:10212000813261F48091E800877F8093E80074DB5E
:1021300060914902CE01DF91CF9151CFDF91CF91D4
:1021400008956F927F928F929F92AF92BF92CF929B
:10215000DF92EF92FF920F931F93CF93DF9300D004
:102160001F92CDB7DEB77C01ADB6BEB68091E80058
:1021700083FF07C1F701808190E020914B023091ED
:102180004C022817390709F0FCC0809148028330BF
:1021900009F49EC030F4813071F0823009F0F1C052
:1021A000D4C08A3009F4B9C08B3009F4A2C0893098
:1021B00009F0E7C04CC080914702813A09F0E1C0C4
:1021C0008DB69EB61A8219828091490210914A02F8
:1021D0008B83F70140858DB79EB7841B91090FB69D
:1021E000F8949EBF0FBE8DBFCDB6DEB6EFEFCE1A10
:1021F000DE0A360150E060E070E0C601EAD1412F0E
:1022000041508E010F5F1F4F9601BE016D5F7F4FE2
:10221000C7010E946303F70126813781211531052B
:1022200029F0408550E0B601C901CAD11092E900F9
:102230008091E800877F8093E80069817A81C301FB
:1022400075D98091E8008B778093E80039C0809140
:102250004702813209F095C08DB69EB600914D02BD
:1022600010914E027090490260904A028DB79EB75D
:10227000801B910B0FB6F8949EBF0FBE8DBFCDB6DD
:10228000DEB6EFEFCE1ADE0A8091E800877F8093FA
:10229000E800B801C601AAD98091E8008E77809342
:1022A000E80021E0711001C020E030E0021B130BB8
:1022B0002C0D3D1D462D4150672DC7010E949D03E9
:1022C000882D992D0FB6F8949EBF0FBE8DBF59C0B3
:1022D00080914702813A09F054C08091E800877FDD
:1022E0008093E8008091E80080FFFCCFF7018185B2
:1022F00040C080914702813209F043C08091E800DC
:10230000877F8093E80088DA9091490281E09111FB
:1023100001C080E0F701818734C08091470281329B
:1023200081F58091E800877F8093E80075DA8091DD
:10233000490290914A02882736E0969587953A950A
:10234000E1F7F701958784871CC080914702813AA5
:10235000C1F48091E800877F8093E8008091E800D5
:1023600080FFFCCFF7018485958596958795969596
:1023700087958093F1008091E8008E778093E80044
:102380004BDA0FB6F894BEBE0FBEADBE0F900F90E5
:102390000F90DF91CF911F910F91FF90EF90DF9001
:1023A000CF90BF90AF909F908F907F906F90089547
:1023B0009C01275F3F4FF90127E0DF011D922A951D
:1023C000E9F721E0FC01218724EF31E035872487FC
:1023D00023E0248361E00196E1C94F925F926F92FE
:1023E0007F928F929F92AF92BF92CF92DF92EF92A5
:1023F000FF920F931F93CF93DF9300D01F92CDB71F
:10240000DEB77C01ADB6BEB680914602843009F0DD
:102410008FC08091E4009091E500F701228533851B
:102420002817390709F484C081818F708093E900EF
:102430008091E80085FF7CC06DB67EB640858DB783
:102440009EB7841B91090FB6F8949EBF0FBE8DBF37
:10245000CDB6DEB6EFEFCE1ADE0A1B821A821982E3
:10246000460150E060E070E0C601B3D08E010F5F1E
:102470001F4F960140E0BE016D5F7F4FC7010E9474
:102480006303582EF70184859585892B31F001E08F
:1024900010E086859785892B11F000E010E0F701A8
:1024A000C680D780C114D10489F049815A81B60110
:1024B000C40179D044244394009709F4412CF701D6
:1024C000408550E0B401C6017BD001C0412C898118
:1024D0009A81892BF9F0511004C0411002C000FF0D
:1024E00019C0F701848595859787868781818F70CC
:1024F0008093E9008B8181118093F10069817A8159
:1025000040E050E0C4010E94490A8091E8008E77C3
:102510008093E8008091E4009091E500F7019387B3
:102520008287862D972D0FB6F8949EBF0FBE8DBF64
:102530000FB6F894BEBE0FBEADBE0F900F900F90B9
:10254000DF91CF911F910F91FF90EF90DF90CF908F
:10255000BF90AF909F908F907F906F905F904F90C3
:102560000895A1E21A2EAA1BBB1BFD010DC0AA1FD4
:10257000BB1FEE1FFF1FA217B307E407F50720F0EC
:10258000A21BB30BE40BF50B661F771F881F991F67
:102590001A9469F760957095809590959B01AC01B0
:1025A000BD01CF010895FB01DC0104C08D910190B4
:1025B000801921F441505040C8F7881B990B0895A9
:1025C000FB01DC0102C001900D9241505040D8F750
:1025D0000895DC0101C06D9341505040E0F708952B
:0425E000F894FFCF9D
:1025E40002812000000100003F0000000000000004
:1025F4000083400000010440000001820800000143
:10260400000000000000000000000004083F080172
:0626140011110303302048
:00000001FF
