:1000000073C100008DC100008BC1000089C10000D8
:1000100087C1000085C1000083C1000081C10000CC
:100020007FC100007DC100007BC100000C94A70DC2
:100030000C94530E75C1000073C1000071C1000023
:100040006FC100006DC100006BC1000069C10000FC
:1000500067C1000065C1000063C100004CC300001F
:100060005FC100005DC100005BC1000059C100001C
:1000700057C1000030034100720064007500690040
:100080006E006F00200048006F006F0064006C007D
:100090006F0061006400650072002000420065008E
:1000A00074006100000012034E00690063006F00DD
:1000B00048006F006F006400000004030904090297
:1000C0005F00030100C032080B00020202010009B8
:1000D00004000001020201000524001001042402B2
:1000E000060524060001070582030800FF09040134
:1000F00000020A0000000705040240000107058312
:10010000024000010904020001030000000921115E
:1001100001000122B801070581031000011201103E
:1001200001EF020108EB03686E80010102DC0105AA
:10013000010902A1010901A100850105091901298F
:10014000051500250195057501810295017503814D
:100150000305010930093109381581257F75089596
:10016000038106C0C005010906A101850205071922
:10017000E029E715002501750195088102950175B3
:1001800008810395067508150025650507190029DE
:1001900065810005081901290595057501910295EC
:1001A0000175039103C006C0FF0A000CA10185037D
:1001B0007508150026FF00950F09018102950F09AA
:1001C000029102C0050C0901A1018504150026FF5A
:1001D0000319002AFF03950475108100C005010969
:1001E00080A1018505150026FF00190029FF950152
:1001F00075088100C005010904A1018506050919DA
:10020000012920150025017501952081020501A114
:10021000000930093109320933093409351500273D
:10022000FFFF0000751095068102C005010939091C
:100230003915012508950275048102C005010904DC
:10024000A10185070509190129201500250175015E
:10025000952081020501A1000930093109320933D5
:1002600009340935150027FFFF0000751095068138
:1002700002C0093909391501250895027504810262
:10028000C005010904A1018508A10005091901297A
:100290000215002501750195028102050109300949
:1002A00031150026FF03750A95028102750295013A
:1002B0008103C0C005010904A1018509A100050948
:1002C0001901290215002501750195028102050118
:1002D00009300931150026FF03750A950281027560
:1002E0000295018103C0C00011241FBECFEFD2E0F0
:1002F000DEBFCDBF11E0A0E0B1E0E8EAF7E202C066
:1003000005900D92A633B107D9F711E0A6E3B1E04D
:1003100001C01D92A13FB107E1F76CD00C94D2133C
:100320006FCEE6E3F1E05FB7F894208131812115CB
:10033000310519F04481411104C05FBF2FEF3FEF39
:1003400011C0828190E0841B910997FF03C06381F3
:10035000860F911DD901A80FB91F2C9141504483DC
:100360005FBF30E0C9010895E6E3F1E04FB7F894CC
:10037000208131812115310509F41DC0828190E071
:100380005481851B9109019797FF03C05381850F05
:10039000911DD901A80FB91F6C9384819381891392
:1003A00008C09281911101C0828382818150828331
:1003B00002C08F5F84834FBF089584B7877F84BF57
:1003C00088E10FB6F89480936000109260000FBE31
:1003D0000E94A60A8AB180638AB98BB180638BB907
:1003E0000E94980D84E085BD5F9A579A20982598C1
:1003F0002D9A0895E6E3F1E02FB7F8948BE391E0AE
:1004000091838083128280E8838314822FBF1092AD
:10041000E30188ED91E077D71092C3018091C40188
:10042000807F8093C4011092D6011092D701FFD330
:10043000C4DF789483B1807283B9811101C0B6D2D0
:1004400080E191E00E94A41097FD1BC0409124011F
:10045000509125016091260170912701413051058D
:100460006105710511F49BD60CC05C989091C30195
:100470009C609093C3019091C80095FFFCCF80933E
:10048000CE008091BC0181111BC12FB7F8948091DF
:10049000360190913701892B19F080913A0101C002
:1004A00080E02FBF90E0009719F4A89988C008C198
:1004B0005D982091C30123602093C3012091110115
:1004C0002F702093E9002091E80020FFEECF8034C8
:1004D000910510F08FE390E0182FC0E0D0E06CC0E1
:1004E0008091240190912501A0912601B0912701CE
:1004F0002091E301222329F08091200180FF11C087
:100500001CC082309105A105B10528F08115924CDF
:10051000A140B10589F793B1907293B9992361F322
:1005200041C08091E301882341F086E391E0F9DE48
:100530008091E30181112DC03EC07FB7F8942091D6
:100540003601309137012115310541F040913A01D2
:10055000442321F050E01416150624F07FBF6FEFFE
:100560007FEF10C08091380190E0841B950B97FFBE
:1005700004C040913901840F911DF901E80FF91F62
:1005800060817FBF80E191E00E943C10882369F286
:100590008CCF81508093E3018091C301806380936D
:1005A000C30109C08091C30180638093C30186E3C6
:1005B00091E0B7DEA4D221961C1392CF76CFA89AF1
:1005C0009091C301892F807309F458C0892F8295B7
:1005D0008F708D5F8370282F2295207F9F7C922BB8
:1005E0009093C30181114AC0E091D801E6FF15C084
:1005F000E695E695E695E770F0E0E352FE4F608100
:1006000086E391E0B1DE8091D80186FB882780F9EE
:100610009091E301890F8093E3010091D80107FDD8
:1006200029C00695069506950770C0E0D0E010E059
:1006300086E3E82E81E0F82EE00EF11E09C0F701F6
:10064000EC0FFD1FE955FF4F608186E391E08CDEE2
:100650002197CE01809590958017910784F3809122
:10066000D80186958695869587709091E301890FCC
:100670008093E30188ED91E046D60ED29091C301BC
:10068000892F837049F0815083709C7F982B9093C1
:10069000C301811101C05D9A9091C301892F8C70B3
:1006A00079F0892F869586958D5F8370282F220F8C
:1006B000220F937F922B9093C301811101C05C9A0A
:1006C00080E091E00E94CF1280E191E00E948E10C4
:1006D0000E94FB0FAFCE0895089580E091E00E9444
:1006E000BA1280E191E00E941710E2EEF0E0808102
:1006F0008460808308951F920F920FB60F92112489
:100700002F933F934F935F938F939F93AF93BF9399
:10071000EF93FF934091CE008091BC01811121C0E5
:100720008091E8018430E9F4E6E3F1E02FB7F89432
:10073000808191810097A1F054813381531301C0CE
:100740000FC03281DC01A30FB11D4C93832F8F5F4B
:1007500082839381891301C0128284818F5F848395
:100760002FBFFF91EF91BF91AF919F918F915F91BB
:100770004F913F912F910F900FBE0F901F901895A2
:1007800080E191E00E94D21080E091E00C9483110E
:1007900080910E0190910F01009729F0019790939D
:1007A0000F0180930E010895292F3327233031053F
:1007B000B1F04CF42130310509F439C02230310553
:1007C00009F03AC007C02132310539F12232310532
:1007D00049F132C0EFE5F0E08EEB90E031C09927AF
:1007E0008130910561F08230910581F0892B21F5EE
:1007F000EAEBF0E0E491F0E08AEB90E021C0E6EA79
:10080000F0E0E491F0E086EA90E01AC0E4E7F0E07E
:10081000E491F0E084E790E013C0E9E0F0E08DE0DF
:1008200091E00EC0E8EBF1E08FE291E009C0E2E177
:10083000F0E08DE191E004C0E0E0F0E080E090E0E5
:10084000DA018D939C93CF010895FF920F931F932C
:10085000CF93DF9320E030E050E0640F751FC6E3D4
:10086000D1E02CC0FB01E21BF30B31970081FE01AC
:100870001FB7F894A081B181109709F41CC0828140
:1008800090E0F4808F199109019797FF03C0F380DE
:100890008F0D911DA80FB91F0C938481938189132B
:1008A00008C09281911101C082838281815082832C
:1008B00002C08F5F84831FBF2F5F3F4F2417350710
:1008C0008CF2DF91CF911F910F91FF9008950895C1
:1008D00004C080E091E00E94CF128091D70187FD93
:1008E000F8CF08958150893030F4E82FF0E0E55DCD
:1008F000FE4F8081089580E00895EF92FF921F934C
:10090000CF93DF931F92CDB7DEB7182FE82EF12CCF
:1009100021E0E21AF1082091D6018091D701382F09
:100920003F770E2C02C0359527950A94E2F720FFF9
:1009300036C0812FD7DF882391F18983C9DF1F70EB
:100940009091C401907F912B9093C40125EC31E0EC
:100950008981482F50E060E070E0C9010E94CB130C
:100960008091D70180688093D701B2DF81E090E069
:1009700002C0880F991FEA94E2F780959095209124
:10098000D6014091D701342F3F7782239323809360
:10099000D6019F77842F8078892B8093D7010F9081
:1009A000DF91CF911F91FF90EF900895CF938091A9
:1009B000D6012091D701922F9F77892B31F0C1E08A
:1009C0008C2F9BDFCF5FCA30D9F7CF910895CF929C
:1009D000DF92EF92FF920F931F93CF93DF9300D09C
:1009E000CDB7DEB77B01932F68017091D701672FD8
:1009F000607809F440C0E091C401EF70E330B1F0D9
:100A0000F0E0319741E050E002C0440F551FEA95F5
:100A1000E2F7E091D601F72FFF774E2B5F2B409343
:100A2000D601452F4F77462B4093D7018091C401C3
:100A30008F7029839A8356DF182FE5ECF1E0482F59
:100A400050E0BF012981822F9A810E94C2139091A8
:100A5000C4019F70F7019083F60110831182809189
:100A6000D7018F778093D7018091C401807F8093D5
:100A7000C40181E006C0F7011082F80111821082E2
:100A800080E00F900F90DF91CF911F910F91FF9019
:100A9000EF90DF90CF9008951F93CF93DF9300D016
:100AA00000D000D0CDB7DEB713DF8091C401682F2E
:100AB0006F70B1F0807FA1F470E07160AE014F5FA4
:100AC0005F4F81E0F6D4182F482FBE016F5F7F4F34
:100AD00086E391E0BADE9091E301910F9093E301F8
:100AE0008091C401807F8093C40126960FB6F8944C
:100AF000DEBF0FBECDBFDF91CF911F910895CF9381
:100B000068ED71E0B3D4882309F48FC087FD75C008
:100B10008130E9F49091DA019130C9F4D9DEC091C5
:100B2000D9019091C4019F709093C401B5DF8C2FBF
:100B30008F709091C401907F982B9093C4019F7007
:100B400009F471C090E00A970CF46FC06CC020915A
:100B5000C401922F9F7009F450C0992787FD90958A
:100B600022952F7030E02E5F3F4F359527952F5FF0
:100B70003F4F8217930709F040C0AADEC091C4011D
:100B80008C2F8F70AFDE2C2F22952F709091D90172
:100B90003091DA01E22FF0E0EB53FE4F9083E22F29
:100BA000EF5FEF704E2F4295407F9091C4019F7090
:100BB000942B9093C4018E1769F0F0E0EB53FE4F35
:100BC00030832E5F2295207F9091C4019F70922BDD
:100BD0009093C4012091C40122952F7030E090E0E1
:100BE0002817390711F58091D70180688093D701C4
:100BF00080E091E0CF910C94CF124091D8014695BE
:100C00004695469547706DED71E086E391E01DDEF7
:100C10008091D80186958695869587709091E3019D
:100C2000890F8093E301CF9137CFCF910895109230
:100C3000BB011092BC011092BE011092BD0108953B
:100C4000682F80E191E00E943C108823D9F080E178
:100C500091E00E948E100E94FB0F5C982FEF81EEB6
:100C600094E0215080409040E1F700C000005C9883
:100C70002FEF81EE94E0215080409040E1F700C0DA
:100C80000000EBCF089580E191E00E94A41097FD51
:100C9000FACF0895EF92FF920F931F93CF93DF93B4
:100CA0007C010BE311E0C0E0D0E005C0ECDFF8010F
:100CB00081938F012196CE15DF05C4F3DF91CF918B
:100CC0001F910F91FF90EF900895239822982198FB
:100CD00024982098E6E3F1E08FB7F894128214820A
:100CE0008FBF1092BC011092E30188ED91E00BC31D
:100CF000CF93C82FC8DF803239F484E1A1DF8C2F75
:100D00009FDF80E1CF919CCF85E19ADF8091BB018D
:100D10008F5F8093BB01CF910895B5DF803221F4BE
:100D200084E18EDF80E18CCF85E18ADF8091BB0199
:100D30008F5F8093BB010895813859F018F4803893
:100D400071F405C0823839F0833949F406C082E075
:100D500007C081E005C082E103C083E501C080E0F7
:100D6000C7CF84E190E096DF9091470180E0209129
:100D70004801820F911D9093C0018093BF01909113
:100D8000490180E020914A01820F911D9093C20198
:100D90008093C101089583E58CBD8DB58EB508950E
:100DA0000DB407FEFDCF08958EBDFADF8EB5089510
:100DB000CF93DF9300D01F92CDB7DEB72B834A834A
:100DC0006983F2DF6981862FEFDF4A81842FECDFB0
:100DD0002B81822F0F900F900F90DF91CF91E4CF56
:100DE00052DF803239F08091BB018F5F8093BB016D
:100DF00085E115C084E124DF20E040E060E080E38D
:100E0000D7DF1EDF20E041E060E080E3D1DF18DFC4
:100E100020E042E060E080E3CBDF12DF80E110CF32
:100E200084E090E037DF20913E0140913D016091E8
:100E30003C0180913B01BCDF5BCFB8DD209A289A52
:100E4000AADF249A2C9A219A29982FEF80E792E022
:100E5000215080409040E1F700C000002C982FEF17
:100E600080E792E0215080409040E1F700C0000010
:100E70002398229A20E040E063E58CEA99DF81E044
:100E80008093BC01E6E3F1E08FB7F89412821482FC
:100E90008FBF1092E30188ED91E035C2962F672F46
:100EA000242F492F85CFEF92FF920F931F93CF935B
:100EB000DF93E9DE182FE7DED82FE5DEC82FE3DE6B
:100EC000803239F08091BB018F5F8093BB0185E157
:100ED00044C0312F20E07901ED0EF11C84E1B0DE39
:100EE000C63419F51BC06091BD017091BE0140E090
:100EF00080E2D4DFA5DE6091BD017091BE0140E0CB
:100F000088E2CCDF9DDE8091BD019091BE0101960B
:100F10009093BE018093BD01229602C0C0E0D0E054
:100F2000CE15DF0504F380E118C0C534A9F40091A3
:100F3000BD011091BE01000F111FC0E0D0E008C03C
:100F4000BE01600F711F4FEF80EAA8DF79DE2196A6
:100F5000CE15DF05ACF3E7CF81E1DF91CF911F9193
:100F60000F91FF90EF906CCE8091BF019091C001E6
:100F70002091BD013091BE018032910511F4207F96
:100F80000EC08034910511F4207E09C0803891058F
:100F900011F4207C04C08115914009F42078C90126
:100FA00008955D9A40E0BC018CE478DF2FEF86E77E
:100FB00091E0215080409040E1F700C000005D9832
:100FC0000895CF92DF92EF92FF920F931F93CF93EA
:100FD000DF937B01CB015EDEC7DF8C01C0E0D0E098
:100FE00029C096E3C92E91E0D92ECC0EDD1E60916A
:100FF000BD017091BE01F601458180E44FDF22966C
:101000006091BD017091BE01F601468188E446DF22
:101010002091BD013091BE012F5F3F4F3093BE0143
:101020002093BD01A1DF0817190721F0C801B9DF1E
:101030009BDF8C01CE15DF05A4F280E1DF91CF911B
:101040001F910F91FF90EF90DF90CF9008950F9335
:101050001F93CF93DF93C091BD01D091BE01CC0F00
:10106000DD1F8C0108C060E870E0CE01AADFC05827
:10107000DF4F0058110901381105A8F7B801CE015A
:10108000A0DF80E1DF91CF911F910F910895CF9262
:10109000DF92EF92FF920F931F93CF93DF936C0138
:1010A0008B01CB01F7DD5D9A3BE3E32E31E0F32EBC
:1010B000C0E0D0E012C0F70141917F01BE016C0D8C
:1010C0007D1D80ECEBDEFFE722E382E0F150204063
:1010D0008040E1F700C000002196C017D1075CF303
:1010E0005D9880E1DF91CF911F910F91FF90EF907C
:1010F000DF90CF9008950F931F93CF93DF93C0910C
:10110000BD01D091BE012091C1013091C2012817CB
:10111000390724F0CC0FDD1F8C010FC08091BB017B
:101120008F5F8093BB0181E10FC060E870E0CE016A
:10113000AEDFC058DF4F0058110901381105A8F77C
:10114000B801CE01A4DF80E1DF91CF911F910F9113
:101150000895CF93DF9397DDD82F80E0C82F93DDDC
:10116000C80FD11D90DD863419F4CE0170DF04C0A4
:10117000853489F4CE01BFDFC82F85DD803221F4AC
:1011800084E15EDD8C2F08C08091BB018F5F80936E
:10119000BB0185E101C081E1DF91CF9151CDCF93BA
:1011A000DF932091BC01222311F05D9801C05D9A6C
:1011B0002091BB01222311F05C9801C05C9A97FD3D
:1011C0009FC08135910509F480C0E4F48134910514
:1011D00009F450C054F48033910599F1813391059D
:1011E00099F1809709F07EC077C08534910509F4A4
:1011F00049C08035910509F449C08234910509F050
:1012000071C03CC08136910509F454C06CF4863538
:10121000910509F457C08036910509F44AC0853517
:10122000910509F05FC034C08437910509F447C0C7
:101230008537910509F44DC08436910509F052C0F7
:101240003BC01092BB011BC01EDD803209F058C0AC
:1012500084E1F6DC81E4F4DC86E5F2DC82E5F0DCB6
:1012600080E2EEDC89E4ECDC83E5EADC80E5E8DCC6
:1012700080E143C008DDDF91CF915ECD72DDDF916B
:10128000CF914BCD85E090E005DDF9CFD6DDF7CFEE
:10129000FADCC82FD0E0D093BE01C093BD01F3DCCF
:1012A000382F20E02C0F3D1F3093BE012093BD014D
:1012B000E6CFE9DCE8DCE3CFDF91CF914ACFDF91E5
:1012C000CF91F1CDDF91CF91ABCD1092BB01FDDC81
:1012D000D6CFDF91CF9184CD8091BB018F5F80937A
:1012E000BB010AC08091BB018F5F8093BB01CBDC47
:1012F000803211F482E101C085E1DF91CF91A0CC71
:10130000DF91CF910895FC01208120682F7B2083FD
:1013100008950F931F93FB01908196FF0FC0292F13
:101320002695269526952770DB01A20FB11D1596EF
:101330002C912583977C98609F7B03C097FF02C008
:10134000907C908390819695969596959770DF0105
:10135000A90FB11D15968C93292F2F5F2770220F8F
:10136000220F220F4081477C422B4083282F207C74
:10137000342F3770203809F463C0203C09F045C091
:10138000282F2873269526952695332349F0990F03
:10139000990F990F477C492B406440839EEF01C011
:1013A00090E0223098F4908196FB222720F9892F33
:1013B000869586958695820F8770880F880F880F8F
:1013C000977C982B9F7B90839FEF3FC0273059F4E9
:1013D000082F0F7010E020E030E001831283238398
:1013E000348325E00AC0482F477050E060E070E089
:1013F0004183528363837483215027708081887F67
:10140000822B8083992329F120C0032F10E0023022
:10141000110524F1395F3770487F432B40834181A8
:1014200052816381748197E0440F551F661F771FB7
:101430009A95D1F7482B418352836383748309C003
:10144000313071F4982F9F739F5F80818068808313
:1014500009C080818F77808390E004C09DEFF5CF35
:101460009CEFF3CF892F1F910F9108950F931F9336
:10147000CF93DF93EB014DDF1816B4F409811A8185
:101480002B813C81A9016627772722273327402714
:101490005127622773274F3F5F4F6105710521F088
:1014A0008881806888838BEFDF91CF911F910F91A6
:1014B0000895FA012CE130E097E0AB01022E02C062
:1014C000569547950A94E2F7483028F0973059F43A
:1014D000408396E008C040839150411104C02750DA
:1014E0003109923051F7492F42500DC0DF01A40F4E
:1014F000B11D9B012F7733272C93660F672F661F33
:10150000770B719541504111F1CF492F50E09A016D
:1015100063E0220F331F6A95E1F7206C3F6F308143
:10152000322B3083E40FF51F319781508F73806821
:101530008083892F0895FC01208920FF02C05F98D5
:1015400004C05F9A8BB180638BB930CACF93DF93AD
:1015500080E190E09093CD008093CC008AEC90E005
:1015600036E0FC013083C8ECD0E022E02883A9EC0F
:10157000B0E048E14C93539A5A9A5B9A1C921882B5
:101580001082E6E3F1E04FB7F894128214824FBF65
:10159000FC013083288388E98C935B98DF91CF919D
:1015A00008951F93CF93DF93EC018091BC018111CB
:1015B0008CDBFCD98C899D89AE89BF890197A105F7
:1015C000B10541F4C3DF33DB1092C3018BB18063FB
:1015D0008BB95BC0E98DE150E23028F4F0E0EC5CBF
:1015E000FE4F108101C010E0888D823009F4186030
:1015F0008A8D873031F0883031F0863029F41260DE
:1016000003C0146001C016605B9A1092C90010926A
:10161000C8001092CA00E6E3F1E08FB7F894128296
:1016200014828FBF2C893D894E895F89211581EEF7
:1016300038074105510579F0CA01B901969587959A
:101640007795679560587B47814E9F4F0E94931313
:101650002150310902C020E130E03093CD002093C9
:10166000CC001093CA008C899D89AE89BF898115F1
:10167000914EA105B10511F480E001C082E0809394
:10168000C80088E98093C9005B98DF91CF911F91D2
:101690000895BF92CF92DF92EF92FF920F931F9324
:1016A000CF93DF937C018B01EA01D7D1B82E811152
:1016B00032C0209731F028813981021B130BE20ED2
:1016C000F31EC12CD12C22C08091E80085FD14C0EE
:1016D0008091E8008E778093E800209749F0888118
:1016E00099818C0D9D1D9983888325E0B22E13C0AE
:1016F000B4D1882359F00EC0F70181917F01809306
:10170000F10001501109FFEFCF1ADF0A0115110591
:10171000D9F601C0B82E8B2DDF91CF911F910F917B
:10172000FF90EF90DF90CF90BF9008952091EF0150
:101730003091F0012617370748F06115710539F42B
:101740002091E8002E772093E80001C0B9019C01A8
:1017500080E034C09091E801992309F443C09530AA
:1017600009F442C09091E80093FD3AC09091E800DE
:1017700092FD30C09091E80090FF20C08091F2006F
:1017800090E0F901821B930B05C021912093F10099
:10179000615071099F01280F391F6115710519F0FA
:1017A0002830310590F381E02830310509F080E0E0
:1017B0009091E8009E779093E8009F016115710574
:1017C00049F68111C7CF06C08091E801882351F006
:1017D000853051F08091E80082FFF6CF80E00895D7
:1017E00081E0089582E0089583E008956115710510
:1017F00029F42091E8002B772093E8009C0121C078
:101800008091E801882381F1853041F18091E800E1
:1018100083FD26C08091E80082FFF2CFF90107C066
:101820008091F10081939F016150710929F09F011E
:101830008091F2008111F4CF8091E8008B77809342
:10184000E80061157105E1F68091E80080FD0AC0AD
:101850008091E801882341F08530B1F783E0089555
:1018600081E0089580E0089582E008952091EF01DD
:101870003091F0012617370748F06115710539F4EA
:101880002091E8002E772093E80001C0B9019C0167
:1018900080E035C09091E801992309F444C0953067
:1018A00009F443C09091E80093FD3BC09091E8009B
:1018B00092FD31C09091E80090FF21C08091F2002C
:1018C00090E0F901821B930B06C024912093F10054
:1018D0003196615071099C012E0F3F1F61157105F2
:1018E00019F02830310588F381E02830310509F0FE
:1018F00080E09091E8009E779093E8009F01611549
:10190000710541F68111C6CF06C08091E801882398
:1019100051F0853051F08091E80082FFF6CF80E0F1
:10192000089581E0089582E0089583E00895982F56
:101930002CC09093E900981739F07091EC00209139
:10194000ED005091F00003C0242F762F50E021FDD0
:1019500002C09F5F1AC03091EB003E7F3093EB00D6
:101960003091ED003D7F3093ED003091EB00316020
:101970003093EB007093EC002093ED005093F00057
:101980002091EE0027FDE5CF07C0953090F28F70D3
:101990008093E90081E0089580E008950F931F93FC
:1019A000CF93DF93062FEC0110E02EC098819111A8
:1019B00003C01F5F259628C02C81E981FA816B81C5
:1019C000892F8F70853010F080E021C0223010F018
:1019D00056E001C052E028E030E040E003C04F5F35
:1019E000220F331F2E173F07D0F34295407F452B20
:1019F000991F9927991F6295660F660F607C692B66
:101A000096DF8111D6CFE0CF1013D0CF81E0DF91E8
:101A1000CF911F910F9108958091E90187FD05C035
:101A20008091E80080FF0EC012C08091E80082FD26
:101A300005C08091E8018111F8CF08958091E800F8
:101A40008B7708C08091E8018111EACF08958091D9
:101A5000E8008E778093E80008958091E4009091EB
:101A6000E50045E62091EC0020FD1FC023C0209139
:101A7000E801222391F0253091F02091EB0025FD23
:101A800010C02091E4003091E5002817390751F388
:101A90004150C90139F784E0089582E0089583E058
:101AA000089581E0089580E008952091E80020FFE6
:101AB000DECFF9CF2091E80022FFD9CFF4CF41D07B
:101AC00043D08091D8008F778093D8008091D80040
:101AD00080688093D8008091D8008F7D8093D80053
:101AE00084E089BD86E089BD09B400FEFDCF109277
:101AF000E8011092E4011092E6011092E50142E043
:101B000060E080E014DF8091E1008E7F8093E1004F
:101B10008091E20081608093E2008091E200886021
:101B20008093E2008091E0008E7F8093E000089532
:101B3000E3E6F0E080818E7F808381E08093E7019F
:101B4000BECF1092E20008951092E10008951F9216
:101B50000F920FB60F9211242F933F934F935F93E1
:101B60006F937F938F939F93AF93BF93EF93FF9365
:101B70008091E10082FF0BC08091E20082FF07C0EC
:101B80008091E1008B7F8093E1000E94C8038091E7
:101B9000E10080FF18C08091E20080FF14C08091B6
:101BA000E2008E7F8093E2008091E200806180936A
:101BB000E2008091D80080628093D80019BC109216
:101BC000E8010E946C038091E10084FF30C08091A5
:101BD000E20084FF2CC084E089BD86E089BD09B4A1
:101BE00000FEFDCF8091D8008F7D8093D80080913A
:101BF000E1008F7E8093E1008091E2008F7E8093F0
:101C0000E2008091E20081608093E2008091E40133
:101C1000882311F084E007C08091E30087FF02C0B1
:101C200083E001C081E08093E8010E946B03809112
:101C3000E10083FF27C08091E20083FF23C08091F1
:101C4000E100877F8093E10082E08093E8011092B9
:101C5000E4018091E1008E7F8093E1008091E200B9
:101C60008E7F8093E2008091E20080618093E200A9
:101C700042E060E080E05BDE8091F000886080936D
:101C8000F000B8D1FF91EF91BF91AF919F918F91EB
:101C90007F916F915F914F913F912F910F900FBE68
:101CA0000F901F9018951F920F920FB60F9211244C
:101CB0002F933F934F935F936F937F938F939F9354
:101CC000AF93BF93CF93EF93FF938091E9008F7011
:101CD0009091EC0090FF02C090E801C090E0C92F05
:101CE000C82B1092E9008091F000877F8093F0006C
:101CF00078941CD01092E9008091F0008860809365
:101D0000F000CF70C093E900FF91EF91CF91BF91A8
:101D1000AF919F918F917F916F915F914F913F9183
:101D20002F910F900FBE0F901F9018951F93CF9378
:101D3000DF93CDB7DEB7AC970FB6F894DEBF0FBE1A
:101D4000CDBFE9EEF1E08091F100819321E0E13F28
:101D5000F207C9F70E94C0038091E80083FF32C1F7
:101D60008091E9019091EA01953009F487C038F437
:101D70009130B1F170F0933009F024C131C0983046
:101D800009F4F4C0993009F400C1963009F01AC181
:101D90009BC0803821F0823809F014C108C08091BE
:101DA000E5019091E601992389F082600FC080914E
:101DB000ED019091EE018F7099278093E900809159
:101DC000EB0085FB882780F91092E9009091E800EC
:101DD000977F9093E8008093F1001092F100D1C0BA
:101DE000882319F0823009F0EDC08F7121F0823024
:101DF00009F0E8C00BC08091EB01813009F0E2C02E
:101E0000933009F080E08093E6012FC08091EB01D0
:101E100081112BC08091ED019091EE018F70992777
:101E2000009709F4CFC08093E9002091EB0020FFD8
:101E30001CC02091EA01233021F48091EB008062E4
:101E400012C09091EB0090619093EB0021E030E0A4
:101E500001C0220F8A95EAF72093EA001092EA0067
:101E60008091EB0088608093EB001092E9008091F4
:101E7000E800877F8093E800CFDDA4C08111A2C075
:101E80008091EB019091EC018F779927182F909119
:101E9000E3009078982B9093E3008091E800877F8F
:101EA0008093E800B9DD8091E80080FFFCCF80914D
:101EB000E30080688093E300112311F083E001C008
:101EC00082E08093E8017EC08058823008F07AC0BA
:101ED0008091EB019091EC018C3D23E0920771F52C
:101EE00083E08A838AE289834FB7F894DE011396F0
:101EF00020E03EE051E2E32FF0E050935700E49100
:101F000020FF03C0E295EF703F5FEF708E2F90E0EF
:101F1000EA3010F0C79601C0C0968D939D932F5F55
:101F2000243149F74FBF8091E800877F8093E80014
:101F30006AE270E0CE010196F9DB12C0AE01455DA8
:101F40005F4F6091ED010E94D4030097D9F1209179
:101F5000E800277F2093E800BC018BA59CA586DCC8
:101F60008091E8008B778093E8002CC0803851F591
:101F70008091E800877F8093E8008091E40180935E
:101F8000F1008091E8008E7775CF81111BC0909190
:101F9000EB019230B8F48091E800877F8093E800ED
:101FA0009093E40139DD8091E401811104C08091B6
:101FB000E30087FF02C084E001C081E08093E80174
:101FC0000E946D038091E80083FF0AC08091E800C1
:101FD000877F8093E8008091EB0080628093EB0024
:101FE000AC960FB6F894DEBF0FBECDBFDF91CF9198
:101FF0001F9108950895CF938091E8018823A9F057
:102000008091E9008F709091EC0090FF02C090E801
:1020100001C090E0C92FC82B1092E9008091E80020
:1020200083FD84DECF70C093E900CF910895CF93F4
:10203000DF93EC014096FC018BE0DF011D928A9555
:10204000E9F782E08C83898783E08E8761E0CE01A7
:102050000196A4DC882361F061E0CE0106969EDC47
:10206000882331F061E0CE010B96DF91CF9196CCC1
:1020700080E0DF91CF910895CF93C62F2091E801A2
:102080002430F1F4FC014489558966897789452B10
:10209000462B472BA9F081818F708093E9008091B6
:1020A000E80085FF04C0C093F10080E00AC0809181
:1020B000E8008E778093E800D0DC8823A1F301C08C
:1020C00082E0CF9108952091E801243029F5FC01A8
:1020D0004489558966897789452B462B472BE1F042
:1020E00081818F708093E9008091F200811102C09C
:1020F00080E008959091E8008091E8008E778093C9
:10210000E80095FDF5CFA9DC811107C09091E800AA
:102110009E779093E800089582E008952091E80169
:10212000243089F4FC014489558966897789452BD7
:10213000462B472B41F021812F702093E9002091FD
:10214000E80020FDC0CF08952091E801243019F067
:102150002FEF3FEF24C0FC014489558966897789B8
:10216000452B462B472BA1F386818F708093E90086
:102170008091E80082FFECCF8091F200882321F06B
:102180002091F10030E002C02FEF3FEF8091F2008C
:10219000811105C08091E8008B778093E800C90128
:1021A00008950895CF93DF93EC018091E80083FFB9
:1021B000A7C0888190E02091ED013091EE012817B1
:1021C000390709F09DC08091EA01813261F020F465
:1021D000803209F095C03DC0823209F46DC083326F
:1021E00009F08EC07DC08091E901813A09F088C074
:1021F0008091E800877F8093E8008091E80080FF6D
:10220000FCCF4C895D896E897F894093F100BB27A3
:10221000A72F962F852F8093F100CB01AA27BB27EC
:102220008093F100472F5527662777274093F100C9
:10223000888D8093F100898D8093F1008A8D809341
:10224000F1008091E8008E778093E800DF91CF91D4
:10225000E3CB8091E901813209F052C08091E8001E
:10226000877F8093E80005C08091E801882309F406
:1022700047C08091E80082FFF7CF3091F1002091B4
:10228000F1009091F1008091F1003C8B2D8B9E8BA1
:102290008F8B8091F100888F8091F100898F8091E0
:1022A000F1008A8F8091E8008B778093E800B4DB9F
:1022B000CE01DF91CF9175C98091E901813201F59D
:1022C0008091E800877F8093E800A6DB8091EB0196
:1022D0009091EC01998B888BCE01DF91CF912BC926
:1022E0008091E901813261F48091E800877F8093D9
:1022F000E80092DB6091EB01CE01DF91CF9151CFED
:10230000DF91CF9108956F927F928F929F92AF92BB
:10231000BF92CF92DF92EF92FF920F931F93CF93D2
:10232000DF9300D01F92CDB7DEB77C01ADB6BEB64D
:102330008091E80083FF07C1F701808190E0209140
:10234000ED013091EE012817390709F0FCC08091AA
:10235000EA01833009F49EC030F4813071F082309C
:1023600009F0F1C0D4C08A3009F4B9C08B3009F447
:10237000A2C0893009F0E7C04CC08091E901813AE0
:1023800009F0E1C08DB69EB61A8219828091EB01E8
:102390001091EC018B83F70140858DB79EB7841BAC
:1023A00091090FB6F8949EBF0FBE8DBFCDB6DEB6B5
:1023B000EFEFCE1ADE0A360150E060E070E0C601B1
:1023C000EAD1412F41508E010F5F1F4F9601BE0190
:1023D0006D5F7F4FC7010E94E704F70126813781B7
:1023E0002115310529F0408550E0B601C901CAD157
:1023F0001092E9008091E800877F8093E80069816E
:102400007A81C30193D98091E8008B778093E800AB
:1024100039C08091E901813209F095C08DB69EB630
:102420000091EF011091F0017090EB016090EC01D0
:102430008DB79EB7801B910B0FB6F8949EBF0FBE51
:102440008DBFCDB6DEB6EFEFCE1ADE0A8091E80082
:10245000877F8093E800B801C601C8D98091E80061
:102460008E778093E80021E0711001C020E030E019
:10247000021B130B2C0D3D1D462D4150672DC7012E
:102480000E946704882D992D0FB6F8949EBF0FBE49
:102490008DBF59C08091E901813A09F054C0809103
:1024A000E800877F8093E8008091E80080FFFCCF00
:1024B000F701818540C08091E901813209F043C074
:1024C0008091E800877F8093E800A6DA9091EB0185
:1024D00081E0911101C080E0F701818734C08091D3
:1024E000E901813281F58091E800877F8093E800DF
:1024F00093DA8091EB019091EC01882736E0969574
:1025000087953A95E1F7F701958784871CC08091FC
:10251000E901813AC1F48091E800877F8093E80067
:102520008091E80080FFFCCFF70184859585969522
:102530008795969587958093F1008091E8008E7736
:102540008093E80069DA0FB6F894BEBE0FBEADBE48
:102550000F900F900F90DF91CF911F910F91FF90EF
:10256000EF90DF90CF90BF90AF909F908F907F9033
:102570006F9008959C01275F3F4FF90127E0DF012D
:102580001D922A95E9F721E0FC01218724EF31E033
:102590003587248723E0248361E00196FFC94F92A9
:1025A0005F926F927F928F929F92AF92BF92CF92E3
:1025B000DF92EF92FF920F931F93CF93DF9300D0A0
:1025C0001F92CDB7DEB77C01ADB6BEB68091E801F3
:1025D000843009F08FC08091E4009091E500F7010C
:1025E000228533852817390709F484C081818F70CB
:1025F0008093E9008091E80085FF7CC06DB67EB6CF
:1026000040858DB79EB7841B91090FB6F8949EBF85
:102610000FBE8DBFCDB6DEB6EFEFCE1ADE0A1B823F
:102620001A821982460150E060E070E0C601B3D022
:102630008E010F5F1F4F960140E0BE016D5F7F4F1F
:10264000C7010E94E704582EF70184859585892BE0
:1026500031F001E010E086859785892B11F000E0CC
:1026600010E0F701C680D780C114D10489F04981F8
:102670005A81B601C40179D044244394009709F4E7
:10268000412CF701408550E0B401C6017BD001C068
:10269000412C89819A81892BF9F0511004C0411095
:1026A00002C000FF19C0F70184859585978786874A
:1026B00081818F708093E9008B8181118093F1007B
:1026C00069817A8140E050E0C4010E94490B809109
:1026D000E8008E778093E8008091E4009091E50017
:1026E000F70193878287862D972D0FB6F8949EBFAA
:1026F0000FBE8DBF0FB6F894BEBE0FBEADBE0F901D
:102700000F900F90DF91CF911F910F91FF90EF905D
:10271000DF90CF90BF90AF909F908F907F906F9001
:102720005F904F900895A1E21A2EAA1BBB1BFD01DA
:102730000DC0AA1FBB1FEE1FFF1FA217B307E407A0
:10274000F50720F0A21BB30BE40BF50B661F771FF8
:10275000881F991F1A9469F76095709580959095D8
:102760009B01AC01BD01CF010895FB01DC0104C058
:102770008D910190801921F441505040C8F7881B79
:10278000990B0895FB01DC0102C001900D924150AC
:102790005040D8F70895DC0101C06D93415050407E
:0827A000E0F70895F894FFCF63
:1027A800028110000001000011000000000000007C
:1027B800008340000001044000000182080000017D
:1027C800000000000000000000000004080F0801DD
:0627D80011110303302083
:00000001FF
