:1000000073C100008DC100008BC1000089C10000D8
:1000100087C1000085C1000083C1000081C10000CC
:100020007FC100007DC100007BC100000C949F0CCB
:100030000C944B0D75C1000073C1000071C100002C
:100040006FC100006DC100006BC1000069C10000FC
:1000500067C1000065C1000063C10000DFC200008D
:100060005FC100005DC100005BC1000059C100001C
:1000700057C1000030034100720064007500690040
:100080006E006F00200048006F006F0064006C007D
:100090006F0061006400650072002000420065008E
:1000A00074006100000012034E00690063006F00DD
:1000B00048006F006F006400000004030904090297
:1000C0005F00030100C032080B00020202010009B8
:1000D00004000001020201000524001001042402B2
:1000E000060524060001070582030800FF09040134
:1000F00000020A0000000705040240000107058312
:10010000024000010904020001030000000921115E
:1001100001000122B801070581032000011201102E
:1001200001EF020108EB03686E80010102DC0105AA
:10013000010902A1010901A100850105091901298F
:10014000051500250195057501810295017503814D
:100150000305010930093109381581257F75089596
:10016000038106C0C005010906A101850205071922
:10017000E029E715002501750195088102950175B3
:1001800008810395067508150025650507190029DE
:1001900065810005081901290595057501910295EC
:1001A0000175039103C006C0FF0A000CA10185037D
:1001B0007508150026FF00953F09018102953F094A
:1001C000029102C0050C0901A1018504150026FF5A
:1001D000FF19002AFFFF950475108100C005010971
:1001E00080A1018505150026FF00190029FF950152
:1001F00075088100C005010904A1018506050919DA
:10020000012920150025017501952081020501A114
:10021000000930093109320933093409351500273D
:10022000FFFF0000751095068102C005010939091C
:100230003915012508950275048102C005010904DC
:10024000A10185070509190129201500250175015E
:10025000952081020501A1000930093109320933D5
:1002600009340935150027FFFF0000751095068138
:1002700002C0093909391501250895027504810262
:10028000C005010904A1018508A10005091901297A
:100290000215002501750195028102050109300949
:1002A00031150026FF03750A95028102750295013A
:1002B0008103C0C005010904A1018509A100050948
:1002C0001901290215002501750195028102050118
:1002D00009300931150026FF03750A950281027560
:1002E0000295018103C0C00011241FBECFEFD2E0F0
:1002F000DEBFCDBF11E0A0E0B1E0E4EDF5E202C069
:1003000005900D92A633B107D9F712E0A6E3B1E04C
:1003100001C01D92AE34B107E1F79DD00C94E812F4
:100320006FCECF93DF9384B7877F84BF28E10FB66A
:10033000F89420936000109260000FBE80E190E07E
:100340009093CD008093CC00CAECD0E096E09883E7
:10035000A8ECB0E082E08C93E9ECF0E02083539AC3
:100360005A9A5B9A10821C92188298838C9388E91F
:1003700080835B988AB180638AB98BB180638BB9C3
:100380000E94900C84E085BD5F9A579A209A22982B
:100390002A9ADF91CF91089520913601809124010E
:1003A00090912501A0912601B09127010097A10508
:1003B000B10539F0811532EC930731E0A307B1059F
:1003C00021F41A9B02C082E007C00197A105B10584
:1003D00011F483E001C081E0809336018091360101
:1003E0002817C1F1233011F0211111C0E7E3F1E02A
:1003F0009FB7F894808180788068808311829FBF46
:100400001092B9011092BA018BB180638BB98091BF
:100410003601823049F48091070280688F7B809397
:1004200007021092BB010895E7D180913601833015
:1004300089F4109238011092370110923A0110920B
:10044000390110923C0110923B018BB180638BB952
:1004500022982A9A0895109236014AE050E061E00D
:1004600070E08DEF91E00E94E1125BDF789483E011
:10047000F82E07E311E090DF80913601833011F40C
:10048000BCD5B5C080E191E00E94BA0F97FD09C0CC
:100490005C98F092BA019091C80095FFFCCF8093D0
:1004A000CE009FB7F89480913701880F880B209178
:1004B000380182239FBF90E0009719F4A89957C094
:1004C0008EC05D98F092B901209111012F70209398
:1004D000E9002091E80020FFF1CF8034910510F071
:1004E0008FE390E0E82EC0E0D0E03EC0809136017E
:1004F000813039F0F8012FB7F894A081A7FD1DC015
:100500001FC08FB7F894E0913701E7FF04C09091C6
:100510003801911104C08FBF6FEF7FEF07C0E91B57
:10052000EF77F0E0EA5CFE4F63818FBF80E191E0FE
:100530000E94520F8823F1F2C1CF9181911104C022
:100540002FBF8FEF9FEF0AC0A91BAF77B0E0AA5C67
:10055000BE4F13968C91915091832FBF20913601FD
:10056000223009F4BBD12196EC12C0CFA7CFA89AB4
:100570008091B901882349F181508093B90181119B
:1005800024C0809136018230F9F47ED19091070227
:10059000892F86958695869597FF03C0877060E0C2
:1005A00003C0682F677080E096FF02C06F5F02C0D3
:1005B000662321F090E0845F9D4F3AD1809107023D
:1005C00080688F7B809307025D9A8091BA018823AF
:1005D00031F081508093BA01811101C05C9A809101
:1005E0003601823021F480E091E00E94E51180E143
:1005F00091E00E94A40F0E94F30E3DCF089508954C
:1006000080E091E00E94D01180E191E00E940F0F04
:10061000E2EEF0E080818460808308951F920F9263
:100620000FB60F9211242F933F938F939F93AF9305
:10063000BF93EF93FF938091CE009091360193305A
:1006400001F1909145029430E1F4E7E3F1E02FB736
:10065000F894908197FF14C03181303809F410C0AC
:100660009F77A92FB0E0AA5CBE4F13968C939F5F33
:100670009F7780818078892B808381818F5F8183C0
:100680002FBFFF91EF91BF91AF919F918F913F91BC
:100690002F910F900FBE0F901F90189580E191E061
:1006A0000E94E80F80E091E00C94991080910E0177
:1006B00090910F01009729F0019790930F0180937B
:1006C0000E010895292F332723303105B1F04CF462
:1006D0002130310509F439C02230310509F03AC022
:1006E00007C02132310539F12232310549F132C0DA
:1006F000EFE5F0E08EEB90E031C099278130910575
:1007000061F08230910581F0892B21F5EAEBF0E070
:10071000E491F0E08AEB90E021C0E6EAF0E0E491B9
:10072000F0E086EA90E01AC0E4E7F0E0E491F0E05F
:1007300084E790E013C0E9E0F0E08DE091E00EC0C6
:10074000E8EBF1E08FE291E009C0E2E1F0E08DE159
:1007500091E004C0E0E0F0E080E090E0DA018D9309
:100760009C93CF010895EF92FF920F931F93CF9325
:10077000DF937B01C901E801E091BB01EE2329F180
:100780004091BC012091BD0142131FC0E33039F0FC
:1007900051E05093FD01F0E0E350FE4F5083EEEB4B
:1007A000F1E050E0BF010E94D8128091BB01F70137
:1007B00080838091BC01888319821092BB011092C2
:1007C000BD011092BC0181E001C080E0DF91CF91BA
:1007D0001F910F91FF90EF9008950F931F93C90100
:1007E000633039F45C986093BA01B8011F910F919E
:1007F00038C61F910F91089504C080E091E00E94D7
:10080000E5118091BB01882331F09091BC0180916A
:10081000BD01981791F30895E091BB01E150E930D3
:1008200028F4F0E0E55DFE4F8081089580E00895B2
:100830000F931F93CF93DF931F92CDB7DEB78C0139
:1008400080E191E069830E94A40F809111018F7073
:100850008093E90049818091E80080FFFCCF80917E
:10086000200180FF0BC050E0B80180E191E00F90C3
:10087000DF91CF911F910F910C94340F0F90DF9166
:10088000CF911F910F910895CF93DF9300D000D0A7
:1008900000D0CDB7DEB76091BB01662379F08091BF
:1008A000BD0181110BC070E07160AE014F5F5F4F01
:1008B00081E02ED5682FCE010196BADF9DDF109220
:1008C000BB011092BD011092BC0126960FB6F894A0
:1008D000DEBF0FBECDBFDF91CF910895CF9367E00C
:1008E00072E0F3D4C82F882309F478C087FF19C0B9
:1008F000CBDF80910702682F6695669566956770D5
:1009000086FF06C0CF3F21F46F5F8F7B8093070285
:100910008CE092E08DDF809107028068809307026F
:100920005DC06ADFC130C9F4809109028130A9F449
:10093000ABDF809108028093BB011092BD019FE361
:10094000EEEBF1E0DF011D929A95E9F765DF809308
:10095000BC01811143C0CF9197CF8091BB01882307
:1009600091F16091BD01462F50E08C2F992787FDB2
:1009700090959A012E5F3F4F359527952F5F3F4FFA
:100980008217930701F5FA01E254FE4F80910802A5
:100990008083E62FEF5FE093BD018091BC018E174D
:1009A00049F0F0E0E254FE4F9091090290836E5FAF
:1009B0006093BD019091BD01891310C080E091E06A
:1009C000CF910C94E51160DF609107026695669502
:1009D000669567708CE092E0CF912ACFCF91089511
:1009E0009BB1809589238BB90895682F80E191E0B0
:1009F0000E94520F8823E9F080E191E00E94A40F49
:100A00000E94F30E80E1ECDF2FEF81EE94E02150A5
:100A100080409040E1F700C0000080E1E1DF2FEF6F
:100A200081EE94E0215080409040E1F700C000004A
:100A3000E9CF089580E191E00E94BA0F97FDFACFC7
:100A40000895EF92FF920F931F93CF93DF937C0152
:100A500001E411E0C0E0D0E005C0ECDFF8018193D3
:100A60008F012196CE15DF05C4F3DF91CF911F9141
:100A70000F91FF90EF90089590914D0180E02091AB
:100A80004E01820F911D90933E0180933D01909104
:100A90004F0180E020915001820F911D9093400101
:100AA00080933F010895CF93C82FC4DF803239F47B
:100AB00084E19BDF8C2F99DF80E1CF9196CF85E198
:100AC00094DF80913701909138010196909338011D
:100AD00080933701CF910895813859F018F4803808
:100AE00071F405C0823839F0833949F406C082E0D8
:100AF00007C081E005C082E103C083E501C080E05A
:100B0000D2CF98DF803221F484E16FDF80E16DCFB6
:100B100080E266DF2FEF80E792E021508040904036
:100B2000E1F700C000005D9A2FEF80E792E02150CE
:100B300080409040E1F700C0000080E251DF2FEFDD
:100B400080E792E0215080409040E1F700C0000033
:100B50005D9A85E14ADF80913701909138010196D5
:100B60009093380180933701089583E58CBD8DB54E
:100B70008EB508950DB407FEFDCF08958EBDFADF42
:100B80008EB50895CF93DF9300D01F92CDB7DEB717
:100B90002B834A836983F2DF6981862FEFDF4A81E5
:100BA000842FECDF2B81822F0F900F900F90DF911D
:100BB000CF91E4CFDADF249A2C9A219A29982FEF4B
:100BC00080E792E0215080409040E1F700C00000B3
:100BD0002C982FEF80E792E0215080409040E1F781
:100BE00000C000002398229A20E040E063E58CEAF0
:100BF000C9DF81E090E090933A0180933901089534
:100C0000462F880F880F880F20E0672F805EBACFAD
:100C10000F931F93CF93DF938C01C0E0D0E019C0F6
:100C200060913B0170913C0180E0EADFDEDE609183
:100C30003B0170913C0181E0E3DFD7DE20913B0175
:100C400030913C012F5F3F4F30933C0120933B019B
:100C50002296C017D10724F380E1DF91CF911F9135
:100C60000F91089584E090E0ECDE209144014091E2
:100C70004301609142018091410184DF14CFDADEAB
:100C8000803259F08091370190913801019690930C
:100C900038018093370185E115C084E1A6DE20E0AC
:100CA00040E060E080E36EDFA0DE20E041E060E055
:100CB00080E368DF9ADE20E042E060E080E362DF0C
:100CC00094DE80E192CE23982298229A219824984B
:100CD00010923A01109239010895CF92DF92EF926B
:100CE000FF920F931F93CF93DF93D82FC92F7B01D0
:100CF000CB01A7DE5D9A81E4C82E81E0D82E0D2FAE
:100D00001C2FE80111C0F60121916F014C2F6D2FAE
:100D100080EC38DFFFE722E382E0F15020408040A2
:100D2000E1F700C000002196CE01801B910B8E15CB
:100D30009F054CF380E254DE80E1DF91CF911F915B
:100D40000F91FF90EF90DF90CF9008950F931F9336
:100D5000CF93DF93C0913B01D0913C0120913F01A3
:100D6000309140012817390724F0CC0FDD1F8C018A
:100D700012C080913701909138010196909338010B
:100D80008093370181E10EC060E270E0CE01A5DF03
:100D9000A0960052110901321105B4F7B801CE0135
:100DA0009CDF80E1DF91CF911F910F910895EF9229
:100DB000FF920F931F93CF93DF937C0100913B0130
:100DC00010913C01000F111FE80107C02FEF4C2FBD
:100DD0006D2F80EAD7DE09DE2196CE01801B910BB4
:100DE0008E159F059CF380E1DF91CF911F910F91AC
:100DF000FF90EF9008951F93CF93DF931BDED82FC2
:100E000019DEC82F17DE182F15DE803259F08091B9
:100E10003701909138010196909338018093370102
:100E200085E113C03D2F20E0C9018C0F911DEC011D
:100E300084E1DBDD163419F4CE01EADE06C0153498
:100E400019F4CE01B4DF01C081E1DF91CF911F9190
:100E5000CCCD5D9A20E0482F692F8CE493DE2FEFF4
:100E600086E791E0215080409040E1F700C000000B
:100E700080E2B6CD80913D0190913E0120913B01F1
:100E800030913C018032910511F4207F0EC08034F6
:100E9000910511F4207E09C08038910511F4207C61
:100EA00004C08115914009F42078C9010895962F56
:100EB000672F242F880F880F880F492F805C62CE00
:100EC000CF92DF92EF92FF920F931F93CF93DF9316
:100ED0006C01D0DF8C01C0E0D0E029C0CBDF081767
:100EE000190721F0C801B5DFC5DF8C0146E3E42E08
:100EF00041E0F42EEC0EFD1E60913B0170913C012F
:100F0000F701438580E0D3DF229660913B01709129
:100F10003C01F701448581E0CADF20913B0130911B
:100F20003C012F5F3F4F30933C0120933B01CC1598
:100F3000DD05A4F2C8018DDF80E1DF91CF911F9123
:100F40000F91FF90EF90DF90CF900895CF93DF93B4
:100F5000EC0177DD6FDD803229F484E146DDCE01DE
:100F6000AFDF0AC0809137019091380101969093CC
:100F700038018093370185E1DF91CF9136CDCF9352
:100F8000DF9358DDD82F80E0C82F54DDC80FD11D66
:100F9000C13081E0D80764F081E127DD809137011D
:100FA000909138010196909338018093370122C0C7
:100FB00041DD863421F4CE01DF91CF91C7CF853456
:100FC000A9F4CE01C3DEC82F35DD803221F484E1DF
:100FD0000CDD8C2F0CC08091370190913801019667
:100FE000909338018093370185E101C081E1DF9161
:100FF000CF91FBCCDF91CF910895CF93DF93809178
:10100000390190913A01892B19F080E2E9DC01C0A5
:101010005D9A8091370190913801892B19F080E118
:10102000DFDC01C05C9A80E191E0A4D797FDAEC0FF
:101030008135910509F485C0E4F48134910509F402
:1010400052C054F48033910599F181339105A9F18F
:10105000809709F089C07EC08534910509F44EC09F
:101060008035910509F44EC08234910509F07CC0A9
:101070003EC08136910509F459C06CF4863591055E
:1010800009F45CC08036910509F44FC0853591059F
:1010900009F06AC039C08437910509F44CC085371E
:1010A000910509F454C08436910509F05DC040C033
:1010B00010923801109237011EC0BCDC803209F05A
:1010C00065C084E192DC81E490DC86E58EDC82E51B
:1010D0008CDC80E28ADC89E488DC83E586DC80E5E0
:1010E00084DC80E150C0A6DCDF91CF91F5CC84E1B7
:1010F00090E0A7DCC1DCDF91CF9103CD85E090E0EB
:10110000A0DCF9CF57DDF7CF95DCC82FD0E0D09326
:101110003C01C0933B018EDC382F20E02C0F3D1F9B
:1011200030933C0120933B01E6CF84DC83DCE3CFAA
:10113000DF91CF9124CFDF91CF915DCEDF91CF9121
:1011400091CD1092380110923701BDDDD4CFDF91DF
:10115000CF9195CD80913701909138010196909370
:101160003801809337010EC080913701909138018A
:10117000019690933801809337015CDC803211F442
:1011800082E101C085E1DF91CF912FCCDF91CF913A
:1011900008950F931F93FB013081932F907C89F06A
:1011A000232F287F208336FF0BC026952695269572
:1011B0002770DB01A20FB11D15962C912583986035
:1011C000908390819F7B9F77908396959695969537
:1011D0009770DF01A90FB11D15968C93292F2F5FF2
:1011E0002770220F220F220F4081477C422B408321
:1011F000282F207C342F3770203809F451C0203C30
:1012000099F5282F2873269526952695332349F09E
:10121000990F990F990F477C492B406440839EEFAB
:1012200001C090E0223008F446C0273059F4082F5E
:101230000F7010E020E030E00183128323833483B9
:1012400025E00AC0482F477050E060E070E041831D
:10125000528363837483215027708081887F822B1F
:101260008083911122C02DC0032F10E002301105A0
:1012700024F1395F3770487F432B4083418152818D
:101280006381748197E0440F551F661F771F9A95FD
:10129000D1F7482B418352836383748390E011C05C
:1012A000313069F4982F9F739F5F9E3F51F080818A
:1012B0008068808306C09FEFFACF9DEFF8CF9CEF48
:1012C000F6CF892F1F910F9108950F931F93CF93FE
:1012D000DF93EB015EDF1816B4F409811A812B81CC
:1012E0003C81A901662777272227332740275127EA
:1012F000622773274F3F5F4F6105710521F0888199
:10130000806888838BEFDF91CF911F910F910895B3
:10131000FA012CE130E097E0AB01022E02C05695B5
:1013200047950A94E2F7483028F0973059F4408303
:1013300096E008C040839150411104C02750310904
:10134000923051F7492F42500DC0DF01A40FB11D5B
:101350009B012F7733272C93660F672F661F770B20
:10136000719541504111F1CF492F50E09A0163E04E
:10137000220F331F6A95E1F7206C3F6F3081322BCB
:101380003083E40FF51F319781508F73806880831D
:10139000892F08951F93CF93DF93EC01E98DE150DE
:1013A000E23028F4F0E0EC5CFE4F108101C010E068
:1013B000888D823009F418608A8D873031F088304A
:1013C00031F0863029F4126003C0146001C0166049
:1013D0005B9A1092C9001092C8001092CA002C8922
:1013E0003D894E895F89211581EE380741055105F8
:1013F00079F0CA01B90196958795779567956058F8
:101400007B47814E9F4F0E94A9122150310902C093
:1014100020E130E03093CD002093CC001093CA003F
:101420008C899D89AE89BF898115914EA105B10531
:1014300011F480E001C082E08093C80088E98093C5
:10144000C9005B98DF91CF911F910895FC0120891D
:1014500020FF02C05F9808955F9A8BB180638BB9BB
:101460000895680F791F09C0FC012191CF013091C7
:10147000C80035FFFCCF2093CE0086179707A1F751
:101480000895BF92CF92DF92EF92FF920F931F9336
:10149000CF93DF937C018B01EA01D7D1B82E811164
:1014A00032C0209731F028813981021B130BE20EE4
:1014B000F31EC12CD12C22C08091E80085FD14C000
:1014C0008091E8008E778093E800209749F088812A
:1014D00099818C0D9D1D9983888325E0B22E13C0C0
:1014E000B4D1882359F00EC0F70181917F01809318
:1014F000F10001501109FFEFCF1ADF0A01151105A4
:10150000D9F601C0B82E8B2DDF91CF911F910F918D
:10151000FF90EF90DF90CF90BF90089520914C0204
:1015200030914D022617370748F06115710539F4DF
:101530002091E8002E772093E80001C0B9019C01BA
:1015400080E034C090914502992309F443C095305E
:1015500009F442C09091E80093FD3AC09091E800F0
:1015600092FD30C09091E80090FF20C08091F20081
:1015700090E0F901821B930B05C021912093F100AB
:10158000615071099F01280F391F6115710519F00C
:101590002830310590F381E02830310509F080E0F2
:1015A0009091E8009E779093E8009F016115710586
:1015B00049F68111C7CF06C080914502882351F0BA
:1015C000853051F08091E80082FFF6CF80E00895E9
:1015D00081E0089582E0089583E008956115710522
:1015E00029F42091E8002B772093E8009C0121C08A
:1015F00080914502882381F1853041F18091E80096
:1016000083FD26C08091E80082FFF2CFF90107C078
:101610008091F10081939F016150710929F09F0130
:101620008091F2008111F4CF8091E8008B77809354
:10163000E80061157105E1F68091E80080FD0AC0BF
:1016400080914502882341F08530B1F783E0089509
:1016500081E0089580E0089582E0089520914C0291
:1016600030914D022617370748F06115710539F49E
:101670002091E8002E772093E80001C0B9019C0179
:1016800080E035C090914502992309F444C095301B
:1016900009F443C09091E80093FD3BC09091E800AD
:1016A00092FD31C09091E80090FF21C08091F2003E
:1016B00090E0F901821B930B06C024912093F10066
:1016C0003196615071099C012E0F3F1F6115710504
:1016D00019F02830310588F381E02830310509F010
:1016E00080E09091E8009E779093E8009F0161155B
:1016F000710541F68111C6CF06C08091450288234D
:1017000051F0853051F08091E80082FFF6CF80E003
:10171000089581E0089582E0089583E00895982F68
:101720002CC09093E900981739F07091EC0020914B
:10173000ED005091F00003C0242F762F50E021FDE2
:1017400002C09F5F1AC03091EB003E7F3093EB00E8
:101750003091ED003D7F3093ED003091EB00316032
:101760003093EB007093EC002093ED005093F00069
:101770002091EE0027FDE5CF07C0953090F28F70E5
:101780008093E90081E0089580E008950F931F930E
:10179000CF93DF93062FEC0110E02EC098819111BA
:1017A00003C01F5F259628C02C81E981FA816B81D7
:1017B000892F8F70853010F080E021C0223010F02A
:1017C00056E001C052E028E030E040E003C04F5F47
:1017D000220F331F2E173F07D0F34295407F452B32
:1017E000991F9927991F6295660F660F607C692B78
:1017F00096DF8111D6CFE0CF1013D0CF81E0DF91FB
:10180000CF911F910F9108958091460287FD05C0E9
:101810008091E80080FF0EC012C08091E80082FD38
:1018200005C0809145028111F8CF08958091E800AC
:101830008B7708C0809145028111EACF089580918D
:10184000E8008E778093E80008958091E4009091FD
:10185000E50045E62091EC0020FD1FC023C020914B
:101860004502222391F0253091F02091EB0025FDD7
:1018700010C02091E4003091E5002817390751F39A
:101880004150C90139F784E0089582E0089583E06A
:10189000089581E0089580E008952091E80020FFF8
:1018A000DECFF9CF2091E80022FFD9CFF4CF41D08D
:1018B00043D08091D8008F778093D8008091D80052
:1018C00080688093D8008091D8008F7D8093D80065
:1018D00084E089BD86E089BD09B400FEFDCF109289
:1018E000450210924102109243021092420242E0DD
:1018F00060E080E014DF8091E1008E7F8093E10062
:101900008091E20081608093E2008091E200886033
:101910008093E2008091E0008E7F8093E000089544
:10192000E3E6F0E080818E7F808381E08093440253
:10193000BECF1092E20008951092E10008951F9228
:101940000F920FB60F9211242F933F934F935F93F3
:101950006F937F938F939F93AF93BF93EF93FF9377
:101960008091E10082FF0BC08091E20082FF07C0FE
:101970008091E1008B7F8093E1000E94560380916B
:10198000E10080FF18C08091E20080FF14C08091C8
:10199000E2008E7F8093E2008091E200806180937C
:1019A000E2008091D80080628093D80019BC109228
:1019B00045020E94FF028091E10084FF30C08091C7
:1019C000E20084FF2CC084E089BD86E089BD09B4B3
:1019D00000FEFDCF8091D8008F7D8093D80080914C
:1019E000E1008F7E8093E1008091E2008F7E809302
:1019F000E2008091E20081608093E20080914102E8
:101A0000882311F084E007C08091E30087FF02C0C3
:101A100083E001C081E0809345020E94FE02809134
:101A2000E10083FF27C08091E20083FF23C0809103
:101A3000E100877F8093E10082E08093450210926D
:101A400041028091E1008E7F8093E1008091E2006D
:101A50008E7F8093E2008091E20080618093E200BB
:101A600042E060E080E05BDE8091F000886080937F
:101A7000F000B8D1FF91EF91BF91AF919F918F91FD
:101A80007F916F915F914F913F912F910F900FBE7A
:101A90000F901F9018951F920F920FB60F9211245E
:101AA0002F933F934F935F936F937F938F939F9366
:101AB000AF93BF93CF93EF93FF938091E9008F7023
:101AC0009091EC0090FF02C090E801C090E0C92F17
:101AD000C82B1092E9008091F000877F8093F0007E
:101AE00078941CD01092E9008091F0008860809377
:101AF000F000CF70C093E900FF91EF91CF91BF91BB
:101B0000AF919F918F917F916F915F914F913F9195
:101B10002F910F900FBE0F901F9018951F93CF938A
:101B2000DF93CDB7DEB7AC970FB6F894DEBF0FBE2C
:101B3000CDBFE6E4F2E08091F100819322E0EE3443
:101B4000F207C9F70E944E038091E80083FF32C17B
:101B50008091460290914702953009F487C038F48D
:101B60009130B1F170F0933009F024C131C0983058
:101B700009F4F4C0993009F400C1963009F01AC193
:101B80009BC0803821F0823809F014C108C08091D0
:101B9000420290914302992389F082600FC08091A4
:101BA0004A0290914B028F7099278093E9008091AF
:101BB000EB0085FB882780F91092E9009091E800FE
:101BC000977F9093E8008093F1001092F100D1C0CC
:101BD000882319F0823009F0EDC08F7121F0823036
:101BE00009F0E8C00BC080914802813009F0E2C0E2
:101BF000933009F080E0809343022FC08091480227
:101C000081112BC080914A0290914B028F709927CD
:101C1000009709F4CFC08093E9002091EB0020FFEA
:101C20001CC020914702233021F48091EB00806298
:101C300012C09091EB0090619093EB0021E030E0B6
:101C400001C0220F8A95EAF72093EA001092EA0079
:101C50008091EB0088608093EB001092E900809106
:101C6000E800877F8093E800CFDDA4C08111A2C087
:101C700080914802909149028F779927182F90916F
:101C8000E3009078982B9093E3008091E800877FA1
:101C90008093E800B9DD8091E80080FFFCCF80915F
:101CA000E30080688093E300112311F083E001C01A
:101CB00082E0809345027EC08058823008F07AC06E
:101CC00080914802909149028C3D23E0920771F582
:101CD00083E08A838AE289834FB7F894DE01139602
:101CE00020E03EE051E2E32FF0E050935700E49112
:101CF00020FF03C0E295EF703F5FEF708E2F90E002
:101D0000EA3010F0C79601C0C0968D939D932F5F67
:101D1000243149F74FBF8091E800877F8093E80026
:101D20006AE270E0CE010196F9DB12C0AE01455DBA
:101D30005F4F60914A020E9462030097D9F120919F
:101D4000E800277F2093E800BC018BA59CA586DCDA
:101D50008091E8008B778093E8002CC0803851F5A3
:101D60008091E800877F8093E80080914102809312
:101D7000F1008091E8008E7775CF81111BC09091A2
:101D800048029230B8F48091E800877F8093E800A1
:101D90009093410239DD80914102811104C080910C
:101DA000E30087FF02C084E001C081E08093450228
:101DB0000E9400038091E80083FF0AC08091E80040
:101DC000877F8093E8008091EB0080628093EB0036
:101DD000AC960FB6F894DEBF0FBECDBFDF91CF91AA
:101DE0001F9108950895CF93809145028823A9F00B
:101DF0008091E9008F709091EC0090FF02C090E814
:101E000001C090E0C92FC82B1092E9008091E80032
:101E100083FD84DECF70C093E900CF910895CF9306
:101E2000DF93EC014096FC018BE0DF011D928A9567
:101E3000E9F782E08C83898783E08E8761E0CE01B9
:101E40000196A4DC882361F061E0CE0106969EDC59
:101E5000882331F061E0CE010B96DF91CF9196CCD3
:101E600080E0DF91CF9108950F931F93FC01CB0188
:101E7000BA0120914502243089F404891589268904
:101E80003789012B022B032B49F021812F702093DE
:101E9000E90040E050E01F910F91F3CA82E01F91EA
:101EA0000F910895CF93C62F209145022430F1F46D
:101EB000FC014489558966897789452B462B472B38
:101EC000A9F081818F708093E9008091E80085FFFF
:101ED00004C0C093F10080E00AC08091E8008E77D2
:101EE0008093E800B2DC8823A1F301C082E0CF91A7
:101EF000089520914502243029F5FC014489558933
:101F000066897789452B462B472BE1F081818F70BD
:101F10008093E9008091F200811102C080E0089571
:101F20009091E8008091E8008E778093E80095FD1D
:101F3000F5CF8BDC811107C09091E8009E779093DC
:101F4000E800089582E0089520914502243089F444
:101F5000FC014489558966897789452B462B472B97
:101F600041F021812F702093E9002091E80020FDAD
:101F7000C0CF089520914502243019F02FEF3FEF94
:101F800024C0FC014489558966897789452B462BF5
:101F9000472BA1F386818F708093E9008091E80040
:101FA00082FFECCF8091F200882321F02091F10094
:101FB00030E002C02FEF3FEF8091F200811105C0A9
:101FC0008091E8008B778093E800C9010895089517
:101FD000CF93DF93EC018091E80083FFA7C0888155
:101FE00090E020914A0230914B022817390709F0FE
:101FF0009DC080914702813261F020F4803209F067
:1020000095C03DC0823209F46DC0833209F08EC0A4
:102010007DC080914602813A09F088C08091E80035
:10202000877F8093E8008091E80080FFFCCF4C8997
:102030005D896E897F894093F100BB27A72F962F7A
:10204000852F8093F100CB01AA27BB278093F10055
:10205000472F5527662777274093F100888D809377
:10206000F100898D8093F1008A8D8093F100809139
:10207000E8008E778093E800DF91CF91C5CB809107
:102080004602813209F052C08091E800877F809338
:10209000E80005C080914502882309F447C080917B
:1020A000E80082FFF7CF3091F1002091F10090918C
:1020B000F1008091F1003C8B2D8B9E8B8F8B80915A
:1020C000F100888F8091F100898F8091F1008A8FD3
:1020D0008091E8008B778093E80096DBCE01DF915A
:1020E000CF9158C980914602813201F58091E80074
:1020F000877F8093E80088DB8091480290914902B5
:10210000998B888BCE01DF91CF91A0C98091460237
:10211000813261F48091E800877F8093E80074DB6E
:1021200060914802CE01DF91CF9151CFDF91CF91E5
:1021300008956F927F928F929F92AF92BF92CF92AB
:10214000DF92EF92FF920F931F93CF93DF9300D014
:102150001F92CDB7DEB77C01ADB6BEB68091E80068
:1021600083FF07C1F701808190E020914A023091FE
:102170004B022817390709F0FCC0809147028330D1
:1021800009F49EC030F4813071F0823009F0F1C062
:10219000D4C08A3009F4B9C08B3009F4A2C08930A8
:1021A00009F0E7C04CC080914602813A09F0E1C0D5
:1021B0008DB69EB61A82198280914802109149020A
:1021C0008B83F70140858DB79EB7841B91090FB6AD
:1021D000F8949EBF0FBE8DBFCDB6DEB6EFEFCE1A20
:1021E000DE0A360150E060E070E0C601EAD1412F1E
:1021F00041508E010F5F1F4F9601BE016D5F7F4FF3
:10220000C7010E94B303F7012681378121153105EB
:1022100029F0408550E0B601C901CAD11092E90009
:102220008091E800877F8093E80069817A81C3010B
:1022300075D98091E8008B778093E80039C0809150
:102240004602813209F095C08DB69EB600914C02CF
:1022500010914D0270904802609049028DB79EB770
:10226000801B910B0FB6F8949EBF0FBE8DBFCDB6ED
:10227000DEB6EFEFCE1ADE0A8091E800877F80930A
:10228000E800B801C601AAD98091E8008E77809352
:10229000E80021E0711001C020E030E0021B130BC8
:1022A0002C0D3D1D462D4150672DC7010E94ED03A9
:1022B000882D992D0FB6F8949EBF0FBE8DBF59C0C3
:1022C00080914602813A09F054C08091E800877FEE
:1022D0008093E8008091E80080FFFCCFF7018185C2
:1022E00040C080914602813209F043C08091E800ED
:1022F000877F8093E80088DA9091480281E091110D
:1023000001C080E0F701818734C0809146028132AC
:1023100081F58091E800877F8093E80075DA8091ED
:10232000480290914902882736E0969587953A951C
:10233000E1F7F701958784871CC080914602813AB6
:10234000C1F48091E800877F8093E8008091E800E5
:1023500080FFFCCFF70184859585969587959695A6
:1023600087958093F1008091E8008E778093E80054
:102370004BDA0FB6F894BEBE0FBEADBE0F900F90F5
:102380000F90DF91CF911F910F91FF90EF90DF9011
:10239000CF90BF90AF909F908F907F906F90089557
:1023A0009C01275F3F4FF90127E0DF011D922A952D
:1023B000E9F721E0FC01218724EF31E0358724870C
:1023C00023E0248361E00196E1C94F925F926F920E
:1023D0007F928F929F92AF92BF92CF92DF92EF92B5
:1023E000FF920F931F93CF93DF9300D01F92CDB72F
:1023F000DEB77C01ADB6BEB680914502843009F0EF
:102400008FC08091E4009091E500F701228533852B
:102410002817390709F484C081818F708093E900FF
:102420008091E80085FF7CC06DB67EB640858DB793
:102430009EB7841B91090FB6F8949EBF0FBE8DBF47
:10244000CDB6DEB6EFEFCE1ADE0A1B821A821982F3
:10245000460150E060E070E0C601B3D08E010F5F2E
:102460001F4F960140E0BE016D5F7F4FC7010E9484
:10247000B303582EF70184859585892B31F001E04F
:1024800010E086859785892B11F000E010E0F701B8
:10249000C680D780C114D10489F049815A81B60120
:1024A000C40179D044244394009709F4412CF701E6
:1024B000408550E0B401C6017BD001C0412C898128
:1024C0009A81892BF9F0511004C0411002C000FF1D
:1024D00019C0F701848595859787868781818F70DC
:1024E0008093E9008B8181118093F10069817A8169
:1024F00040E050E0C4010E94410A8091E8008E77DC
:102500008093E8008091E4009091E500F7019387C3
:102510008287862D972D0FB6F8949EBF0FBE8DBF74
:102520000FB6F894BEBE0FBEADBE0F900F900F90C9
:10253000DF91CF911F910F91FF90EF90DF90CF909F
:10254000BF90AF909F908F907F906F905F904F90D3
:102550000895A1E21A2EAA1BBB1BFD010DC0AA1FE4
:10256000BB1FEE1FFF1FA217B307E407F50720F0FC
:10257000A21BB30BE40BF50B661F771F881F991F77
:102580001A9469F760957095809590959B01AC01C0
:10259000BD01CF010895FB01DC0104C08D910190C4
:1025A000801921F441505040C8F7881B990B0895B9
:1025B000FB01DC0102C001900D9241505040D8F760
:1025C0000895DC0101C06D9341505040E0F708953B
:0425D000F894FFCFAD
:1025D40002812000000100003F0000000000000014
:1025E4000083400000010440000001820800000153
:1025F400000000000000000000000004083F080183
:0626040011110303302058
:00000001FF
