:1000000073C100008DC100008BC1000089C10000D8
:1000100087C1000085C1000083C1000081C10000CC
:100020007FC100007DC100007BC100000C94C80DA1
:100030000C94740E75C1000073C1000071C1000002
:100040006FC100006DC100006BC1000069C10000FC
:1000500067C1000065C1000063C1000041C300002A
:100060005FC100005DC100005BC1000059C100001C
:1000700057C1000030034100720064007500690040
:100080006E006F00200048006F006F0064006C007D
:100090006F0061006400650072002000420065008E
:1000A00074006100000012034E00690063006F00DD
:1000B00048006F006F006400000004030904090297
:1000C0005F00030100C032080B00020202010009B8
:1000D00004000001020201000524001001042402B2
:1000E000060524060001070582030800FF09040134
:1000F00000020A0000000705040240000107058312
:10010000024000010904020001030000000921115E
:1001100001000122B801070581031000011201103E
:1001200001EF020108EB03686E80010102DC0105AA
:10013000010902A1010901A100850105091901298F
:10014000051500250195057501810295017503814D
:100150000305010930093109381581257F75089596
:10016000038106C0C005010906A101850205071922
:10017000E029E715002501750195088102950175B3
:1001800008810395067508150025650507190029DE
:1001900065810005081901290595057501910295EC
:1001A0000175039103C006C0FF0A000CA10185037D
:1001B0007508150026FF00950F09018102950F09AA
:1001C000029102C0050C0901A1018504150026FF5A
:1001D0000319002AFF03950475108100C005010969
:1001E00080A1018505150026FF00190029FF950152
:1001F00075088100C005010904A1018506050919DA
:10020000012920150025017501952081020501A114
:10021000000930093109320933093409351500273D
:10022000FFFF0000751095068102C005010939091C
:100230003915012508950275048102C005010904DC
:10024000A10185070509190129201500250175015E
:10025000952081020501A1000930093109320933D5
:1002600009340935150027FFFF0000751095068138
:1002700002C0093909391501250895027504810262
:10028000C005010904A1018508A10005091901297A
:100290000215002501750195028102050109300949
:1002A00031150026FF03750A95028102750295013A
:1002B0008103C0C005010904A1018509A100050948
:1002C0001901290215002501750195028102050118
:1002D00009300931150026FF03750A950281027560
:1002E0000295018103C0C00011241FBECFEFD2E0F0
:1002F000DEBFCDBF11E0A0E0B1E0EAEEF7E202C060
:1003000005900D92A633B107D9F712E0A6E3B1E04C
:1003100001C01D92A031B107E1F76CD00C94F3132A
:100320006FCEE6E3F1E05FB7F894208131812115CB
:10033000310519F04481411104C05FBF2FEF3FEF39
:1003400011C0828190E0841B910997FF03C06381F3
:10035000860F911DD901A80FB91F2C9141504483DC
:100360005FBF30E0C9010895E6E3F1E04FB7F894CC
:10037000208131812115310509F41DC0828190E071
:100380005481851B9109019797FF03C05381850F05
:10039000911DD901A80FB91F6C9384819381891392
:1003A00008C09281911101C0828382818150828331
:1003B00002C08F5F84834FBF089584B7877F84BF57
:1003C00088E10FB6F89480936000109260000FBE31
:1003D0000E94CA0A8AB180638AB98BB180638BB9E3
:1003E0000E94B90D84E085BD5F9A579A20982598A0
:1003F0002D9A0895E6E3F1E02FB7F8948BE391E0AE
:1004000091838083128280E8838314822FBF1092AD
:10041000CF0188EF91E09BD71092D901A2D3B4D33A
:10042000CCDF78948091D201811106C083B18072B3
:1004300083B9811101C0D0D280E191E00E94C51042
:1004400097FD1BC040912401509125016091260128
:1004500070912701413051056105710511F4AFD646
:100460000CC05C989091D9019C609093D9019091B7
:10047000C80095FFFCCF8093CE002FB7F8948091F1
:10048000360190913701892B19F080913A0101C012
:1004900080E02FBF90E0009719F4A89989C009C1A6
:1004A0005D982091D90123602093D90120911101F9
:1004B0002F702093E9002091E80020FFEECF8034D8
:1004C000910510F08FE390E0182FC0E0D0E06DC0F0
:1004D0008091240190912501A0912601B0912701DE
:1004E0002091CF01222329F08091CF01811111C0E9
:1004F00016C082309105A105B10528F08115924CF6
:10050000A140B10589F793B1907293B9992361F332
:1005100047C08091D90180638093D90101C05CD22A
:100520008091200180FD0CC08091CF01882341F093
:1005300086E391E0F6DE8091CF0181112DC034C0B9
:100540007FB7F8942091360130913701211531059C
:1005500041F040913A01442321F050E01416150671
:1005600024F07FBF6FEF7FEF10C08091380190E0E3
:10057000841B950B97FF04C040913901840F911D96
:10058000F901E80FF91F60817FBF80E191E00E94CF
:100590005D10882369F281CF81508093CF0104C020
:1005A00086E391E0BEDE5CD221961C1391CF75CF1D
:1005B000A89A9091D901892F807309F458C0892F86
:1005C00082958F708D5F8370282F2295207F9F7C6E
:1005D000922B9093D90181114AC0E091F801E6FF76
:1005E00015C0E695E695E695E770F0E0E350FE4F1E
:1005F000608186E391E0B8DE8091F80186FB882770
:1006000080F99091CF01890F8093CF010091F8017B
:1006100007FD29C00695069506950770C0E0D0E055
:1006200010E086E3E82E81E0F82EE00EF11E09C00E
:10063000F701EC0FFD1FE953FF4F608186E391E066
:1006400093DE2197CE01809590958017910784F3D2
:100650008091F80186958695869587709091CF0157
:10066000890F8093CF0188EF91E071D6C5D1909129
:10067000D901892F837049F0815083709C7F982B1A
:100680009093D901811101C05D9A9091D901892F70
:100690008C7079F0892F869586958D5F8370282FD1
:1006A000220F220F937F922B9093D901811101C0C9
:1006B0005C9A80E191E00E94AF100E941C10B2CEC3
:1006C0000895089580E091E00E94DB1280E191E0BE
:1006D0000E943810E2EEF0E080818460808308950B
:1006E0001F920F920FB60F9211242F933F934F93A7
:1006F0005F938F939F93AF93BF93EF93FF9340913B
:10070000CE00809107028430E9F4E6E3F1E02FB7F0
:10071000F894808191810097A1F054813381531323
:1007200001C00FC03281DC01A30FB11D4C93832F98
:100730008F5F82839381891301C0128284818F5FCE
:1007400084832FBFFF91EF91BF91AF919F918F91C4
:100750005F914F913F912F910F900FBE0F901F907F
:10076000189580E191E00E94F31080E091E00C94F4
:10077000A41180910E0190910F01009729F001972B
:1007800090930F0180930E010895292F3327233072
:100790003105B1F04CF42130310509F439C0223073
:1007A000310509F03AC007C02132310539F1223252
:1007B000310549F132C0EFE5F0E08EEB90E031C059
:1007C00099278130910561F08230910581F0892B64
:1007D00021F5EAEBF0E0E491F0E08AEB90E021C053
:1007E000E6EAF0E0E491F0E086EA90E01AC0E4E79F
:1007F000F0E0E491F0E084E790E013C0E9E0F0E09D
:100800008DE091E00EC0E8EBF1E08FE291E009C0ED
:10081000E2E1F0E08DE191E004C0E0E0F0E080E0B2
:1008200090E0DA018D939C93CF010895FF920F938E
:100830001F93CF93DF9320E030E050E0640F751FEB
:10084000C6E3D1E02CC0FB01E21BF30B3197008122
:10085000FE011FB7F894A081B181109709F41CC064
:10086000828190E0F4808F199109019797FF03C06E
:10087000F3808F0D911DA80FB91F0C938481938174
:10088000891308C09281911101C0828382818150B5
:10089000828302C08F5F84831FBF2F5F3F4F241767
:1008A00035078CF2DF91CF911F910F91FF90089542
:1008B000EF92FF920F931F93CF93DF937B01C901B8
:1008C000E8012091D201222331F0F7011082198230
:1008D000188280E026C043B1407243B94423A9F393
:1008E000E091DA01E33031F01092EE01F0E0E251F4
:1008F000FE4F10824091DB01EDEDF1E050E0BF01D1
:100900000E94E3138091DA01F70180838091DB017B
:10091000888319821092DA011092DC011092DB01B7
:1009200081E0DF91CF911F910F91FF90EF9008959B
:100930000F931F93C901633051F45C982091D90142
:100940002C602093D901B8011F910F91B3C61F915C
:100950000F91089504C080E091E00E94F012809110
:10096000DA01882331F09091DB018091DC01981746
:1009700091F308958150893030F4E82FF0E0E55D7F
:10098000FE4F8081089580E008951F93CF93DF93F9
:10099000182FC82FD0E0C251DE4F8881811118C0B6
:1009A0001330B1F0812FE6DF882391F08093DC01D2
:1009B0008093DB011093DA012DED31E0482F50E0F8
:1009C00060E070E0C9010E94EC13C4DF81E088831D
:1009D000DF91CF911F910895CF938091EE01811106
:1009E00009C0C1E08C2FD1DFCF5FCA30D9F781E0D9
:1009F0008093EE01CF9108951F93CF93DF9300D0A2
:100A000000D000D0CDB7DEB76091DA016623C1F027
:100A10008091DC01811114C070E07160AE014F5F04
:100A20005F4F81E06AD5182F482FBE016F5F7F4F5F
:100A300086E391E0FBDE9091CF01910F9093CF017F
:100A40001092DA011092DC011092DB0126960FB6AB
:100A5000F894DEBF0FBECDBFDF91CF911F910895F7
:100A60009091D90190639093D90168EF71E022D5FC
:100A7000882309F475C087FF18C0BEDF4091F801D4
:100A800046954695469547706DEF71E086E391E097
:100A9000CDDE8091F8018695869586958770909138
:100AA000CF01890F8093CF010895813089F490910F
:100AB000FA01913069F4A0DF8091F9018093DA01A5
:100AC0001092DC0157DF8093DB01811149C047C0E0
:100AD0009091DA01992369F16091DC01462F50E091
:100AE000992787FD90959A012E5F3F4F3595279561
:100AF0002F5F3F4F82179307E1F48091F9019091A6
:100B0000FA01FA01E352FE4F8083E62FEF5FE09394
:100B1000DC018091DB018E1739F0F0E0E352FE4FEB
:100B200090836E5F6093DC019091DC01891318C0A3
:100B300011CF4091F80146954695469547706DEF67
:100B400071E086E391E072DE8091F80186958695EA
:100B5000869587709091CF01890F8093CF014CCFFC
:100B600008951092DA011092DC011092DB014AE044
:100B700050E061E070E08EEE91E00C94EC139BB1DC
:100B8000809589238BB908951092D1011092D001DC
:100B90001092D2011092D4011092D3010895682FBF
:100BA00080E191E00E945D108823E9F080E191E00E
:100BB0000E94AF100E941C1080E1E1DF2FEF81EE58
:100BC00094E0215080409040E1F700C0000080E1B7
:100BD000D6DF2FEF81EE94E0215080409040E1F786
:100BE00000C00000E9CF089580E191E00E94C510A7
:100BF00097FDFACF0895EF92FF920F931F93CF9333
:100C0000DF937C010BEB11E0C0E0D0E005C0ECDF2E
:100C1000F80181938F012196CE15DF05C4F3DF9192
:100C2000CF911F910F91FF90EF9008959091C70180
:100C300080E02091C801820F911D9093D60180938E
:100C4000D5019091C90180E02091CA01820F911DC8
:100C50009093D8018093D7010895CF93C82FC4DF14
:100C6000803239F484E19BDF8C2F99DF80E1CF91D2
:100C700096CF85E194DF8091D0019091D1010196CA
:100C80009093D1018093D001CF910895813859F08C
:100C900018F4803871F405C0823839F0833949F48A
:100CA00006C082E007C081E005C082E103C083E5A1
:100CB00001C080E0D2CF98DF803221F484E16FDF81
:100CC00080E16DCF80E25BDF2FEF80E792E0215083
:100CD00080409040E1F700C000005D9A2FEF80E770
:100CE00092E0215080409040E1F700C0000080E297
:100CF00046DF2FEF80E792E0215080409040E1F7FF
:100D000000C000005D9A85E14ADF8091D00190919A
:100D1000D10101969093D1018093D0010895239839
:100D20002298219824982098E6E3F1E08FB7F89470
:100D3000128214828FBF1092D20113DF1092CF0162
:100D400088EF91E004C383E58CBD8DB58EB5089521
:100D50000DB407FEFDCF08958EBDFADF8EB5089560
:100D6000CF93DF9300D01F92CDB7DEB72B834A839A
:100D70006983F2DF6981862FEFDF4A81842FECDF00
:100D80002B81822F0F900F900F90DF91CF91E4CFA6
:100D9000209A289AD8DF249A2C9A219A29982FEF02
:100DA00080E792E0215080409040E1F700C00000D1
:100DB0002C982FEF80E792E0215080409040E1F79F
:100DC00000C000002398229A20E040E063E58CEA0E
:100DD000C7DF81E08093D201E6E3F1E08FB7F894BA
:100DE000128214828FBF08955D9A20E0482F692FE8
:100DF0008CE4B6DF2FEF86E791E0215080409040F1
:100E0000E1F700C0000080E2BACEEEDE803259F099
:100E10008091D0019091D10101969093D10180935E
:100E2000D00185E115C084E1BADE20E040E060E059
:100E300080E396DFB4DE20E041E060E080E390DF15
:100E4000AEDE20E042E060E080E38ADFA8DE80E101
:100E5000A6CE84E090E0CFDE2091BE014091BD019E
:100E60006091BC018091BB017BDFF7CE962F672F8D
:100E7000242F880F880F880F492F805C71CF8091B5
:100E8000D5019091D6012091D3013091D4018032C7
:100E9000910511F4207F0EC08034910511F4207E5D
:100EA00009C08038910511F4207C04C0811591405F
:100EB00009F42078C9010895462F880F880F880FFC
:100EC00020E0672F805E4CCF0F931F93CF93DF936B
:100ED0008C01C0E0D0E019C06091D3017091D401C1
:100EE00080E0EADF5CDE6091D3017091D40181E0A3
:100EF000E3DF55DE2091D3013091D4012F5F3F4FC6
:100F00003093D4012093D3012296C017D10724F344
:100F100080E1DF91CF911F910F910895EF92FF92A1
:100F20000F931F93CF93DF937C010091D301109116
:100F3000D401000F111FE80107C02FEF4C2F6D2FB8
:100F400080EA0EDF2CDE2196CE01801B910B8E15E0
:100F50009F059CF380E1DF91CF911F910F91FF904E
:100F6000EF9008951F93CF93DF933EDED82F3CDEA2
:100F7000C82F3ADE182F38DE803259F08091D00128
:100F80009091D10101969093D1018093D00185E198
:100F900013C03D2F20E0C9018C0F911DEC0184E1AD
:100FA000FEDD163419F4CE018FDF06C0153419F4B6
:100FB000CE01B4DF01C081E1DF91CF911F91EFCD70
:100FC000CF92DF92EF92FF920F931F93CF93DF9315
:100FD0007B01CB0110DE53DF8C01C0E0D0E02DC0DF
:100FE0004EDF0817190721F0C801FEDE48DF8C012B
:100FF00096E3C92E91E0D92ECC0EDD1EF601EB57FB
:10100000FF4F6091D3017091D401408180E02EDFC9
:101010002296F601EA57FF4F6091D3017091D401F7
:10102000408181E023DF2091D3013091D4012F5FF3
:101030003F4F3093D4012093D301CE15DF0584F2C6
:10104000C801D2DE80E1DF91CF911F910F91FF9017
:10105000EF90DF90CF9008950F931F93CF93DF937E
:10106000C091D301D091D401CC0FDD1F8C0107C0FA
:1010700064E170E0CE01A4DF6496045111090531EA
:101080001105B0F7B801CE019BDF80E1DF91CF9170
:101090001F910F910895CF92DF92EF92FF920F93DD
:1010A0001F93CF93DF93D82FC92F7B01CB01A3DDF3
:1010B0005D9A3BEBC32E31E0D32E0D2F1C2FE801A0
:1010C00011C0F60121916F014C2F6D2F80EC48DE8D
:1010D000FFE722E382E0F15020408040E1F700C0CA
:1010E00000002196CE01801B910B8E159F054CF3BD
:1010F00080E245DD80E1DF91CF911F910F91FF905C
:10110000EF90DF90CF9008950F931F93CF93DF93CD
:10111000C091D301D091D4012091D7013091D80151
:101120002817390724F0CC0FDD1F8C0112C08091E5
:10113000D0019091D10101969093D1018093D0017B
:1011400081E10EC064E170E0CE01A5DF6496045138
:10115000110905311105B0F7B801CE019CDF80E11E
:10116000DF91CF911F910F910895CF93DF933CDDD5
:10117000D82F80E0C82F38DDC80FD11D35DD86346B
:1011800019F4CE0169DF04C08534A9F4CE01BCDFB7
:10119000C82F2ADD803221F484E101DD8C2F0CC0C0
:1011A0008091D0019091D10101969093D1018093CB
:1011B000D00185E101C081E1DF91CF91F0CCCF93E7
:1011C000DF93EC018091D201882319F080E2D7DC13
:1011D00001C05D9A8091D0019091D101892B19F0C5
:1011E00080E1CDDC01C05C9AD7FDAEC0C135D10530
:1011F00009F485C0E4F4C134D10509F452C054F4B3
:10120000C033D10599F1C133D105A9F1A09709F0F7
:1012100089C07EC0C534D10509F44EC0C035D105A2
:1012200009F44EC0C234D10509F07CC03EC0C136BD
:10123000D10509F459C06CF4C635D10509F45CC078
:10124000C036D10509F44FC0C535D10509F06AC0D3
:1012500039C0C437D10509F44CC0C537D10509F4EC
:1012600054C0C436D10509F05DC040C01092D10110
:101270001092D0011EC0B8DC803209F065C084E154
:101280008EDC81E48CDC86E58ADC82E588DC80E229
:1012900086DC89E484DC83E582DC80E580DC80E137
:1012A00050C0A2DCDF91CF91F1CC84E190E0A3DCCF
:1012B000BDDCDF91CF91FFCC85E090E09CDCF9CFE5
:1012C00067DDF7CF91DCC82FD0E0D093D401C09375
:1012D000D3018ADC382F20E02C0F3D1F3093D4013E
:1012E0002093D301E6CF80DC7FDCE3CFDF91CF9189
:1012F0003CCFDF91CF9136CEDF91CF91AACD109226
:10130000D1011092D0010BDDD4CFDF91CF917DCDF3
:101310008091D0019091D10101969093D101809359
:10132000D0010EC08091D0019091D101019690938F
:10133000D1018093D00158DC803211F482E101C0E8
:1013400085E1DF91CF912BCCDF91CF910895FC0106
:10135000208120682F7B208308950F931F93FB012A
:10136000908196FF0FC0292F2695269526952770E8
:10137000DB01A20FB11D15962C912583977C9860F7
:101380009F7B03C097FF02C0907C908390819695CD
:10139000969596959770DF01A90FB11D15968C93C0
:1013A000292F2F5F2770220F220F220F4081477CA9
:1013B000422B4083282F207C342F3770203809F4AB
:1013C00063C0203C09F045C0282F28732695269538
:1013D0002695332349F0990F990F990F477C492B94
:1013E000406440839EEF01C090E0223098F49081E9
:1013F00096FB222720F9892F869586958695820F60
:101400008770880F880F880F977C982B9F7B90831D
:101410009FEF3FC0273059F4082F0F7010E020E0F5
:1014200030E0018312832383348325E00AC0482FF0
:10143000477050E060E070E04183528363837483BF
:10144000215027708081887F822B8083992329F106
:1014500020C0032F10E00230110524F1395F3770EE
:10146000487F432B4083418152816381748197E09F
:10147000440F551F661F771F9A95D1F7482B41835C
:1014800052836383748309C0313071F4982F9F7342
:101490009F5F80818068808309C080818F7780838F
:1014A00090E004C09DEFF5CF9CEFF3CF892F1F9103
:1014B0000F9108950F931F93CF93DF93EB014DDFAF
:1014C0001816B4F409811A812B813C81A901662781
:1014D00077272227332740275127622773274F3F3B
:1014E0005F4F6105710521F08881806888838BEFEB
:1014F000DF91CF911F910F910895FA012CE130E017
:1015000097E0AB01022E02C0569547950A94E2F788
:10151000483028F0973059F4408396E008C0408363
:101520009150411104C027503109923051F7492F91
:1015300042500DC0DF01A40FB11D9B012F7733274F
:101540002C93660F672F661F770B719541504111E1
:10155000F1CF492F50E09A0163E0220F331F6A95C3
:10156000E1F7206C3F6F3081322B3083E40FF51FA1
:10157000319781508F7380688083892F0895FC0193
:10158000208920FF02C05F9808955F9A8BB1806325
:101590008BB90895CF93DF9380E190E09093CD00D5
:1015A0008093CC00CAECD0E096E09883A8ECB0E041
:1015B00082E08C93E9ECF0E028E12083539A5A9A78
:1015C0005B9A10821C92188298838C9388E980839E
:1015D0005B98DF91CF9108951F93CF93DF93EC0138
:1015E000E98DE150E23028F4F0E0EC5CFE4F108130
:1015F00001C010E0888D823009F418608A8D873030
:1016000031F0883031F0863029F4126003C0146064
:1016100001C016605B9A1092C9001092C800109227
:10162000CA002C893D894E895F89211581EE3807D2
:101630004105510579F0CA01B901969587957795CD
:10164000679560587B47814E9F4F0E94B41321508D
:10165000310902C020E130E03093CD002093CC006E
:101660001093CA008C899D89AE89BF898115914EDE
:10167000A105B10511F480E001C082E08093C800AB
:1016800088E98093C9005B988C899D89AE89BF8960
:101690000197A105B10511F47DDF76DA8091D201C1
:1016A000882321F0DF91CF911F9139CBDF91CF912A
:1016B0001F9192C9680F791F09C0FC012191CF01C8
:1016C0003091C80035FFFCCF2093CE0086179707D6
:1016D000A1F70895BF92CF92DF92EF92FF920F93FE
:1016E0001F93CF93DF937C018B01EA01D7D1B82EF2
:1016F000811132C0209731F028813981021B130BF0
:10170000E20EF31EC12CD12C22C08091E80085FD91
:1017100014C08091E8008E778093E800209749F00C
:10172000888199818C0D9D1D9983888325E0B22E37
:1017300013C0B4D1882359F00EC0F70181917F0105
:101740008093F10001501109FFEFCF1ADF0A011554
:101750001105D9F601C0B82E8B2DDF91CF911F91C5
:101760000F91FF90EF90DF90CF90BF900895209160
:101770000E0230910F022617370748F061157105E8
:1017800039F42091E8002E772093E80001C0B901D8
:101790009C0180E034C090910702992309F443C072
:1017A000953009F442C09091E80093FD3AC09091C1
:1017B000E80092FD30C09091E80090FF20C0809139
:1017C000F20090E0F901821B930B05C02191209358
:1017D000F100615071099F01280F391F61157105D2
:1017E00019F02830310590F381E02830310509F0F7
:1017F00080E09091E8009E779093E8009F0161154A
:10180000710549F68111C7CF06C080910702882370
:1018100051F0853051F08091E80082FFF6CF80E0F2
:10182000089581E0089582E0089583E008956115A8
:10183000710529F42091E8002B772093E8009C01A2
:1018400021C080910702882381F1853041F1809188
:10185000E80083FD26C08091E80082FFF2CFF90105
:1018600007C08091F10081939F016150710929F0B7
:101870009F018091F2008111F4CF8091E8008B7775
:101880008093E80061157105E1F68091E80080FD24
:101890000AC080910702882341F08530B1F783E0C8
:1018A000089581E0089580E0089582E008952091F0
:1018B0000E0230910F022617370748F061157105A7
:1018C00039F42091E8002E772093E80001C0B90197
:1018D0009C0180E035C090910702992309F444C02F
:1018E000953009F443C09091E80093FD3BC090917E
:1018F000E80092FD31C09091E80090FF21C08091F6
:10190000F20090E0F901821B930B06C02491209312
:10191000F1003196615071099C012E0F3F1F611536
:10192000710519F02830310588F381E02830310540
:1019300009F080E09091E8009E779093E8009F0185
:101940006115710541F68111C6CF06C0809107026D
:10195000882351F0853051F08091E80082FFF6CF66
:1019600080E0089581E0089582E0089583E008957D
:10197000982F2CC09093E900981739F07091EC00E3
:101980002091ED005091F00003C0242F762F50E0FD
:1019900021FD02C09F5F1AC03091EB003E7F309363
:1019A000EB003091ED003D7F3093ED003091EB0086
:1019B00031603093EB007093EC002093ED00509376
:1019C000F0002091EE0027FDE5CF07C0953090F2A2
:1019D0008F708093E90081E0089580E008950F936F
:1019E0001F93CF93DF93062FEC0110E02EC0988158
:1019F000911103C01F5F259628C02C81E981FA81CF
:101A00006B81892F8F70853010F080E021C02230EB
:101A100010F056E001C052E028E030E040E003C0A2
:101A20004F5F220F331F2E173F07D0F34295407FA1
:101A3000452B991F9927991F6295660F660F607C49
:101A4000692B96DF8111D6CFE0CF1013D0CF81E084
:101A5000DF91CF911F910F9108958091080287FD2A
:101A600005C08091E80080FF0EC012C08091E800A0
:101A700082FD05C0809107028111F8CF0895809101
:101A8000E8008B7708C0809107028111EACF0895A2
:101A90008091E8008E778093E80008958091E400BB
:101AA0009091E50045E62091EC0020FD1FC023C089
:101AB00020910702222391F0253091F02091EB0034
:101AC00025FD10C02091E4003091E500281739076A
:101AD00051F34150C90139F784E0089582E0089537
:101AE00083E0089581E0089580E008952091E80062
:101AF00020FFDECFF9CF2091E80022FFD9CFF4CF2D
:101B000041D043D08091D8008F778093D8008091C6
:101B1000D80080688093D8008091D8008F7D809312
:101B2000D80084E089BD86E089BD09B400FEFDCF00
:101B30001092070210920302109205021092040202
:101B400042E060E080E014DF8091E1008E7F8093CE
:101B5000E1008091E20081608093E2008091E200E8
:101B600088608093E2008091E0008E7F8093E000A7
:101B70000895E3E6F0E080818E7F808381E08093AA
:101B80000602BECF1092E20008951092E10008957F
:101B90001F920F920FB60F9211242F933F934F93E2
:101BA0005F936F937F938F939F93AF93BF93EF93C5
:101BB000FF938091E10082FF0BC08091E20082FFE1
:101BC00007C08091E1008B7F8093E1000E94B90300
:101BD0008091E10080FF18C08091E20080FF14C076
:101BE0008091E2008E7F8093E2008091E20080612C
:101BF0008093E2008091D80080628093D80019BC65
:101C0000109207020E9461038091E10084FF30C0BE
:101C10008091E20084FF2CC084E089BD86E089BD0C
:101C200009B400FEFDCF8091D8008F7D8093D8004D
:101C30008091E1008F7E8093E1008091E2008F7EB1
:101C40008093E2008091E20081608093E2008091C5
:101C50000302882311F084E007C08091E30087FF2E
:101C600002C083E001C081E0809307020E9460030C
:101C70008091E10083FF27C08091E20083FF23C0B1
:101C80008091E100877F8093E10082E080930702EA
:101C9000109203028091E1008E7F8093E100809199
:101CA000E2008E7F8093E2008091E2008061809369
:101CB000E20042E060E080E05BDE8091F00088605E
:101CC0008093F000B8D1FF91EF91BF91AF919F91B8
:101CD0008F917F916F915F914F913F912F910F90D5
:101CE0000FBE0F901F9018951F920F920FB60F9274
:101CF00011242F933F934F935F936F937F938F9311
:101D00009F93AF93BF93CF93EF93FF938091E9009D
:101D10008F709091EC0090FF02C090E801C090E0BD
:101D2000C92FC82B1092E9008091F000877F809323
:101D3000F00078941CD01092E9008091F000886047
:101D40008093F000CF70C093E900FF91EF91CF91A5
:101D5000BF91AF919F918F917F916F915F914F91C3
:101D60003F912F910F900FBE0F901F9018951F93CA
:101D7000CF93DF93CDB7DEB7AC970FB6F894DEBF45
:101D80000FBECDBFE8E0F2E08091F100819322E048
:101D9000E031F207C9F70E94B1038091E80083FFA8
:101DA00032C18091080290910902953009F487C0F0
:101DB00038F49130B1F170F0933009F024C131C0A2
:101DC000983009F4F4C0993009F400C1963009F054
:101DD0001AC19BC0803821F0823809F014C108C0B4
:101DE0008091040290910502992389F082600FC0CE
:101DF00080910C0290910D028F7099278093E900D9
:101E00008091EB0085FB882780F91092E900909182
:101E1000E800977F9093E8008093F1001092F10022
:101E2000D1C0882319F0823009F0EDC08F7121F004
:101E3000823009F0E8C00BC080910A02813009F0BD
:101E4000E2C0933009F080E0809305022FC08091BA
:101E50000A0281112BC080910C0290910D028F70AB
:101E60009927009709F4CFC08093E9002091EB00F7
:101E700020FF1CC020910902233021F48091EB0047
:101E8000806212C09091EB0090619093EB0021E092
:101E900030E001C0220F8A95EAF72093EA00109201
:101EA000EA008091EB0088608093EB001092E900DB
:101EB0008091E800877F8093E800CFDDA4C0811186
:101EC000A2C080910A0290910B028F779927182F58
:101ED0009091E3009078982B9093E3008091E80034
:101EE000877F8093E800B9DD8091E80080FFFCCF18
:101EF0008091E30080688093E300112311F083E078
:101F000001C082E0809307027EC08058823008F0D2
:101F10007AC080910A0290910B028C3D23E09207D7
:101F200071F583E08A838AE289834FB7F894DE01F2
:101F3000139620E03EE051E2E32FF0E0509357008B
:101F4000E49120FF03C0E295EF703F5FEF708E2FAA
:101F500090E0EA3010F0C79601C0C0968D939D9333
:101F60002F5F243149F74FBF8091E800877F80932E
:101F7000E8006AE270E0CE010196F9DB12C0AE0122
:101F8000455D5F4F60910C020E94C5030097D9F137
:101F90002091E800277F2093E800BC018BA59CA539
:101FA00086DC8091E8008B778093E8002CC0803835
:101FB00051F58091E800877F8093E80080910302CB
:101FC0008093F1008091E8008E7775CF81111BC05E
:101FD00090910A029230B8F48091E800877F809354
:101FE000E8009093030239DD80910302811104C05F
:101FF0008091E30087FF02C084E001C081E080930C
:1020000007020E9462038091E80083FF0AC080916A
:10201000E800877F8093E8008091EB0080628093E6
:10202000EB00AC960FB6F894DEBF0FBECDBFDF91CC
:10203000CF911F9108950895CF938091070288232F
:10204000A9F08091E9008F709091EC0090FF02C0A0
:1020500090E801C090E0C92FC82B1092E900809150
:10206000E80083FD84DECF70C093E900CF9108952E
:10207000CF93DF93EC014096FC018BE0DF011D92D2
:102080008A95E9F782E08C83898783E08E8761E017
:10209000CE010196A4DC882361F061E0CE010696B2
:1020A0009EDC882331F061E0CE010B96DF91CF9169
:1020B00096CC80E0DF91CF910895CF93C62F2091E9
:1020C00007022430F1F4FC01448955896689778937
:1020D000452B462B472BA9F081818F708093E90017
:1020E0008091E80085FF04C0C093F10080E00AC041
:1020F0008091E8008E778093E800D0DC8823A1F3FC
:1021000001C082E0CF91089520910702243029F583
:10211000FC014489558966897789452B462B472BD5
:10212000E1F081818F708093E9008091F20081114C
:1021300002C080E008959091E8008091E8008E77D9
:102140008093E80095FDF5CFA9DC811107C090913F
:10215000E8009E779093E800089582E0089520912A
:102160000702243089F4FC014489558966897789FE
:10217000452B462B472B41F021812F702093E900FE
:102180002091E80020FDC0CF08952091070224305F
:1021900019F02FEF3FEF24C0FC014489558966896F
:1021A0007789452B462B472BA1F386818F7080932F
:1021B000E9008091E80082FFECCF8091F200882353
:1021C00021F02091F10030E002C02FEF3FEF80912D
:1021D000F200811105C08091E8008B778093E800C0
:1021E000C90108950895CF93DF93EC018091E80031
:1021F00083FFA7C0888190E020910C0230910D02EE
:102200002817390709F09DC080910902813261F0D9
:1022100020F4803209F095C03DC0823209F46DC0CF
:10222000833209F08EC07DC080910802813A09F0A6
:1022300088C08091E800877F8093E8008091E80063
:1022400080FFFCCF4C895D896E897F894093F100C6
:10225000BB27A72F962F852F8093F100CB01AA27AC
:10226000BB278093F100472F552766277727409398
:10227000F100888D8093F100898D8093F1008A8D23
:102280008093F1008091E8008E778093E800DF91E1
:10229000CF91E3CB80910802813209F052C0809146
:1022A000E800877F8093E80005C0809107028823BB
:1022B00009F447C08091E80082FFF7CF3091F10028
:1022C0002091F1009091F1008091F1003C8B2D8BD9
:1022D0009E8B8F8B8091F100888F8091F100898F88
:1022E0008091F1008A8F8091E8008B778093E800DD
:1022F000B4DBCE01DF91CF916FC9809108028132AA
:1023000001F58091E800877F8093E800A6DB80914B
:102310000A0290910B02998B888BCE01DF91CF91AD
:102320002EC980910802813261F48091E800877F94
:102330008093E80092DB60910A02CE01DF91CF9199
:1023400051CFDF91CF9108956F927F928F929F929C
:10235000AF92BF92CF92DF92EF92FF920F931F93B3
:10236000CF93DF9300D01F92CDB7DEB77C01ADB61F
:10237000BEB68091E80083FF07C1F701808190E03D
:1023800020910C0230910D022817390709F0FCC08A
:1023900080910902833009F49EC030F4813071F0DD
:1023A000823009F0F1C0D4C08A3009F4B9C08B3052
:1023B00009F4A2C0893009F0E7C04CC0809108023E
:1023C000813A09F0E1C08DB69EB61A8219828091D9
:1023D0000A0210910B028B83F70140858DB79EB7DF
:1023E000841B91090FB6F8949EBF0FBE8DBFCDB66A
:1023F000DEB6EFEFCE1ADE0A360150E060E070E0A4
:10240000C601EAD1412F41508E010F5F1F4F960147
:10241000BE016D5F7F4FC7010E945804F7012681FE
:1024200037812115310529F0408550E0B601C901F9
:10243000CAD11092E9008091E800877F8093E8007C
:1024400069817A81C30193D98091E8008B77809369
:10245000E80039C080910802813209F095C08DB63C
:102460009EB600910E0210910F0270900A026090C9
:102470000B028DB79EB7801B910B0FB6F8949EBFD1
:102480000FBE8DBFCDB6DEB6EFEFCE1ADE0A80915D
:10249000E800877F8093E800B801C601C8D9809121
:1024A000E8008E778093E80021E0711001C020E001
:1024B00030E0021B130B2C0D3D1D462D4150672DA6
:1024C000C7010E949804882D992D0FB6F8949EBFDD
:1024D0000FBE8DBF59C080910802813A09F054C0E7
:1024E0008091E800877F8093E8008091E80080FF7A
:1024F000FCCFF701818540C080910802813209F04C
:1025000043C08091E800877F8093E800A6DA90912D
:102510000A0281E0911101C080E0F701818734C097
:1025200080910802813281F58091E800877F809355
:10253000E80093DA80910A0290910B02882736E036
:10254000969587953A95E1F7F701958784871CC0A2
:1025500080910802813AC1F48091E800877F8093DE
:10256000E8008091E80080FFFCCFF7018485958525
:1025700096958795969587958093F1008091E800D0
:102580008E778093E80069DA0FB6F894BEBE0FBE6E
:10259000ADBE0F900F900F90DF91CF911F910F91D3
:1025A000FF90EF90DF90CF90BF90AF909F908F9073
:1025B0007F906F9008959C01275F3F4FF90127E0BE
:1025C000DF011D922A95E9F721E0FC01218724EF24
:1025D00031E03587248723E0248361E00196FFC939
:1025E0004F925F926F927F928F929F92AF92BF9223
:1025F000CF92DF92EF92FF920F931F93CF93DF93CF
:1026000000D01F92CDB7DEB77C01ADB6BEB68091CB
:102610000702843009F08FC08091E4009091E500BA
:10262000F701228533852817390709F484C0818191
:102630008F708093E9008091E80085FF7CC06DB6C3
:102640007EB640858DB79EB7841B91090FB6F8946E
:102650009EBF0FBE8DBFCDB6DEB6EFEFCE1ADE0A3F
:102660001B821A821982460150E060E070E0C601C8
:10267000B3D08E010F5F1F4F960140E0BE016D5F2A
:102680007F4FC7010E945804582EF7018485958515
:10269000892B31F001E010E086859785892B11F0B8
:1026A00000E010E0F701C680D780C114D10489F0A2
:1026B00049815A81B601C40179D0442443940097DA
:1026C00009F4412CF701408550E0B401C6017BD0EC
:1026D00001C0412C89819A81892BF9F0511004C0E5
:1026E000411002C000FF19C0F701848595859787C6
:1026F000868781818F708093E9008B81811180931F
:10270000F10069817A8140E050E0C4010E946A0BC7
:102710008091E8008E778093E8008091E4009091AA
:10272000E500F70193878287862D972D0FB6F894E1
:102730009EBF0FBE8DBF0FB6F894BEBE0FBEADBE1E
:102740000F900F900F90DF91CF911F910F91FF90FD
:10275000EF90DF90CF90BF90AF909F908F907F9041
:102760006F905F904F900895A1E21A2EAA1BBB1B99
:10277000FD010DC0AA1FBB1FEE1FFF1FA217B3074D
:10278000E407F50720F0A21BB30BE40BF50B661F63
:10279000771F881F991F1A9469F760957095809527
:1027A00090959B01AC01BD01CF010895FB01DC01B7
:1027B00004C08D910190801921F441505040C8F718
:1027C000881B990B0895FB01DC0102C001900D925A
:1027D00041505040D8F70895DC0101C06D9341503D
:0A27E0005040E0F70895F894FFCF91
:1027EA00028110000001000011000000000000003A
:1027FA00008340000001044000000182080000013B
:10280A00000000000000000000000004080F08019A
:06281A0011110303302040
:00000001FF
