:1000000073C100008DC100008BC1000089C10000D8
:1000100087C1000085C1000083C1000081C10000CC
:100020007FC100007DC100007BC100000C94FE0D6B
:100030000C94AA0E75C1000073C1000071C10000CC
:100040006FC100006DC100006BC1000069C10000FC
:1000500067C1000065C1000063C1000052C3000019
:100060005FC100005DC100005BC1000059C100001C
:1000700057C1000030034100720064007500690040
:100080006E006F00200048006F006F0064006C007D
:100090006F0061006400650072002000420065008E
:1000A00074006100000012034E00690063006F00DD
:1000B00048006F006F006400000004030904090297
:1000C0005F00030100C032080B00020202010009B8
:1000D00004000001020201000524001001042402B2
:1000E000060524060001070582030800FF09040134
:1000F00000020A0000000705040240000107058312
:10010000024000010904020001030000000921115E
:1001100001000122B801070581031000011201103E
:1001200001EF020108EB03686E80010102DC0105AA
:10013000010902A1010901A100850105091901298F
:10014000051500250195057501810295017503814D
:100150000305010930093109381581257F75089596
:10016000038106C0C005010906A101850205071922
:10017000E029E715002501750195088102950175B3
:1001800008810395067508150025650507190029DE
:1001900065810005081901290595057501910295EC
:1001A0000175039103C006C0FF0A000CA10185037D
:1001B0007508150026FF00953F09018102953F094A
:1001C000029102C0050C0901A1018504150026FF5A
:1001D0000319002AFF03950475108100C005010969
:1001E00080A1018505150026FF00190029FF950152
:1001F00075088100C005010904A1018506050919DA
:10020000012920150025017501952081020501A114
:10021000000930093109320933093409351500273D
:10022000FFFF0000751095068102C005010939091C
:100230003915012508950275048102C005010904DC
:10024000A10185070509190129201500250175015E
:10025000952081020501A1000930093109320933D5
:1002600009340935150027FFFF0000751095068138
:1002700002C0093909391501250895027504810262
:10028000C005010904A1018508A10005091901297A
:100290000215002501750195028102050109300949
:1002A00031150026FF03750A95028102750295013A
:1002B0008103C0C005010904A1018509A100050948
:1002C0001901290215002501750195028102050118
:1002D00009300931150026FF03750A950281027560
:1002E0000295018103C0C00011241FBECFEFD2E0F0
:1002F000DEBFCDBF11E0A0E0B1E0E6E5F8E202C06C
:1003000005900D92A633B107D9F712E0A6E3B1E04C
:1003100001C01D92A535B107E1F76CD00C942914EA
:100320006FCEE8E3F1E05FB7F894208131812115C9
:10033000310519F04481411104C05FBF2FEF3FEF39
:1003400011C0828190E0841B910997FF03C06381F3
:10035000860F911DD901A80FB91F2C9141504483DC
:100360005FBF30E0C9010895E8E3F1E04FB7F894CA
:10037000208131812115310509F41DC0828190E071
:100380005481851B9109019797FF03C05381850F05
:10039000911DD901A80FB91F6C9384819381891392
:1003A00008C09281911101C0828382818150828331
:1003B00002C08F5F84834FBF089584B7877F84BF57
:1003C00088E10FB6F89480936000109260000FBE31
:1003D0000E94F60A8AB180638AB98BB180638BB9B7
:1003E0000E94EF0D84E085BD5F9A579A209825986A
:1003F0002D9A0895E8E3F1E02FB7F89488E491E0AE
:1004000091838083128284E6838314822FBF1092AB
:100410003D0188EF91E0C7D710924701B4D3C6D30E
:10042000CCDF7894C1E0D0E080914001811106C01A
:1004300083B1807283B9811101C0E0D280E191E083
:100440000E94FB1097FD1BC0409124015091250193
:1004500060912601709127014130510561057105B8
:1004600011F4D9D60CC05C98909147019C60909390
:1004700047019091C80095FFFCCF8093CE002FB725
:10048000F8948091380190913901892B19F080916D
:100490003C0101C080E02FBF90E0009719F4A899BB
:1004A0008AC010C15D9820914701236020934701C5
:1004B000209111012F702093E9002091E80020FF86
:1004C000EECF8034910510F08FE390E0F82E00E03D
:1004D00010E06EC08091240190912501A091260129
:1004E000B091270120913D01222329F080913D0107
:1004F000811111C016C082309105A105B10528F007
:100500008115924CA140B10589F783B1807283B9FE
:10051000882361F347C0809147018063809347013E
:1005200001C06CD28091200180FD0CC080913D0102
:10053000882341F088E391E0F4DE80913D01811150
:100540002DC034C07FB7F894209138013091390123
:100550002115310541F040913C01442321F050E048
:100560001416150624F07FBF6FEF7FEF10C0809147
:100570003A0190E0841B950B97FF04C040913B012A
:10058000840F911DF901E80FF91F60817FBF80E1A1
:1005900091E00E949310882369F281CF815080936B
:1005A0003D0104C088E391E0BCDE6CD20F5F1F4FB9
:1005B000F01290CF74CFA89A90914701892F807341
:1005C00009F45EC0892F82958F708D5F8370282F0C
:1005D0002295207F9F7C922B90934701811150C0E0
:1005E0008091400181114CC0E091F801E6FF15C0F7
:1005F000E695E695E695E770F0E0E350FE4F608102
:1006000088E391E0B1DE8091F80186FB882780F9CC
:1006100090913D01890F80933D018091F80187FD04
:100620002BC0869586958695877000E010E0E82EB1
:10063000F12C86E3C82E81E0D82ECE0CDF1C09C039
:10064000F601E00FF11FE953FF4F608188E391E06D
:100650008BDE01501109C801809590958E159F057C
:100660007CF38091F80186958695869587709091A8
:100670003D01890F80933D0188EF91E094D6CED162
:1006800090914701892F837049F0815083709C7F3E
:10069000982B90934701811101C05D9A9091470179
:1006A000892F8C7079F0892F869586958D5F837060
:1006B000282F220F220F937F922B909347018111B5
:1006C00001C05C9AD0933701C093360180E091E07D
:1006D0000E94261380E191E00E94E5100E945210D2
:1006E000A3CE0895089580E091E00E94111380E167
:1006F00091E00E946E10E2EEF0E0808184608083E1
:1007000008951F920F920FB60F9211242F933F93CB
:100710004F935F938F939F93AF93BF93EF93FF9309
:100720004091CE0080914C028430E9F4E8E3F1E09E
:100730002FB7F894808191810097A1F05481338183
:10074000531301C00FC03281DC01A30FB11D4C93C4
:10075000832F8F5F82839381891301C012828481EA
:100760008F5F84832FBFFF91EF91BF91AF919F91D6
:100770008F915F914F913F912F910F900FBE0F90EE
:100780001F90189580E191E00E94291180E091E08E
:100790000C94DA1180910E0190910F01009729F0CD
:1007A000019790930F0180930E010895292F33270D
:1007B00023303105B1F04CF42130310509F439C052
:1007C0002230310509F03AC007C02132310539F134
:1007D0002232310549F132C0EFE5F0E08EEB90E0D6
:1007E00031C099278130910561F08230910581F007
:1007F000892B21F5EAEBF0E0E491F0E08AEB90E060
:1008000021C0E6EAF0E0E491F0E086EA90E01AC068
:10081000E4E7F0E0E491F0E084E790E013C0E9E081
:10082000F0E08DE091E00EC0E8EBF1E08FE291E0C6
:1008300009C0E2E1F0E08DE191E004C0E0E0F0E029
:1008400080E090E0DA018D939C93CF010895FF92B0
:100850000F931F93CF93DF9320E030E050E0640FBD
:10086000751FC8E3D1E02CC0FB01E21BF30B3197ED
:100870000081FE011FB7F894A081B181109709F49F
:100880001CC0828190E0F4808F199109019797FF35
:1008900003C0F3808F0D911DA80FB91F0C938481A5
:1008A0009381891308C09281911101C08283828152
:1008B0008150828302C08F5F84831FBF2F5F3F4FB1
:1008C000241735078CF2DF91CF911F910F91FF9084
:1008D0000895EF92FF920F931F93CF93DF937B01C5
:1008E000C901E8014091360150913701452B51F083
:1008F0001092370110923601FB0110821982188282
:1009000080E021C0E091AC01E33031F01092EE01C3
:10091000F0E0E251FE4F10824091AD01EFEAF1E0CC
:1009200050E0BF010E9419148091AC01F70180834F
:100930008091AD01888319821092AC011092AE01B2
:100940001092AD0181E0DF91CF911F910F91FF9047
:10095000EF9008950F931F93C901633051F45C9891
:10096000209147012C6020934701B8011F910F91FE
:10097000D7C61F910F91089504C080E091E00E94B6
:1009800026138091AC01882331F09091AD018091C4
:10099000AE01981791F308958150893030F4E82F13
:1009A000F0E0E55DFE4F8081089580E008951F939B
:1009B000CF93DF93182FC82FD0E0C251DE4F88812C
:1009C000811118C01330B1F0812FE6DF882391F038
:1009D0008093AE018093AD011093AC012FEA31E01A
:1009E000482F50E060E070E0C9010E942214C4DF8B
:1009F00081E08883DF91CF911F910895CF938091FB
:100A0000EE01811109C0C1E08C2FD1DFCF5FCA3068
:100A1000D9F781E08093EE01CF9108951F93CF9392
:100A2000DF9300D000D000D0CDB7DEB76091AC012D
:100A30006623C1F08091AE01811114C070E0716035
:100A4000AE014F5F5F4F81E084D5182F482FBE0164
:100A50006F5F7F4F88E391E0FADE90913D01910F47
:100A600090933D011092AC011092AE011092AD0135
:100A700026960FB6F894DEBF0FBECDBFDF91CF91A3
:100A80001F9108959091470190639093470168EFFB
:100A900071E03CD5882309F475C087FF18C0BEDF1C
:100AA0004091F80146954695469547706DEF71E087
:100AB00088E391E0CCDE8091F80186958695869555
:100AC000877090913D01890F80933D010895813099
:100AD00089F49091FA01913069F4A0DF8091F901D5
:100AE0008093AC011092AE0157DF8093AD0181116C
:100AF00049C047C09091AC01992369F16091AE0162
:100B0000462F50E0992787FD90959A012E5F3F4F21
:100B1000359527952F5F3F4F82179307E1F4FA0130
:100B2000E155FE4F8091F9018083E62FEF5FE0935E
:100B3000AE018091AD018E1749F0F0E0E155FE4F16
:100B40009091FA0190836E5F6093AE019091AE0137
:100B5000891318C011CF4091F801469546954695E6
:100B600047706DEF71E088E391E071DE8091F801EC
:100B7000869586958695877090913D01890F809323
:100B80003D014CCF08951092AC011092AE0110922D
:100B9000AD014AE050E061E070E08EEE91E00C942F
:100BA00022149BB1809589238BB9089510923F013F
:100BB00010923E01109240011092420110924101A8
:100BC0000895682F80E191E00E9493108823E9F056
:100BD00080E191E00E94E5100E94521080E1E1DF87
:100BE0002FEF81EE94E0215080409040E1F700C06B
:100BF000000080E1D6DF2FEF81EE94E021508040AD
:100C00009040E1F700C00000E9CF089580E191E055
:100C10000E94FB1097FDFACF0895EF92FF920F9379
:100C20001F93CF93DF937C0108E411E0C0E0D0E094
:100C300005C0ECDFF80181938F012196CE15DF0509
:100C4000C4F3DF91CF911F910F91FF90EF90089522
:100C50009091540180E020915501820F911D909355
:100C60004401809343019091560180E02091570107
:100C7000820F911D90934601809345010895CF9373
:100C8000C82FC4DF803239F484E19BDF8C2F99DFD9
:100C900080E1CF9196CF85E194DF80913E019091E4
:100CA0003F01019690933F0180933E01CF910895BB
:100CB000813859F018F4803871F405C0823839F061
:100CC000833949F406C082E007C081E005C082E1B3
:100CD00003C083E501C080E0D2CF98DF803221F4E9
:100CE00084E16FDF80E16DCF80E25BDF2FEF80E793
:100CF00092E0215080409040E1F700C000005D9AF2
:100D00002FEF80E792E0215080409040E1F700C053
:100D1000000080E246DF2FEF80E792E02150804024
:100D20009040E1F700C000005D9A85E14ADF8091C4
:100D30003E0190913F01019690933F0180933E01C7
:100D40000895239822982198249820981092400181
:100D50002FB7F89480913801909139012FBF892BDA
:100D600069F4E8E3F1E02FB7F89488E491E0918327
:100D70008083128284E6838314822FBF04DF109263
:100D80003D0188EF91E00FC383E58CBD8DB58EB535
:100D900008950DB407FEFDCF08958EBDFADF8EB520
:100DA0000895CF93DF9300D01F92CDB7DEB72B838A
:100DB0004A836983F2DF6981862FEFDF4A81842FBE
:100DC000ECDF2B81822F0F900F900F90DF91CF914E
:100DD000E4CFE8E3F1E08FB7F89411821082128239
:100DE000138214828FBF209A289ACEDF249A2C9ADD
:100DF000219A29982FEF80E792E02150804090407F
:100E0000E1F700C000002C982FEF80E792E021501E
:100E100080409040E1F700C000002398229A20E033
:100E200040E063E58CEABDDF81E0809340010895F6
:100E3000462F880F880F880F20E0672F805EB1CF84
:100E40000F931F93CF93DF938C01C0E0D0E019C0C4
:100E5000609141017091420180E0EADFB2DE609171
:100E600041017091420181E0E3DFABDE209141015D
:100E7000309142012F5F3F4F309342012093410157
:100E80002296C017D10724F380E1DF91CF911F9103
:100E90000F91089584E090E0C0DE20914B014091D5
:100EA0004A0160914901809148017BDFE8CEAEDEC6
:100EB000803259F080913E0190913F0101969093CC
:100EC0003F0180933E0185E115C084E17ADE20E098
:100ED00040E060E080E365DF74DE20E041E060E058
:100EE00080E35FDF6EDE20E042E060E080E359DF18
:100EF00068DE80E166CECF92DF92EF92FF920F9391
:100F00001F93CF93DF93D82FC92F7B01CB0185DEB1
:100F10005D9A88E4C82E81E0D82E0D2F1C2FE801A1
:100F200011C0F60121916F014C2F6D2F80EC39DF3C
:100F3000FFE722E382E0F15020408040E1F700C06B
:100F400000002196CE01801B910B8E159F054CF35E
:100F500080E227DE80E1DF91CF911F910F91FF901A
:100F6000EF90DF90CF9008950F931F93CF93DF936F
:100F7000C0914101D091420120914501309146013B
:100F80002817390724F0CC0FDD1F8C0112C0809187
:100F90003E0190913F01019690933F0180933E0165
:100FA00081E10EC060E270E0CE01A5DFA0960052A4
:100FB000110901321105B4F7B801CE019CDF80E1BF
:100FC000DF91CF911F910F910895EF92FF920F93B0
:100FD0001F93CF93DF937C01009141011091420157
:100FE000000F111FE80107C02FEF4C2F6D2F80EA73
:100FF000D8DEE7DD2196CE01801B910B8E159F0573
:101000009CF380E1DF91CF911F910F91FF90EF90C2
:1010100008951F93CF93DF93F9DDD82FF7DDC82F05
:10102000F5DD182FF3DD803259F080913E0190916B
:101030003F01019690933F0180933E0185E113C0EB
:101040003D2F20E0C9018C0F911DEC0184E1B9DD39
:10105000163419F4CE01F4DE06C0153419F4CE01AD
:10106000B4DF01C081E1DF91CF911F91AACD5D9ADC
:1010700020E0482F692F8CE494DE2FEF86E791E083
:10108000215080409040E1F700C0000080E289CD0F
:10109000809143019091440120914101309142019E
:1010A0008032910511F4207F0EC08034910511F437
:1010B000207E09C08038910511F4207C04C0811580
:1010C000914009F42078C9010895962F672F242FA5
:1010D000880F880F880F492F805C63CECF92DF92F4
:1010E000EF92FF920F931F93CF93DF936C01D0DFAA
:1010F0008C01C0E0D0E029C0CBDF0817190721F030
:10110000C801B5DFC5DF8C0146E3E42E41E0F42ED3
:10111000EC0EFD1E6091410170914201F701428980
:1011200080E0D3DF22966091410170914201F70186
:10113000438981E0CADF20914101309142012F5F54
:101140003F4F3093420120934101CC15DD05A4F2BD
:10115000C8018DDF80E1DF91CF911F910F91FF904A
:10116000EF90DF90CF900895CF93DF93EC0155DDA2
:101170004DDD803229F484E124DDCE01AFDF0AC0E9
:1011800080913E0190913F01019690933F018093A1
:101190003E0185E1DF91CF9114CDCF93DF9336DD12
:1011A000D82F80E0C82F32DDC80FD11DC13081E0BB
:1011B000D80764F081E105DD80913E0190913F0107
:1011C000019690933F0180933E0122C01FDD86343B
:1011D00021F4CE01DF91CF91C7CF8534A9F4CE01A0
:1011E000C3DEC82F13DD803221F484E1EADC8C2FCA
:1011F0000CC080913E0190913F01019690933F0178
:1012000080933E0185E101C081E1DF91CF91D9CC8E
:10121000DF91CF910895CF93DF93EC01809140014E
:10122000882319F080E2BDDC01C05D9A80913E0107
:1012300090913F01892B19F080E1B3DC01C05C9AE9
:10124000D7FDAEC0C135D10509F485C0E4F4C13481
:10125000D10509F452C054F4C033D10599F1C1331A
:10126000D105A9F1A09709F089C07EC0C534D10588
:1012700009F44EC0C035D10509F44EC0C234D105C1
:1012800009F07CC03EC0C136D10509F459C06CF4E8
:10129000C635D10509F45CC0C036D10509F44FC08C
:1012A000C535D10509F06AC039C0C437D10509F484
:1012B0004CC0C537D10509F454C0C436D10509F076
:1012C0005DC040C010923F0110923E011EC09EDCE6
:1012D000803209F065C084E174DC81E472DC86E56B
:1012E00070DC82E56EDC80E26CDC89E46ADC83E53C
:1012F00068DC80E566DC80E150C088DCDF91CF915E
:10130000D7CC84E190E089DCA3DCDF91CF91E5CC00
:1013100085E090E082DCF9CF5CDDF7CF77DCC82F89
:10132000D0E0D0934201C093410170DC382F20E01F
:101330002C0F3D1F3093420120934101E6CF66DC24
:1013400065DCE3CFDF91CF9128CFDF91CF9161CEE4
:10135000DF91CF919FCD10923F0110923E01F1DCC1
:10136000D4CFDF91CF91A3CD80913E0190913F01E9
:10137000019690933F0180933E010EC080913E0103
:1013800090913F01019690933F0180933E013EDC96
:10139000803211F482E101C085E1DF91CF9111CC5F
:1013A000DF91CF910895FC01208120682F7B20835D
:1013B00008950F931F93FB01908196FF0FC0292F73
:1013C0002695269526952770DB01A20FB11D15964F
:1013D0002C912583977C98609F7B03C097FF02C068
:1013E000907C908390819695969596959770DF0165
:1013F000A90FB11D15968C93292F2F5F2770220FEF
:10140000220F220F4081477C422B4083282F207CD3
:10141000342F3770203809F463C0203C09F045C0F0
:10142000282F2873269526952695332349F0990F62
:10143000990F990F477C492B406440839EEF01C070
:1014400090E0223098F4908196FB222720F9892F92
:10145000869586958695820F8770880F880F880FEE
:10146000977C982B9F7B90839FEF3FC0273059F448
:10147000082F0F7010E020E030E0018312832383F7
:10148000348325E00AC0482F477050E060E070E0E8
:101490004183528363837483215027708081887FC6
:1014A000822B8083992329F120C0032F10E0023082
:1014B000110524F1395F3770487F432B4083418108
:1014C00052816381748197E0440F551F661F771F17
:1014D0009A95D1F7482B418352836383748309C063
:1014E000313071F4982F9F739F5F80818068808373
:1014F00009C080818F77808390E004C09DEFF5CF95
:101500009CEFF3CF892F1F910F9108950F931F9395
:10151000CF93DF93EB014DDF1816B4F409811A81E4
:101520002B813C81A9016627772722273327402773
:101530005127622773274F3F5F4F6105710521F0E7
:101540008881806888838BEFDF91CF911F910F9105
:101550000895FA012CE130E097E0AB01022E02C0C1
:10156000569547950A94E2F7483028F0973059F499
:10157000408396E008C040839150411104C0275039
:101580003109923051F7492F42500DC0DF01A40FAD
:10159000B11D9B012F7733272C93660F672F661F92
:1015A000770B719541504111F1CF492F50E09A01CD
:1015B00063E0220F331F6A95E1F7206C3F6F3081A3
:1015C000322B3083E40FF51F319781508F73806881
:1015D0008083892F0895FC01208920FF02C05F9835
:1015E00008955F9A8BB180638BB90895CF93DF9391
:1015F00080E190E09093CD008093CC00CAECD0E0E5
:1016000096E09883A8ECB0E082E08C93E9ECF0E0FF
:1016100028E12083539A5A9A5B9A10821C9218826E
:1016200098838C9388E980835B98DF91CF910895AC
:101630001F93CF93DF93EC01E98DE150E23028F462
:10164000F0E0EC5CFE4F108101C010E0888D82302C
:1016500009F418608A8D873031F0883031F0863097
:1016600029F4126003C0146001C016605B9A1092E6
:10167000C9001092C8001092CA002C893D894E8979
:101680005F89211581EE38074105510579F0CA01BE
:10169000B901969587957795679560587B47814EF8
:1016A0009F4F0E94EA132150310902C020E130E02F
:1016B0003093CD002093CC001093CA008C899D8973
:1016C000AE89BF898115914EA105B10511F480E065
:1016D00001C082E08093C80088E98093C9005B98CC
:1016E0008C899D89AE89BF890197A105B10561F4F7
:1016F0007DDFE8E3F1E08FB7F89411821082128267
:10170000138214828FBF52DA80914001882321F026
:10171000DF91CF911F9115CBDF91CF911F916EC9B2
:10172000680F791F09C0FC012191CF013091C800D9
:1017300035FFFCCF2093CE0086179707A1F70895B9
:10174000BF92CF92DF92EF92FF920F931F93CF93AE
:10175000DF937C018B01EA01D7D1B82E811132C011
:10176000209731F028813981021B130BE20EF31E02
:10177000C12CD12C22C08091E80085FD14C080913D
:10178000E8008E778093E800209749F0888199815E
:101790008C0D9D1D9983888325E0B22E13C0B4D192
:1017A000882359F00EC0F70181917F018093F100E9
:1017B00001501109FFEFCF1ADF0A01151105D9F603
:1017C00001C0B82E8B2DDF91CF911F910F91FF900B
:1017D000EF90DF90CF90BF90089520915302309109
:1017E00054022617370748F06115710539F4209126
:1017F000E8002E772093E80001C0B9019C0180E049
:1018000034C090914C02992309F443C0953009F4F7
:1018100042C09091E80093FD3AC09091E80092FD9B
:1018200030C09091E80090FF20C08091F20090E0DD
:10183000F901821B930B05C021912093F1006150A7
:1018400071099F01280F391F6115710519F02830A2
:10185000310590F381E02830310509F080E0909166
:10186000E8009E779093E8009F016115710549F6A5
:101870008111C7CF06C080914C02882351F085307A
:1018800051F08091E80082FFF6CF80E0089581E07A
:10189000089582E0089583E008956115710529F4A3
:1018A0002091E8002B772093E8009C0121C08091D3
:1018B0004C02882381F1853041F18091E80083FD5D
:1018C00026C08091E80082FFF2CFF90107C0809125
:1018D000F10081939F016150710929F09F0180916E
:1018E000F2008111F4CF8091E8008B778093E800BB
:1018F00061157105E1F68091E80080FD0AC08091D4
:101900004C02882341F08530B1F783E0089581E0EF
:10191000089580E0089582E0089520915302309167
:1019200054022617370748F06115710539F42091E4
:10193000E8002E772093E80001C0B9019C0180E007
:1019400035C090914C02992309F444C0953009F4B4
:1019500043C09091E80093FD3BC09091E80092FD58
:1019600031C09091E80090FF21C08091F20090E09A
:10197000F901821B930B06C024912093F10031964C
:10198000615071099C012E0F3F1F6115710519F0FF
:101990002830310588F381E02830310509F080E0F6
:1019A0009091E8009E779093E8009F016115710582
:1019B00041F68111C6CF06C080914C02882351F0B8
:1019C000853051F08091E80082FFF6CF80E00895E5
:1019D00081E0089582E0089583E00895982F2CC057
:1019E0009093E900981739F07091EC002091ED0088
:1019F0005091F00003C0242F762F50E021FD02C04B
:101A00009F5F1AC03091EB003E7F3093EB00309126
:101A1000ED003D7F3093ED003091EB00316030936D
:101A2000EB007093EC002093ED005093F0002091B8
:101A3000EE0027FDE5CF07C0953090F28F708093C0
:101A4000E90081E0089580E008950F931F93CF93FC
:101A5000DF93062FEC0110E02EC09881911103C096
:101A60001F5F259628C02C81E981FA816B81892F1F
:101A70008F70853010F080E021C0223010F056E0E9
:101A800001C052E028E030E040E003C04F5F220F89
:101A9000331F2E173F07D0F34295407F452B991FE8
:101AA0009927991F6295660F660F607C692B96DFF8
:101AB0008111D6CFE0CF1013D0CF81E0DF91CF914D
:101AC0001F910F91089580914D0287FD05C080916F
:101AD000E80080FF0EC012C08091E80082FD05C0C2
:101AE00080914C028111F8CF08958091E8008B77A6
:101AF00008C080914C028111EACF08958091E800DE
:101B00008E778093E80008958091E4009091E5003D
:101B100045E62091EC0020FD1FC023C020914C021F
:101B2000222391F0253091F02091EB0025FD10C08B
:101B30002091E4003091E5002817390751F3415016
:101B4000C90139F784E0089582E0089583E008959B
:101B500081E0089580E008952091E80020FFDECF25
:101B6000F9CF2091E80022FFD9CFF4CF41D043D064
:101B70008091D8008F778093D8008091D8008068BA
:101B80008093D8008091D8008F7D8093D80084E026
:101B900089BD86E089BD09B400FEFDCF10924C02DC
:101BA0001092480210924A021092490242E060E00C
:101BB00080E014DF8091E1008E7F8093E1008091CE
:101BC000E20081608093E2008091E200886080936F
:101BD000E2008091E0008E7F8093E0000895E3E6CC
:101BE000F0E080818E7F808381E080934B02BECFC6
:101BF0001092E20008951092E10008951F920F9252
:101C00000FB60F9211242F933F934F935F936F93CF
:101C10007F938F939F93AF93BF93EF93FF938091A5
:101C2000E10082FF0BC08091E20082FF07C080913B
:101C3000E1008B7F8093E1000E94CA038091E10064
:101C400080FF18C08091E20080FF14C08091E20004
:101C50008E7F8093E2008091E20080618093E200B9
:101C60008091D80080628093D80019BC10924C02F9
:101C70000E9472038091E10084FF30C08091E200F5
:101C800084FF2CC084E089BD86E089BD09B400FED4
:101C9000FDCF8091D8008F7D8093D8008091E100A6
:101CA0008F7E8093E1008091E2008F7E8093E2003E
:101CB0008091E20081608093E20080914802882355
:101CC00011F084E007C08091E30087FF02C083E049
:101CD00001C081E080934C020E9471038091E10079
:101CE00083FF27C08091E20083FF23C08091E10041
:101CF000877F8093E10082E080934C02109248023B
:101D00008091E1008E7F8093E1008091E2008E7FE0
:101D10008093E2008091E20080618093E20042E0E3
:101D200060E080E05BDE8091F00088608093F000EE
:101D3000B8D1FF91EF91BF91AF919F918F917F911A
:101D40006F915F914F913F912F910F900FBE0F9028
:101D50001F9018951F920F920FB60F9211242F9378
:101D60003F934F935F936F937F938F939F93AF9323
:101D7000BF93CF93EF93FF938091E9008F70909181
:101D8000EC0090FF02C090E801C090E0C92FC82B82
:101D90001092E9008091F000877F8093F0007894A2
:101DA0001CD01092E9008091F00088608093F000D0
:101DB000CF70C093E900FF91EF91CF91BF91AF91A8
:101DC0009F918F917F916F915F914F913F912F9153
:101DD0000F900FBE0F901F9018951F93CF93DF9316
:101DE000CDB7DEB7AC970FB6F894DEBF0FBECDBF50
:101DF000EDE4F2E08091F100819322E0E535F20715
:101E0000C9F70E94C2038091E80083FF32C180912C
:101E10004D0290914E02953009F487C038F491300C
:101E2000B1F170F0933009F024C131C0983009F459
:101E3000F4C0993009F400C1963009F01AC19BC072
:101E4000803821F0823809F014C108C0809149021D
:101E500090914A02992389F082600FC080915102CB
:101E6000909152028F7099278093E9008091EB0046
:101E700085FB882780F91092E9009091E800977F10
:101E80009093E8008093F1001092F100D1C0882374
:101E900019F0823009F0EDC08F7121F0823009F025
:101EA000E8C00BC080914F02813009F0E2C093304E
:101EB00009F080E080934A022FC080914F02811187
:101EC0002BC080915102909152028F7099270097F8
:101ED00009F4CFC08093E9002091EB0020FF1CC0E3
:101EE00020914E02233021F48091EB00806212C0D9
:101EF0009091EB0090619093EB0021E030E001C005
:101F0000220F8A95EAF72093EA001092EA00809166
:101F1000EB0088608093EB001092E9008091E8006C
:101F2000877F8093E800CFDDA4C08111A2C080919B
:101F30004F02909150028F779927182F9091E300CC
:101F40009078982B9093E3008091E800877F8093AE
:101F5000E800B9DD8091E80080FFFCCF8091E300CC
:101F600080688093E300112311F083E001C082E0D8
:101F700080934C027EC08058823008F07AC08091F5
:101F80004F02909150028C3D23E0920771F583E05F
:101F90008A838AE289834FB7F894DE01139620E0A2
:101FA0003EE051E2E32FF0E050935700E49120FF30
:101FB00003C0E295EF703F5FEF708E2F90E0EA3044
:101FC00010F0C79601C0C0968D939D932F5F24316A
:101FD00049F74FBF8091E800877F8093E8006AE26D
:101FE00070E0CE010196F9DB12C0AE01455D5F4F96
:101FF000609151020E94D6030097D9F12091E80028
:10200000277F2093E800BC018BA59CA586DC8091EE
:10201000E8008B778093E8002CC0803851F58091E0
:10202000E800877F8093E800809148028093F10068
:102030008091E8008E7775CF81111BC090914F027F
:102040009230B8F48091E800877F8093E800909305
:10205000480239DD80914802811104C08091E3007B
:1020600087FF02C084E001C081E080934C020E949F
:1020700073038091E80083FF0AC08091E800877FA6
:102080008093E8008091EB0080628093EB00AC9637
:102090000FB6F894DEBF0FBECDBFDF91CF911F9179
:1020A00008950895CF9380914C028823A9F08091E0
:1020B000E9008F709091EC0090FF02C090E801C0A1
:1020C00090E0C92FC82B1092E9008091E80083FDB1
:1020D00084DECF70C093E900CF910895CF93DF9352
:1020E000EC014096FC018BE0DF011D928A95E9F737
:1020F00082E08C83898783E08E8761E0CE01019640
:10210000A4DC882361F061E0CE0106969EDC882382
:1021100031F061E0CE010B96DF91CF9196CC80E05B
:10212000DF91CF910895CF93C62F20914C02243098
:10213000F1F4FC014489558966897789452B462B42
:10214000472BA9F081818F708093E9008091E8008E
:1021500085FF04C0C093F10080E00AC08091E800D0
:102160008E778093E800D0DC8823A1F301C082E061
:10217000CF91089520914C02243029F5FC01448927
:10218000558966897789452B462B472BE1F081815C
:102190008F708093E9008091F200811102C080E08D
:1021A00008959091E8008091E8008E778093E80090
:1021B00095FDF5CFA9DC811107C09091E8009E77CD
:1021C0009093E800089582E0089520914C02243015
:1021D00089F4FC014489558966897789452B462B0A
:1021E000472B41F021812F702093E9002091E800D6
:1021F00020FDC0CF089520914C02243019F02FEF1C
:102200003FEF24C0FC014489558966897789452BB5
:10221000462B472BA1F386818F708093E900809134
:10222000E80082FFECCF8091F200882321F020911A
:10223000F10030E002C02FEF3FEF8091F2008111FA
:1022400005C08091E8008B778093E800C90108956C
:102250000895CF93DF93EC018091E80083FFA7C03E
:10226000888190E02091510230915202281739075D
:1022700009F09DC080914E02813261F020F48032DD
:1022800009F095C03DC0823209F46DC0833209F077
:102290008EC07DC080914D02813A09F088C0809146
:1022A000E800877F8093E8008091E80080FFFCCF02
:1022B0004C895D896E897F894093F100BB27A72FE8
:1022C000962F852F8093F100CB01AA27BB278093FF
:1022D000F100472F5527662777274093F100888D17
:1022E0008093F100898D8093F1008A8D8093F100B5
:1022F0008091E8008E778093E800DF91CF91E3CB67
:1023000080914D02813209F052C08091E800877FB0
:102310008093E80005C080914C02882309F447C0EF
:102320008091E80082FFF7CF3091F1002091F10019
:102330009091F1008091F1003C8B2D8B9E8B8F8BC7
:102340008091F100888F8091F100898F8091F10058
:102350008A8F8091E8008B778093E800B4DBCE0110
:10236000DF91CF9165C980914D02813201F5809155
:10237000E800877F8093E800A6DB80914F02909170
:102380005002998B888BCE01DF91CF9124C9809127
:102390004D02813261F48091E800877F8093E800EC
:1023A00092DB60914F02CE01DF91CF9151CFDF914F
:1023B000CF9108956F927F928F929F92AF92BF922A
:1023C000CF92DF92EF92FF920F931F93CF93DF9301
:1023D00000D01F92CDB7DEB77C01ADB6BEB68091FE
:1023E000E80083FF07C1F701808190E0209151024E
:1023F000309152022817390709F0FCC080914E0233
:10240000833009F49EC030F4813071F0823009F0DD
:10241000F1C0D4C08A3009F4B9C08B3009F4A2C02D
:10242000893009F0E7C04CC080914D02813A09F033
:10243000E1C08DB69EB61A82198280914F0210912A
:1024400050028B83F70140858DB79EB7841B91099D
:102450000FB6F8949EBF0FBE8DBFCDB6DEB6EFEFC0
:10246000CE1ADE0A360150E060E070E0C601EAD123
:10247000412F41508E010F5F1F4F9601BE016D5FCE
:102480007F4FC7010E946904F7012681378121151A
:10249000310529F0408550E0B601C901CAD110923A
:1024A000E9008091E800877F8093E80069817A8164
:1024B000C30193D98091E8008B778093E80039C0FD
:1024C00080914D02813209F095C08DB69EB6009183
:1024D00053021091540270904F02609050028DB7D9
:1024E0009EB7801B910B0FB6F8949EBF0FBE8DBF99
:1024F000CDB6DEB6EFEFCE1ADE0A8091E800877F18
:102500008093E800B801C601C8D98091E8008E77B1
:102510008093E80021E0711001C020E030E0021B50
:10252000130B2C0D3D1D462D4150672DC7010E94F8
:10253000AA04882D992D0FB6F8949EBF0FBE8DBFAB
:1025400059C080914D02813A09F054C08091E80051
:10255000877F8093E8008091E80080FFFCCFF7013F
:10256000818540C080914D02813209F043C0809145
:10257000E800877F8093E800A6DA90914F0281E01F
:10258000911101C080E0F701818734C080914D0234
:10259000813281F58091E800877F8093E80093DAAB
:1025A00080914F0290915002882736E0969587954A
:1025B0003A95E1F7F701958784871CC080914D0219
:1025C000813AC1F48091E800877F8093E800809190
:1025D000E80080FFFCCFF701848595859695879567
:1025E000969587958093F1008091E8008E7780938F
:1025F000E80069DA0FB6F894BEBE0FBEADBE0F900C
:102600000F900F90DF91CF911F910F91FF90EF905E
:10261000DF90CF90BF90AF909F908F907F906F9002
:1026200008959C01275F3F4FF90127E0DF011D92CC
:102630002A95E9F721E0FC01218724EF31E0358775
:10264000248723E0248361E00196FFC94F925F92C3
:102650006F927F928F929F92AF92BF92CF92DF92B2
:10266000EF92FF920F931F93CF93DF9300D01F92AF
:10267000CDB7DEB77C01ADB6BEB680914C028430DA
:1026800009F08FC08091E4009091E500F701228568
:1026900033852817390709F484C081818F708093AE
:1026A000E9008091E80085FF7CC06DB67EB640856C
:1026B0008DB79EB7841B91090FB6F8949EBF0FBECD
:1026C0008DBFCDB6DEB6EFEFCE1ADE0A1B821A82C0
:1026D0001982460150E060E070E0C601B3D08E017F
:1026E0000F5F1F4F960140E0BE016D5F7F4FC70136
:1026F0000E946904582EF70184859585892B31F055
:1027000001E010E086859785892B11F000E010E04C
:10271000F701C680D780C114D10489F049815A815C
:10272000B601C40179D044244394009709F4412CA4
:10273000F701408550E0B401C6017BD001C0412CB7
:1027400089819A81892BF9F0511004C0411002C08F
:1027500000FF19C0F7018485958597878687818159
:102760008F708093E9008B8181118093F1006981E2
:102770007A8140E050E0C4010E94A00B8091E80003
:102780008E778093E8008091E4009091E500F70156
:1027900093878287862D972D0FB6F8949EBF0FBE24
:1027A0008DBF0FB6F894BEBE0FBEADBE0F900F909A
:1027B0000F90DF91CF911F910F91FF90EF90DF90DD
:1027C000CF90BF90AF909F908F907F906F905F90D1
:1027D0004F900895A1E21A2EAA1BBB1BFD010DC04C
:1027E000AA1FBB1FEE1FFF1FA217B307E407F507C1
:1027F00020F0A21BB30BE40BF50B661F771F881F9D
:10280000991F1A9469F760957095809590959B0132
:10281000AC01BD01CF010895FB01DC0104C08D9125
:102820000190801921F441505040C8F7881B990B42
:102830000895FB01DC0102C001900D92415050400F
:10284000D8F70895DC0101C06D9341505040E0F786
:062850000895F894FFCF8B
:1028560002811000000100003F000000000000009F
:1028660000834000000104400000018208000001CE
:10287600000000000000000000000004083F0801FE
:06288600111103033020D4
:00000001FF
