:1000000073C100008DC100008BC1000089C10000D8
:1000100087C1000085C1000083C1000081C10000CC
:100020007FC100007DC100007BC100000C942F0E39
:100030000C94DB0E75C1000073C1000071C100009B
:100040006FC100006DC100006BC1000069C10000FC
:1000500067C1000065C1000063C100004AC3000021
:100060005FC100005DC100005BC1000059C100001C
:1000700057C1000030034100720064007500690040
:100080006E006F00200048006F006F0064006C007D
:100090006F0061006400650072002000420065008E
:1000A00074006100000012034E00690063006F00DD
:1000B00048006F006F006400000004030904090297
:1000C0005F00030100C032080B00020202010009B8
:1000D00004000001020201000524001001042402B2
:1000E000060524060001070582030800FF09040134
:1000F00000020A0000000705040240000107058312
:10010000024000010904020001030000000921115E
:1001100001000122B801070581031000011201103E
:1001200001EF020108EB03686E80010102DC0105AA
:10013000010902A1010901A100850105091901298F
:10014000051500250195057501810295017503814D
:100150000305010930093109381581257F75089596
:10016000038106C0C005010906A101850205071922
:10017000E029E715002501750195088102950175B3
:1001800008810395067508150025650507190029DE
:1001900065810005081901290595057501910295EC
:1001A0000175039103C006C0FF0A000CA10185037D
:1001B0007508150026FF00950F09018102950F09AA
:1001C000029102C0050C0901A1018504150026FF5A
:1001D0000319002AFF03950475108100C005010969
:1001E00080A1018505150026FF00190029FF950152
:1001F00075088100C005010904A1018506050919DA
:10020000012920150025017501952081020501A114
:10021000000930093109320933093409351500273D
:10022000FFFF0000751095068102C005010939091C
:100230003915012508950275048102C005010904DC
:10024000A10185070509190129201500250175015E
:10025000952081020501A1000930093109320933D5
:1002600009340935150027FFFF0000751095068138
:1002700002C0093909391501250895027504810262
:10028000C005010904A1018508A10005091901297A
:100290000215002501750195028102050109300949
:1002A00031150026FF03750A95028102750295013A
:1002B0008103C0C005010904A1018509A100050948
:1002C0001901290215002501750195028102050118
:1002D00009300931150026FF03750A950281027560
:1002E0000295018103C0C00011241FBECFEFD2E0F0
:1002F000DEBFCDBF11E0A0E0B1E0E8EBF8E202C064
:1003000005900D92A633B107D9F711E0A6E3B1E04D
:1003100001C01D92AC3FB107E1F76CD00C945A14A8
:100320006FCEE6E3F1E05FB7F894208131812115CB
:10033000310519F04481411104C05FBF2FEF3FEF39
:1003400011C0828190E0841B910997FF03C06381F3
:10035000860F911DD901A80FB91F2C9141504483DC
:100360005FBF30E0C9010895E6E3F1E04FB7F894CC
:10037000208131812115310509F41DC0828190E071
:100380005481851B9109019797FF03C05381850F05
:10039000911DD901A80FB91F6C9384819381891392
:1003A00008C09281911101C0828382818150828331
:1003B00002C08F5F84834FBF089584B7877F84BF57
:1003C00088E10FB6F89480936000109260000FBE31
:1003D0000E94310B8AB180638AB98BB180638BB97B
:1003E0000E94200E84E085BD5F9A579A2098259838
:1003F0002D9A0895E6E3F1E02FB7F8948BE391E0AE
:1004000091838083128280E8838314822FBF1092AD
:10041000BB0184EE91E00E940E0A1092C501AED39A
:10042000E3D3CBDF78948091BE01811106C083B104
:10043000807283B9811101C0DCD280E191E00E9419
:100440002C1197FD1BC04091240150912501609112
:10045000260170912701413051056105710511F4A4
:1004600018D70CC05C989091C5019C609093C50111
:100470009091C80095FFFCCF8093CE008091BE0183
:10048000882319F0A89999C01DC12FB7F8948091BD
:10049000360190913701892B19F080913A0101C002
:1004A00080E02FBF90E0009769F35D982091C5012F
:1004B00023602093C501209111012F702093E90042
:1004C0002091E80020FFDECF8034910510F08FE30B
:1004D00090E0182FC0E0D0E06DC080912401909191
:1004E0002501A0912601B09127012091BB01222373
:1004F00029F08091BB01811111C016C08230910595
:10050000A105B10528F08115924CA140B10589F7EC
:1005100093B1907293B9992361F347C08091C5015B
:1005200080638093C50101C064D28091200180FD69
:100530000CC08091BB01882341F086E391E0F1DE9D
:100540008091BB0181112DC034C07FB7F8942091F8
:100550003601309137012115310541F040913A01C2
:10056000442321F050E01416150624F07FBF6FEFEE
:100570007FEF10C08091380190E0841B950B97FFAE
:1005800004C040913901840F911DF901E80FF91F52
:1005900060817FBF80E191E00E94C410882369F2EE
:1005A00071CF81508093BB0104C086E391E0B9DE36
:1005B00064D221961C1391CF65CFA89A9091C50162
:1005C000892F807309F45CC0892F82958F708D5FAD
:1005D0008370282F2295207F9F7C922B9093C501BA
:1005E00081114EC08091BE0181114AC0E091E401A9
:1005F000E6FF15C0E695E695E695E770F0E0E75171
:10060000FE4F608186E391E0AFDE8091E40186FBDE
:10061000882780F99091BB01890F8093BB010091DD
:10062000E40107FD29C00695069506950770C0E010
:10063000D0E010E086E3E82E81E0F82EE00EF11E17
:1006400009C0F701EC0FFD1FED54FF4F608186E3F9
:1006500091E08ADE2197CE018095909580179107D1
:1006600084F38091E40186958695869587709091B4
:10067000BB01890F8093BB0184EE91E0CFD6C9D135
:100680009091C501892F837049F0815083709C7FC0
:10069000982B9093C501811101C05D9A9091C5017D
:1006A000892F8C7079F0892F869586958D5F837060
:1006B000282F220F220F937F922B9093C501811137
:1006C00001C05C9A80E191E00E9416110E948310A3
:1006D000AACE0895089580E091E00E94421380E13F
:1006E00091E00E949F10E2EEF0E0808184608083C0
:1006F00008951F920F920FB60F9211242F933F93DC
:100700004F935F938F939F93AF93BF93EF93FF9319
:100710004091CE008091BE01811121C08091F301F2
:100720008430E9F4E6E3F1E02FB7F8948081918119
:100730000097A1F054813381531301C00FC032815F
:10074000DC01A30FB11D4C93832F8F5F82839381B4
:10075000891301C0128284818F5F84832FBFFF9130
:10076000EF91BF91AF919F918F915F914F913F9189
:100770002F910F900FBE0F901F90189580E191E080
:100780000E945A1180E091E00C940B1280910E01AE
:1007900090910F01009729F0019790930F0180939A
:1007A0000E010895292F332723303105B1F04CF481
:1007B0002130310509F439C02230310509F03AC041
:1007C00007C02132310539F12232310549F132C0F9
:1007D000EFE5F0E08EEB90E031C099278130910594
:1007E00061F08230910581F0892B21F5EAEBF0E090
:1007F000E491F0E08AEB90E021C0E6EAF0E0E491D9
:10080000F0E086EA90E01AC0E4E7F0E0E491F0E07E
:1008100084E790E013C0E9E0F0E08DE091E00EC0E5
:10082000E8EBF1E08FE291E009C0E2E1F0E08DE178
:1008300091E004C0E0E0F0E080E090E0DA018D9328
:100840009C93CF010895FF920F931F93CF93DF9353
:1008500020E030E050E0640F751FC6E3D1E02CC00B
:10086000FB01E21BF30B31970081FE011FB7F894E7
:10087000A081B181109709F41CC0828190E0F480BE
:100880008F199109019797FF03C0F3808F0D911D78
:10089000A80FB91F0C9384819381891308C092819A
:1008A000911101C0828382818150828302C08F5F57
:1008B00084831FBF2F5F3F4F241735078CF2DF91D2
:1008C000CF911F910F91FF900895EF92FF920F9398
:1008D0001F93CF93DF937B01C901E8012091BE01F3
:1008E000222331F0F70110821982188280E026C09D
:1008F00043B1407243B94423A9F3E091C601E33008
:1009000031F01092DA01F0E0E652FE4F1082409191
:10091000C701E9ECF1E050E0BF010E944A14809168
:10092000C601F70180838091C701888319821092E4
:10093000C6011092C8011092C70181E0DF91CF91EA
:100940001F910F91FF90EF9008950F931F93C9018E
:10095000633051F45C982091C5012C602093C5014F
:10096000B8011F910F910DC71F910F91089504C0F9
:1009700080E091E00E9457138091C601882331F0F6
:100980009091C7018091C801981791F30895815003
:10099000893030F4E82FF0E0E55DFE4F8081089566
:1009A00080E008951F93CF93DF93182FC82FD0E0D6
:1009B000C652DE4F8881811118C01330B1F0812FEB
:1009C000E6DF882391F08093C8018093C7011093DC
:1009D000C60129EC31E0482F50E060E070E0C90129
:1009E0000E945314C4DF81E08883DF91CF911F916F
:1009F0000895CF938091DA01811109C0C1E08C2F55
:100A0000D1DFCF5FCA30D9F781E08093DA01CF918F
:100A100008951F93CF93DF9300D000D000D0CDB7BF
:100A2000DEB76091C6016623C1F08091C8018111D3
:100A300014C070E07160AE014F5F5F4F81E0C4D5BC
:100A4000182F482FBE016F5F7F4F86E391E0FBDEDA
:100A50009091BB01910F9093BB011092C60110922F
:100A6000C8011092C70126960FB6F894DEBF0FBEDC
:100A7000CDBFDF91CF911F9108959091C5019063F3
:100A80009093C50164EE71E07CD5882309F475C0AC
:100A900087FF18C0BEDF4091E40146954695469514
:100AA000477069EE71E086E391E0CDDE8091E4016C
:100AB00086958695869587709091BB01890F809366
:100AC000BB010895813089F49091E601913069F479
:100AD000A0DF8091E5018093C6011092C80157DF25
:100AE0008093C701811149C047C09091C6019923E5
:100AF00069F16091C801462F50E0992787FD9095D4
:100B00009A012E5F3F4F359527952F5F3F4F8217F4
:100B10009307E1F48091E5019091E601FA01E75332
:100B2000FE4F8083E62FEF5FE093C8018091C701FD
:100B30008E1739F0F0E0E753FE4F90836E5F6093BD
:100B4000C8019091C801891318C011CF4091E401E8
:100B5000469546954695477069EE71E086E391E0CB
:100B600072DE8091E40186958695869587709091D6
:100B7000BB01890F8093BB014CCF08951092C60131
:100B80001092C8011092C7014AE050E061E070E0A5
:100B90008AED91E00C9453149BB1809589238BB915
:100BA0000895E6E3F1E05FB7F894208131812115E3
:100BB000310519F04481411104C05FBF2FEF3FEFB1
:100BC00011C0828190E0841B910997FF03C063816B
:100BD000860F911DD901A80FB91F2C914150448354
:100BE0005FBF30E0C90108951092BD011092BC01B1
:100BF0001092BE011092C0011092BF010895682F9B
:100C000080E191E00E94C4108823E9F080E191E046
:100C10000E9416110E94831080E1BEDF2FEF81EE4B
:100C200094E0215080409040E1F700C0000080E156
:100C3000B3DF2FEF81EE94E0215080409040E1F748
:100C400000C00000E9CF089580E191E00E942C11DE
:100C500097FDFACF0895EF92FF920F931F93CF93D2
:100C6000DF937C010BE311E0C0E0D0E005C0ECDFD6
:100C7000F80181938F012196CE15DF05C4F3DF9132
:100C8000CF911F910F91FF90EF9008950F931F93B5
:100C9000CF93DF93CCE0D0E0D7DF2197E9F7C4E032
:100CA000D0E006E311E0D0DFF8019FB7F89420818F
:100CB000318121153105A1F054814381541301C0C4
:100CC0000FC04281D901A40FB11D8C93842F8F5F77
:100CD00082832381821301C0128284818F5F848387
:100CE0009FBF219701F786E391E05BDFC82F86E382
:100CF00091E057DF3C2F20E0820F931F9093C201B9
:100D00008093C10186E391E04CDFC82F86E391E038
:100D100048DF3C2F20E0820F931F9093C401809303
:100D2000C30192DF91DF90DFDF91CF911F910F918F
:100D30008BCFCF93C82F88DF803239F484E15FDF17
:100D40008C2F5DDF80E1CF915ACF85E158DF809114
:100D5000BC019091BD0101969093BD018093BC01AF
:100D6000CF910895813859F018F4803871F405C096
:100D7000823839F0833949F406C082E007C081E047
:100D800005C082E103C083E501C080E0D2CF5CDF13
:100D9000803221F484E133DF80E131CF80E2FCDE78
:100DA0002FEF80E792E0215080409040E1F700C0B3
:100DB00000005D9A2FEF80E792E021508040904044
:100DC000E1F700C0000080E2E7DE2FEF80E792E06D
:100DD000215080409040E1F700C000005D9A85E11D
:100DE0000EDF8091BC019091BD0101969093BD01F1
:100DF0008093BC01089523982298219824982098E4
:100E0000E6E3F1E08FB7F894128214828FBF10925C
:100E1000BE01B4DE1092BB0184EE91E0FFC283E517
:100E20008CBD8DB58EB508950DB407FEFDCF089528
:100E30008EBDFADF8EB50895CF93DF9300D01F9259
:100E4000CDB7DEB72B834A836983F2DF6981862FB2
:100E5000EFDF4A81842FECDF2B81822F0F900F90E0
:100E60000F90DF91CF91E4CF209A289AD8DF249A6F
:100E70002C9A219A29982FEF80E792E02150804008
:100E80009040E1F700C000002C982FEF80E792E03F
:100E9000215080409040E1F700C000002398229A42
:100EA00020E040E063E58CEAC7DF81E08093BE018B
:100EB000E6E3F1E08FB7F894128214828FBF0895B1
:100EC0005D9A20E0482F692F8CE4B6DF2FEF86E78C
:100ED00091E0215080409040E1F700C0000080E2A6
:100EE0005BCEB2DE803259F08091BC019091BD01A1
:100EF00001969093BD018093BC0185E115C084E10A
:100F00007EDE20E040E060E080E396DF78DE20E0F7
:100F100041E060E080E390DF72DE20E042E060E0EC
:100F200080E38ADF6CDE80E16ACE84E090E093DECD
:100F300020913E0140913D0160913C0180913B0137
:100F40007BDFF7CE962F672F242F880F880F880F0F
:100F5000492F805C71CF8091C1019091C201209195
:100F6000BF013091C0018032910511F4207F0EC085
:100F70008034910511F4207E09C08038910511F468
:100F8000207C04C08115914009F42078C90108959E
:100F9000462F880F880F880F20E0672F805E4CCF88
:100FA0000F931F93CF93DF938C01C0E0D0E019C063
:100FB0006091BF017091C00180E0EADF20DE6091A6
:100FC000BF017091C00181E0E3DF19DE2091BF0114
:100FD0003091C0012F5F3F4F3093C0012093BF017C
:100FE0002296C017D10724F380E1DF91CF911F91A2
:100FF0000F910895EF92FF920F931F93CF93DF937A
:101000007C010091BF011091C001000F111FE80188
:1010100007C02FEF4C2F6D2F80EA0EDFF0DD2196F9
:10102000CE01801B910B8E159F059CF380E1DF9113
:10103000CF911F910F91FF90EF9008951F93CF9341
:10104000DF9302DED82F00DEC82FFEDD182FFCDD77
:10105000803259F08091BC019091BD01019690932E
:10106000BD018093BC0185E113C03D2F20E0C90183
:101070008C0F911DEC0184E1C2DD163419F4CE0110
:101080008FDF06C0153419F4CE01B4DF01C081E151
:10109000DF91CF911F91B3CDCF92DF92EF92FF926C
:1010A0000F931F93CF93DF937B01CB01D4DD53DFED
:1010B0008C01C0E0D0E029C04EDF0817190721F0ED
:1010C000C801FEDE48DF8C0196E3C92E91E0D92EDF
:1010D000CC0EDD1E6091BF017091C001F60145810B
:1010E00080E030DF22966091BF017091C001F6016F
:1010F000468181E027DF2091BF013091C0012F5F41
:101100003F4F3093C0012093BF01CE15DF05A4F2FD
:10111000C801D6DE80E1DF91CF911F910F91FF9042
:10112000EF90DF90CF9008950F931F93CF93DF93AD
:10113000C091BF01D091C001CC0FDD1F8C0108C050
:1011400060E870E0CE01A8DFC058DF4F00581109F9
:1011500001381105A8F7B801CE019EDF80E1DF91CB
:10116000CF911F910F910895CF92DF92EF92FF924E
:101170000F931F93CF93DF93D82FC92F7B01CB0100
:101180006ADD5D9A3BE3C32E31E0D32E0D2F1C2F79
:10119000E80111C0F60121916F014C2F6D2F80ECF9
:1011A0004BDEFFE722E382E0F15020408040E1F790
:1011B00000C000002196CE01801B910B8E159F056B
:1011C0004CF380E2E9DC80E1DF91CF911F910F9138
:1011D000FF90EF90DF90CF9008950F931F93CF93E0
:1011E000DF93C091BF01D091C0012091C301309124
:1011F000C4012817390724F0CC0FDD1F8C0113C060
:101200008091BC019091BD0101969093BD018093A6
:10121000BC0181E10FC060E870E0CE01A5DFC058DD
:10122000DF4F0058110901381105A8F7B801CE01A8
:101230009BDF80E1DF91CF911F910F910895CF93B4
:10124000DF9302DDD82F80E0C82FFEDCC80FD11D50
:10125000FBDC863419F4CE0167DF04C08534A9F4C1
:10126000CE01BBDFC82FF0DC803221F484E1C7DC83
:101270008C2F0CC08091BC019091BD010196909380
:10128000BD018093BC0185E101C081E1DF91CF9177
:10129000B6CCCF93DF93EC018091BE01882319F087
:1012A00080E27ADC01C05D9A8091BC019091BD0121
:1012B000892B19F080E170DC01C05C9AD7FDABC0CE
:1012C000C135D10509F482C0E4F4C134D10509F473
:1012D00052C054F4C033D10599F1C133D105A9F1FD
:1012E000A09709F086C07BC0C534D10509F44BC076
:1012F000C035D10509F44BC0C234D10509F079C01D
:101300003EC0C136D10509F456C06CF4C635D105CE
:1013100009F459C0C036D10509F44CC0C535D10512
:1013200009F067C036C0C437D10509F449C0C537D4
:10133000D10509F451C0C436D10509F05AC03DC0E9
:101340001092BD011092BC011BC07EDC803209F0FE
:1013500062C084E154DC81E452DC86E550DC82E545
:101360004EDC80E24CDC89E44ADC83E548DC80E545
:1013700046DC80E14DC068DCDF91CF91F3CC86DCA8
:10138000DF91CF9104CD85E090E065DCF9CF6CDD95
:10139000F7CF5ADCC82FD0E0D093C001C093BF0173
:1013A00053DC382F20E02C0F3D1F3093C0012093D9
:1013B000BF01E6CF49DC48DCE3CFDF91CF913FCFDF
:1013C000DF91CF913BCEDF91CF91AFCD1092BD0198
:1013D0001092BC0110DDD4CFDF91CF9182CD8091EE
:1013E000BC019091BD0101969093BD018093BC0119
:1013F0000EC08091BC019091BD0101969093BD01FA
:101400008093BC0121DC803211F482E101C085E1CE
:10141000DF91CF91F4CBDF91CF910895FC01208132
:1014200020682F7B208308950F931F93FB019081E9
:1014300096FF0FC0292F2695269526952770DB014C
:10144000A20FB11D15962C912583977C98609F7BE8
:1014500003C097FF02C0907C9083908196959695EB
:1014600096959770DF01A90FB11D15968C93292FC2
:101470002F5F2770220F220F220F4081477C422BC3
:101480004083282F207C342F3770203809F463C024
:10149000203C09F045C0282F2873269526952695CF
:1014A000332349F0990F990F990F477C492B4064DA
:1014B00040839EEF01C090E0223098F4908196FB2B
:1014C000222720F9892F869586958695820F877029
:1014D000880F880F880F977C982B9F7B90839FEFB6
:1014E0003FC0273059F4082F0F7010E020E030E0A3
:1014F000018312832383348325E00AC0482F477079
:1015000050E060E070E04183528363837483215034
:1015100027708081887F822B8083992329F120C0C6
:10152000032F10E00230110524F1395F3770487F36
:10153000432B4083418152816381748197E0440F42
:10154000551F661F771F9A95D1F7482B4183528309
:101550006383748309C0313071F4982F9F739F5F48
:1015600080818068808309C080818F77808390E04C
:1015700004C09DEFF5CF9CEFF3CF892F1F910F9102
:1015800008950F931F93CF93DF93EB014DDF181650
:10159000B4F409811A812B813C81A9016627772740
:1015A0002227332740275127622773274F3F5F4F5A
:1015B0006105710521F08881806888838BEFDF9158
:1015C000CF911F910F910895FA012CE130E097E03F
:1015D000AB01022E02C0569547950A94E2F74830B7
:1015E00028F0973059F4408396E008C0408391502A
:1015F000411104C027503109923051F7492F425010
:101600000DC0DF01A40FB11D9B012F7733272C9351
:10161000660F672F661F770B719541504111F1CF0F
:10162000492F50E09A0163E0220F331F6A95E1F7DA
:10163000206C3F6F3081322B3083E40FF51F3197E0
:1016400081508F7380688083892F0895FC012089E1
:1016500020FF02C05F9808955F9A8BB180638BB9B9
:101660000895CF93DF9380E190E09093CD00809335
:10167000CC00CAECD0E096E09883A8ECB0E082E021
:101680008C93E9ECF0E028E12083539A5A9A5B9A14
:1016900010821C92188298838C9388E980835B98CF
:1016A000DF91CF9108951F93CF93DF93EC01E98DE4
:1016B000E150E23028F4F0E0EC5CFE4F108101C014
:1016C00010E0888D823009F418608A8D873031F0FF
:1016D000883031F0863029F4126003C0146001C0F4
:1016E00016605B9A1092C9001092C8001092CA004E
:1016F0002C893D894E895F89211581EE3807410586
:10170000510579F0CA01B901969587957795679546
:1017100060587B47814E9F4F0E941B142150310916
:1017200002C020E130E03093CD002093CC00109334
:10173000CA008C899D89AE89BF898115914EA1050A
:10174000B10511F480E001C082E08093C80088E90F
:101750008093C9005B988C899D89AE89BF89019768
:10176000A105B10511F47DDF3FDA8091BE01882328
:1017700021F0DF91CF911F913ECBDF91CF911F914F
:1017800038C9680F791F09C0FC012191CF01309140
:10179000C80035FFFCCF2093CE0086179707A1F72E
:1017A0000895BF92CF92DF92EF92FF920F931F9313
:1017B000CF93DF937C018B01EA01D7D1B82E811141
:1017C00032C0209731F028813981021B130BE20EC1
:1017D000F31EC12CD12C22C08091E80085FD14C0DD
:1017E0008091E8008E778093E800209749F0888107
:1017F00099818C0D9D1D9983888325E0B22E13C09D
:10180000B4D1882359F00EC0F70181917F018093F4
:10181000F10001501109FFEFCF1ADF0A0115110580
:10182000D9F601C0B82E8B2DDF91CF911F910F916A
:10183000FF90EF90DF90CF90BF9008952091FA0134
:101840003091FB012617370748F06115710539F40F
:101850002091E8002E772093E80001C0B9019C0197
:1018600080E034C09091F301992309F443C095308E
:1018700009F442C09091E80093FD3AC09091E800CD
:1018800092FD30C09091E80090FF20C08091F2005E
:1018900090E0F901821B930B05C021912093F10088
:1018A000615071099F01280F391F6115710519F0E9
:1018B0002830310590F381E02830310509F080E0CF
:1018C0009091E8009E779093E8009F016115710563
:1018D00049F68111C7CF06C08091F301882351F0EA
:1018E000853051F08091E80082FFF6CF80E00895C6
:1018F00081E0089582E0089583E0089561157105FF
:1019000029F42091E8002B772093E8009C0121C066
:101910008091F301882381F1853041F18091E800C5
:1019200083FD26C08091E80082FFF2CFF90107C055
:101930008091F10081939F016150710929F09F010D
:101940008091F2008111F4CF8091E8008B77809331
:10195000E80061157105E1F68091E80080FD0AC09C
:101960008091F301882341F08530B1F783E0089539
:1019700081E0089580E0089582E008952091FA01C1
:101980003091FB012617370748F06115710539F4CE
:101990002091E8002E772093E80001C0B9019C0156
:1019A00080E035C09091F301992309F444C095304B
:1019B00009F443C09091E80093FD3BC09091E8008A
:1019C00092FD31C09091E80090FF21C08091F2001B
:1019D00090E0F901821B930B06C024912093F10043
:1019E0003196615071099C012E0F3F1F61157105E1
:1019F00019F02830310588F381E02830310509F0ED
:101A000080E09091E8009E779093E8009F01611537
:101A1000710541F68111C6CF06C08091F30188237C
:101A200051F0853051F08091E80082FFF6CF80E0E0
:101A3000089581E0089582E0089583E00895982F45
:101A40002CC09093E900981739F07091EC00209128
:101A5000ED005091F00003C0242F762F50E021FDBF
:101A600002C09F5F1AC03091EB003E7F3093EB00C5
:101A70003091ED003D7F3093ED003091EB0031600F
:101A80003093EB007093EC002093ED005093F00046
:101A90002091EE0027FDE5CF07C0953090F28F70C2
:101AA0008093E90081E0089580E008950F931F93EB
:101AB000CF93DF93062FEC0110E02EC09881911197
:101AC00003C01F5F259628C02C81E981FA816B81B4
:101AD000892F8F70853010F080E021C0223010F007
:101AE00056E001C052E028E030E040E003C04F5F24
:101AF000220F331F2E173F07D0F34295407F452B0F
:101B0000991F9927991F6295660F660F607C692B54
:101B100096DF8111D6CFE0CF1013D0CF81E0DF91D7
:101B2000CF911F910F9108958091F40187FD05C019
:101B30008091E80080FF0EC012C08091E80082FD15
:101B400005C08091F3018111F8CF08958091E800DC
:101B50008B7708C08091F3018111EACF08958091BD
:101B6000E8008E778093E80008958091E4009091DA
:101B7000E50045E62091EC0020FD1FC023C0209128
:101B8000F301222391F0253091F02091EB0025FD07
:101B900010C02091E4003091E5002817390751F377
:101BA0004150C90139F784E0089582E0089583E047
:101BB000089581E0089580E008952091E80020FFD5
:101BC000DECFF9CF2091E80022FFD9CFF4CF41D06A
:101BD00043D08091D8008F778093D8008091D8002F
:101BE00080688093D8008091D8008F7D8093D80042
:101BF00084E089BD86E089BD09B400FEFDCF109266
:101C0000F3011092EF011092F1011092F00142E005
:101C100060E080E014DF8091E1008E7F8093E1003E
:101C20008091E20081608093E2008091E200886010
:101C30008093E2008091E0008E7F8093E000089521
:101C4000E3E6F0E080818E7F808381E08093F20183
:101C5000BECF1092E20008951092E10008951F9205
:101C60000F920FB60F9211242F933F934F935F93D0
:101C70006F937F938F939F93AF93BF93EF93FF9354
:101C80008091E10082FF0BC08091E20082FF07C0DB
:101C90008091E1008B7F8093E1000E94C6038091D8
:101CA000E10080FF18C08091E20080FF14C08091A5
:101CB000E2008E7F8093E2008091E2008061809359
:101CC000E2008091D80080628093D80019BC109205
:101CD000F3010E946A038091E10084FF30C080918B
:101CE000E20084FF2CC084E089BD86E089BD09B490
:101CF00000FEFDCF8091D8008F7D8093D800809129
:101D0000E1008F7E8093E1008091E2008F7E8093DE
:101D1000E2008091E20081608093E2008091EF0117
:101D2000882311F084E007C08091E30087FF02C0A0
:101D300083E001C081E08093F3010E9469038091F8
:101D4000E10083FF27C08091E20083FF23C08091E0
:101D5000E100877F8093E10082E08093F30110929D
:101D6000EF018091E1008E7F8093E1008091E2009D
:101D70008E7F8093E2008091E20080618093E20098
:101D800042E060E080E05BDE8091F000886080935C
:101D9000F000B8D1FF91EF91BF91AF919F918F91DA
:101DA0007F916F915F914F913F912F910F900FBE57
:101DB0000F901F9018951F920F920FB60F9211243B
:101DC0002F933F934F935F936F937F938F939F9343
:101DD000AF93BF93CF93EF93FF938091E9008F7000
:101DE0009091EC0090FF02C090E801C090E0C92FF4
:101DF000C82B1092E9008091F000877F8093F0005B
:101E000078941CD01092E9008091F0008860809353
:101E1000F000CF70C093E900FF91EF91CF91BF9197
:101E2000AF919F918F917F916F915F914F913F9172
:101E30002F910F900FBE0F901F9018951F93CF9367
:101E4000DF93CDB7DEB7AC970FB6F894DEBF0FBE09
:101E5000CDBFE4EFF1E08091F100819321E0EC3F10
:101E6000F207C9F70E94BE038091E80083FF32C1E8
:101E70008091F4019091F501953009F487C038F410
:101E80009130B1F170F0933009F024C131C0983035
:101E900009F4F4C0993009F400C1963009F01AC170
:101EA0009BC0803821F0823809F014C108C08091AD
:101EB000F0019091F101992389F082600FC0809127
:101EC000F8019091F9018F7099278093E900809132
:101ED000EB0085FB882780F91092E9009091E800DB
:101EE000977F9093E8008093F1001092F100D1C0A9
:101EF000882319F0823009F0EDC08F7121F0823013
:101F000009F0E8C00BC08091F601813009F0E2C011
:101F1000933009F080E08093F1012FC08091F601A9
:101F200081112BC08091F8019091F9018F70992750
:101F3000009709F4CFC08093E9002091EB0020FFC7
:101F40001CC02091F501233021F48091EB008062C8
:101F500012C09091EB0090619093EB0021E030E093
:101F600001C0220F8A95EAF72093EA001092EA0056
:101F70008091EB0088608093EB001092E9008091E3
:101F8000E800877F8093E800CFDDA4C08111A2C064
:101F90008091F6019091F7018F779927182F9091F2
:101FA000E3009078982B9093E3008091E800877F7E
:101FB0008093E800B9DD8091E80080FFFCCF80913C
:101FC000E30080688093E300112311F083E001C0F7
:101FD00082E08093F3017EC08058823008F07AC09E
:101FE0008091F6019091F7018C3D23E0920771F505
:101FF00083E08A838AE289834FB7F894DE011396DF
:1020000020E03EE051E2E32FF0E050935700E491EE
:1020100020FF03C0E295EF703F5FEF708E2F90E0DE
:10202000EA3010F0C79601C0C0968D939D932F5F44
:10203000243149F74FBF8091E800877F8093E80003
:102040006AE270E0CE010196F9DB12C0AE01455D97
:102050005F4F6091F8010E94D2030097D9F120915F
:10206000E800277F2093E800BC018BA59CA586DCB7
:102070008091E8008B778093E8002CC0803851F580
:102080008091E800877F8093E8008091EF01809342
:10209000F1008091E8008E7775CF81111BC090917F
:1020A000F6019230B8F48091E800877F8093E800D1
:1020B0009093EF0139DD8091EF01811104C080918F
:1020C000E30087FF02C084E001C081E08093F30158
:1020D0000E946B038091E80083FF0AC08091E800B2
:1020E000877F8093E8008091EB0080628093EB0013
:1020F000AC960FB6F894DEBF0FBECDBFDF91CF9187
:102100001F9108950895CF938091F3018823A9F03A
:102110008091E9008F709091EC0090FF02C090E8F0
:1021200001C090E0C92FC82B1092E9008091E8000F
:1021300083FD84DECF70C093E900CF910895CF93E3
:10214000DF93EC014096FC018BE0DF011D928A9544
:10215000E9F782E08C83898783E08E8761E0CE0196
:102160000196A4DC882361F061E0CE0106969EDC36
:10217000882331F061E0CE010B96DF91CF9196CCB0
:1021800080E0DF91CF910895CF93C62F2091F30186
:102190002430F1F4FC014489558966897789452BFF
:1021A000462B472BA9F081818F708093E9008091A5
:1021B000E80085FF04C0C093F10080E00AC0809170
:1021C000E8008E778093E800D0DC8823A1F301C07B
:1021D00082E0CF9108952091F301243029F5FC018C
:1021E0004489558966897789452B462B472BE1F031
:1021F00081818F708093E9008091F200811102C08B
:1022000080E008959091E8008091E8008E778093B7
:10221000E80095FDF5CFA9DC811107C09091E80099
:102220009E779093E800089582E008952091F3014D
:10223000243089F4FC014489558966897789452BC6
:10224000462B472B41F021812F702093E9002091EC
:10225000E80020FDC0CF08952091F301243019F04B
:102260002FEF3FEF24C0FC014489558966897789A7
:10227000452B462B472BA1F386818F708093E90075
:102280008091E80082FFECCF8091F200882321F05A
:102290002091F10030E002C02FEF3FEF8091F2007B
:1022A000811105C08091E8008B778093E800C90117
:1022B00008950895CF93DF93EC018091E80083FFA8
:1022C000A7C0888190E02091F8013091F90128178A
:1022D000390709F09DC08091F501813261F020F449
:1022E000803209F095C03DC0823209F46DC083325E
:1022F00009F08EC07DC08091F401813A09F088C058
:102300008091E800877F8093E8008091E80080FF5B
:10231000FCCF4C895D896E897F894093F100BB2792
:10232000A72F962F852F8093F100CB01AA27BB27DB
:102330008093F100472F5527662777274093F100B8
:10234000888D8093F100898D8093F1008A8D809330
:10235000F1008091E8008E778093E800DF91CF91C3
:10236000E3CB8091F401813209F052C08091E80002
:10237000877F8093E80005C08091F301882309F4EA
:1023800047C08091E80082FFF7CF3091F1002091A3
:10239000F1009091F1008091F1003C8B2D8B9E8B90
:1023A0008F8B8091F100888F8091F100898F8091CF
:1023B000F1008A8F8091E8008B778093E800B4DB8E
:1023C000CE01DF91CF916FC98091F401813201F587
:1023D0008091E800877F8093E800A6DB8091F6017A
:1023E0009091F701998B888BCE01DF91CF912EC907
:1023F0008091F401813261F48091E800877F8093BD
:10240000E80092DB6091F601CE01DF91CF9151CFD0
:10241000DF91CF9108956F927F928F929F92AF92AA
:10242000BF92CF92DF92EF92FF920F931F93CF93C1
:10243000DF9300D01F92CDB7DEB77C01ADB6BEB63C
:102440008091E80083FF07C1F701808190E020912F
:10245000F8013091F9012817390709F0FCC0809183
:10246000F501833009F49EC030F4813071F0823080
:1024700009F0F1C0D4C08A3009F4B9C08B3009F436
:10248000A2C0893009F0E7C04CC08091F401813AC4
:1024900009F0E1C08DB69EB61A8219828091F601CC
:1024A0001091F7018B83F70140858DB79EB7841B90
:1024B00091090FB6F8949EBF0FBE8DBFCDB6DEB6A4
:1024C000EFEFCE1ADE0A360150E060E070E0C601A0
:1024D000EAD1412F41508E010F5F1F4F9601BE017F
:1024E0006D5F7F4FC7010E946504F7012681378128
:1024F0002115310529F0408550E0B601C901CAD146
:102500001092E9008091E800877F8093E80069815C
:102510007A81C30193D98091E8008B778093E8009A
:1025200039C08091F401813209F095C08DB69EB614
:102530000091FA011091FB017090F6016090F70193
:102540008DB79EB7801B910B0FB6F8949EBF0FBE40
:102550008DBFCDB6DEB6EFEFCE1ADE0A8091E80071
:10256000877F8093E800B801C601C8D98091E80050
:102570008E778093E80021E0711001C020E030E008
:10258000021B130B2C0D3D1D462D4150672DC7011D
:102590000E94A504882D992D0FB6F8949EBF0FBEFA
:1025A0008DBF59C08091F401813A09F054C08091E7
:1025B000E800877F8093E8008091E80080FFFCCFEF
:1025C000F701818540C08091F401813209F043C058
:1025D0008091E800877F8093E800A6DA9091F60169
:1025E00081E0911101C080E0F701818734C08091C2
:1025F000F401813281F58091E800877F8093E800C3
:1026000093DA8091F6019091F701882736E096954C
:1026100087953A95E1F7F701958784871CC08091EB
:10262000F401813AC1F48091E800877F8093E8004B
:102630008091E80080FFFCCFF70184859585969511
:102640008795969587958093F1008091E8008E7725
:102650008093E80069DA0FB6F894BEBE0FBEADBE37
:102660000F900F900F90DF91CF911F910F91FF90DE
:10267000EF90DF90CF90BF90AF909F908F907F9022
:102680006F9008959C01275F3F4FF90127E0DF011C
:102690001D922A95E9F721E0FC01218724EF31E022
:1026A0003587248723E0248361E00196FFC94F9298
:1026B0005F926F927F928F929F92AF92BF92CF92D2
:1026C000DF92EF92FF920F931F93CF93DF9300D08F
:1026D0001F92CDB7DEB77C01ADB6BEB68091F301D7
:1026E000843009F08FC08091E4009091E500F701FB
:1026F000228533852817390709F484C081818F70BA
:102700008093E9008091E80085FF7CC06DB67EB6BD
:1027100040858DB79EB7841B91090FB6F8949EBF74
:102720000FBE8DBFCDB6DEB6EFEFCE1ADE0A1B822E
:102730001A821982460150E060E070E0C601B3D011
:102740008E010F5F1F4F960140E0BE016D5F7F4F0E
:10275000C7010E946504582EF70184859585892B51
:1027600031F001E010E086859785892B11F000E0BB
:1027700010E0F701C680D780C114D10489F04981E7
:102780005A81B601C40179D044244394009709F4D6
:10279000412CF701408550E0B401C6017BD001C057
:1027A000412C89819A81892BF9F0511004C0411084
:1027B00002C000FF19C0F701848595859787868739
:1027C00081818F708093E9008B8181118093F1006A
:1027D00069817A8140E050E0C4010E94D10B809170
:1027E000E8008E778093E8008091E4009091E50006
:1027F000F70193878287862D972D0FB6F8949EBF99
:102800000FBE8DBF0FB6F894BEBE0FBEADBE0F900B
:102810000F900F90DF91CF911F910F91FF90EF904C
:10282000DF90CF90BF90AF909F908F907F906F90F0
:102830005F904F900895A1E21A2EAA1BBB1BFD01C9
:102840000DC0AA1FBB1FEE1FFF1FA217B307E4078F
:10285000F50720F0A21BB30BE40BF50B661F771FE7
:10286000881F991F1A9469F76095709580959095C7
:102870009B01AC01BD01CF010895FB01DC0104C047
:102880008D910190801921F441505040C8F7881B68
:10289000990B0895FB01DC0102C001900D9241509B
:1028A0005040D8F70895DC0101C06D93415050406D
:0828B000E0F70895F894FFCF52
:1028B800028110000001000011000000000000006B
:1028C800008340000001044000000182080000016C
:1028D800000000000000000000000004080F0801CC
:0628E80011110303302072
:00000001FF
