:1000000073C100008DC100008BC1000089C10000D8
:1000100087C1000085C1000083C1000081C10000CC
:100020007FC100007DC100007BC100000C945B0D0E
:100030000C94070E75C1000073C1000071C100006F
:100040006FC100006DC100006BC1000069C10000FC
:1000500067C1000065C1000063C1000018C3000053
:100060005FC100005DC100005BC1000059C100001C
:1000700057C1000030034100720064007500690040
:100080006E006F00200048006F006F0064006C007D
:100090006F0061006400650072002000420065008E
:1000A00074006100000012034E00690063006F00DD
:1000B00048006F006F006400000004030904090297
:1000C0005F00030100C032080B00020202010009B8
:1000D00004000001020201000524001001042402B2
:1000E000060524060001070582030800FF09040134
:1000F00000020A0000000705040240000107058312
:10010000024000010904020001030000000921115E
:1001100001000122B801070581032000011201102E
:1001200001EF020108EB03686E80010102DC0105AA
:10013000010902A1010901A100850105091901298F
:10014000051500250195057501810295017503814D
:100150000305010930093109381581257F75089596
:10016000038106C0C005010906A101850205071922
:10017000E029E715002501750195088102950175B3
:1001800008810395067508150025650507190029DE
:1001900065810005081901290595057501910295EC
:1001A0000175039103C006C0FF0A000CA10185037D
:1001B0007508150026FF00953F09018102953F094A
:1001C000029102C0050C0901A1018504150026FF5A
:1001D000FF19002AFFFF950475108100C005010971
:1001E00080A1018505150026FF00190029FF950152
:1001F00075088100C005010904A1018506050919DA
:10020000012920150025017501952081020501A114
:10021000000930093109320933093409351500273D
:10022000FFFF0000751095068102C005010939091C
:100230003915012508950275048102C005010904DC
:10024000A10185070509190129201500250175015E
:10025000952081020501A1000930093109320933D5
:1002600009340935150027FFFF0000751095068138
:1002700002C0093909391501250895027504810262
:10028000C005010904A1018508A10005091901297A
:100290000215002501750195028102050109300949
:1002A00031150026FF03750A95028102750295013A
:1002B0008103C0C005010904A1018509A100050948
:1002C0001901290215002501750195028102050118
:1002D00009300931150026FF03750A950281027560
:1002E0000295018103C0C00011241FBECFEFD2E0F0
:1002F000DEBFCDBF11E0A0E0B1E0E0E1F7E202C077
:1003000005900D92A633B107D9F712E0A6E3B1E04C
:1003100001C01D92A135B107E1F75DD00C948613A1
:100320006FCEE6E3F1E09FB7F8948181882319F05E
:100330008281811104C09FBF2FEF3FEF0CC0A081CD
:10034000A81BAF77B0E0AA5CBE4F1E962C918150DF
:1003500082839FBF30E0C9010895E6E3F1E09FB7D3
:10036000F8948181811101C017C0A081A1508281C0
:10037000A81BAF77B0E0AA5CBE4F1E964C9382815B
:10038000803819F08F5F828307C02081211101C05E
:1003900080838081815080839FBF089584B7877F49
:1003A00084BF88E10FB6F8948093600010926000DB
:1003B0000FBE0E94550A8AB180638AB98BB18063EF
:1003C0008BB90E944C0D84E085BD5F9A579A2098A6
:1003D00025982D9A08954AE050E061E070E086E0AB
:1003E00092E00E947F13E6E3F1E08FB7F894108269
:1003F00091E0918312828FBF1092390180E192E0E7
:1004000031D780914301807C809343018BB180631D
:100410008BB978D237D3C2DF789480E191E00E9423
:10042000581097FD1BC04091240150912501609107
:10043000260170912701413051056105710511F4C4
:1004400049D60CC05C98909143019C609093430105
:100450009091C80095FFFCCF8093CE009FB7F89491
:1004600080913701882319F08091380101C080E024
:100470009FBF90E0009719F4A89976C0F1C05D98ED
:1004800020914301236020934301209111012F709B
:100490002093E9002091E80020FFEECF8034910501
:1004A00010F08FE390E0182FC0E0D0E05AC08091A8
:1004B000240190912501A0912601B091270120915E
:1004C0003901222329F08091200180FF11C01EC034
:1004D00082309105A105B10528F08115924CA1400B
:1004E000B10589F793B1907293B9992361F332C042
:1004F00080913901882351F064E471E086E391E052
:1005000010DF90913901911121C02AC02FB7F894C2
:1005100080913701882331F090913801992311F0AF
:10052000911104C02FBF6FEF7FEF09C0E09136013A
:10053000E91BEF77F0E0EA5CFE4F66852FBF80E1B4
:1005400091E00E94F00F8823B9F296CF91509093DA
:10055000390106C064E471E086E391E0E2DE0AD28C
:1005600021961C13A4CF88CFA89A90914301892F7C
:10057000807309F453C0892F82958F708D5F8370CB
:10058000282F2295207F9F7C922B909343018111ED
:1005900045C090911002E92FE695E695E695E77043
:1005A00096FB882780F98E0F20913901820F809366
:1005B000390196FF09C0F0E0EB5EFD4F408164E435
:1005C00071E086E391E0C9DE0091100207FF05C0EB
:1005D00080E192E047D69DD121C00695069506950B
:1005E0000770C0E0D0E010E086E3E82E81E0F82E4E
:1005F000E00EF11E0BC0F701EC0FFD1FE152FF4FA3
:10060000408164E471E086E391E0A7DE2197CE01AA
:10061000809590958017910774F3DACF90914301FC
:10062000892F837049F0815083709C7F982B909321
:100630004301811101C05D9A90914301892F8C7013
:1006400079F0892F869586958D5F8370282F220FEC
:10065000220F937F922B90934301811101C05C9AEA
:1006600080E191E00E9442100E94AF0FD6CE089523
:10067000089580E091E00E946E1280E191E00E9476
:10068000CB0FE2EEF0E080818460808308951F92BA
:100690000F920FB60F9211242F938F939F93AF93C6
:1006A000BF93EF93FF938091CE00909148029430D6
:1006B000D9F4E6E3F1E09FB7F8942181222399F081
:1006C0002281203809F40FC02081A22FB0E0AA5C5B
:1006D000BE4F1E968C932F5F208382818F5F828313
:1006E000203809F410829FBFFF91EF91BF91AF9125
:1006F0009F918F912F910F900FBE0F901F90189583
:1007000080E191E00E94861080E091E00C94371126
:1007100080910E0190910F01009729F0019790931D
:100720000F0180930E010895292F332723303105BF
:10073000B1F04CF42130310509F439C022303105D3
:1007400009F03AC007C02132310539F122323105B2
:1007500049F132C0EFE5F0E08EEB90E031C099272F
:100760008130910561F08230910581F0892B21F56E
:10077000EAEBF0E0E491F0E08AEB90E021C0E6EAF9
:10078000F0E0E491F0E086EA90E01AC0E4E7F0E0FF
:10079000E491F0E084E790E013C0E9E0F0E08DE060
:1007A00091E00EC0E8EBF1E08FE291E009C0E2E1F8
:1007B000F0E08DE191E004C0E0E0F0E080E090E066
:1007C000DA018D939C93CF010895CF93DF9380E05E
:1007D00090E030E0420F531F66E371E025C0FA015C
:1007E000E81BF90B3197D081FB01CFB7F894A181B9
:1007F000A11101C017C0A081A150B281AB1BAF777E
:10080000B0E0AA5CBE4F1E96DC93A281A03819F01E
:10081000AF5FA28307C0B081B11101C0A083A081E6
:10082000A150A083CFBF019682179307C4F2DF9136
:10083000CF910895EF92FF920F931F93CF93DF9381
:100840007B01C901E801E091C401EE2329F1409147
:10085000C5012091C60142131FC0E33039F051E0B9
:1008600050930602F0E0EA5FFD4F5083E7ECF1E0C1
:1008700050E0BF010E9476138091C401F70180838C
:100880008091C501888319821092C4011092C6011B
:100890001092C50181E001C080E0DF91CF911F91EE
:1008A0000F91FF90EF9008950F931F93C90163304C
:1008B00051F45C98209143012C6020934301B801CE
:1008C0001F910F918AC61F910F91089504C080E077
:1008D00091E00E9483128091C401882331F09091AD
:1008E000C5018091C601981791F30895E091C40164
:1008F000E150E93028F4F0E0E55DFE4F8081089595
:1009000080E008951092C4011092C6011092C501B2
:1009100008951F93CF93DF9300D000D000D0CDB7C0
:10092000DEB76091C4016623D1F08091C6018111C8
:1009300016C070E07160AE014F5F5F4F81E068D517
:10094000182F282FAE014F5F5F4F64E471E086E3FC
:1009500091E03BDF90913901910F90933901D2DF03
:1009600026960FB6F894DEBF0FBECDBFDF91CF91B4
:100970001F910895CF93DF931F92CDB7DEB790916B
:10098000430190639093430160E172E01ED5882398
:1009900009F46FC087FD54C0898398DF8981813055
:1009A000D9F4909112029130B9F4B3DF8091110221
:1009B0008093C4011092C6019FE3E7ECF1E0DF01F0
:1009C0001D929A95E9F792DF8093C501811151C07C
:1009D0000F90DF91CF919DCF9091C401992381F128
:1009E0006091C601462F50E0992787FD90959A01A6
:1009F0002E5F3F4F359527952F5F3F4F8217930707
:100A0000F9F4FA01E953FE4F809111028083E62F39
:100A1000EF5FE093C6018091C5018E1749F0F0E0C9
:100A2000E953FE4F9091120290836E5F6093C6016E
:100A30009091C60189131DC00F90DF91CF9146CFD1
:100A400068DF20911002269526952695277045E1AE
:100A500052E064E471E086E391E0B7DE8091100239
:100A6000869586958695877090913901890F809338
:100A700039010F90DF91CF9108959BB18095892323
:100A80008BB9089510923B0110923A0110923C01EB
:100A900010923E0110923D010895682F80E191E08F
:100AA0000E94F00F8823E9F080E191E00E9442105B
:100AB0000E94AF0F80E1E1DF2FEF81EE94E0215043
:100AC00080409040E1F700C0000080E1D6DF2FEFCA
:100AD00081EE94E0215080409040E1F700C000009A
:100AE000E9CF089580E191E00E94581097FDFACF78
:100AF0000895EF92FF920F931F93CF93DF937C01A2
:100B000004E411E0C0E0D0E005C0ECDFF80181931F
:100B10008F012196CE15DF05C4F3DF91CF911F9190
:100B20000F91FF90EF9008959091500180E02091F7
:100B30005101820F911D9093400180933F0190914C
:100B4000520180E020915301820F911D9093420148
:100B5000809341010895CF93C82FC4DF803239F4C8
:100B600084E19BDF8C2F99DF80E1CF9196CF85E1E7
:100B700094DF80913A0190913B01019690933B0163
:100B800080933A01CF910895813859F018F4803854
:100B900071F405C0823839F0833949F406C082E027
:100BA00007C081E005C082E103C083E501C080E0A9
:100BB000D2CF98DF803221F484E16FDF80E16DCF06
:100BC00080E25BDF2FEF80E792E021508040904091
:100BD000E1F700C000005D9A2FEF80E792E021501E
:100BE00080409040E1F700C0000080E246DF2FEF38
:100BF00080E792E0215080409040E1F700C0000083
:100C00005D9A85E14ADF80913A0190913B0101961E
:100C100090933B0180933A0108952398229821985C
:100C20002498209810923C019FB7F8948091370146
:100C30009FBF811109C0E6E3F1E08FB7F8941082FD
:100C400091E0918312828FBF5DCE83E58CBD8DB51F
:100C50008EB508950DB407FEFDCF08958EBDFADF61
:100C60008EB50895CF93DF9300D01F92CDB7DEB736
:100C70002B834A836983F2DF6981862FEFDF4A8104
:100C8000842FECDF2B81822F0F900F900F90DF913C
:100C9000CF91E4CFE6E3F1E08FB7F89410821182B0
:100CA00012828FBF209A289AD0DF249A2C9A219AF8
:100CB00029982FEF80E792E0215080409040E1F7A3
:100CC00000C000002C982FEF80E792E02150804078
:100CD0009040E1F700C000002398229A20E040E015
:100CE00063E58CEABFDF81E080933C010895462FE5
:100CF000880F880F880F20E0672F805EB3CF0F9397
:100D00001F93CF93DF938C01C0E0D0E019C06091B6
:100D10003D0170913E0180E0EADFBFDE60913D0160
:100D200070913E0181E0E3DFB8DE20913D0130911A
:100D30003E012F5F3F4F30933E0120933D012296AD
:100D4000C017D10724F380E1DF91CF911F910F915C
:100D5000089584E090E0CDDE209147014091460166
:100D600060914501809144017DDFF5CEBBDE80328C
:100D700059F080913A0190913B01019690933B018B
:100D800080933A0185E115C084E187DE20E040E0F0
:100D900060E080E367DF81DE20E041E060E080E347
:100DA00061DF7BDE20E042E060E080E35BDF75DE58
:100DB00080E173CECF92DF92EF92FF920F931F9359
:100DC000CF93DF93D82FC92F7B01CB0192DE5D9AA1
:100DD00084E4C82E81E0D82E0D2F1C2FE80111C00D
:100DE000F60121916F014C2F6D2F80EC3BDFFFE767
:100DF00022E382E0F15020408040E1F700C0000093
:100E00002196CE01801B910B8E159F054CF380E23D
:100E100034DE80E1DF91CF911F910F91FF90EF9031
:100E2000DF90CF9008950F931F93CF93DF93C091DE
:100E30003D01D0913E01209141013091420128179E
:100E4000390724F0CC0FDD1F8C0112C080913A01CC
:100E500090913B01019690933B0180933A0181E18F
:100E60000EC060E270E0CE01A5DFA096005211092D
:100E700001321105B4F7B801CE019CDF80E1DF91AA
:100E8000CF911F910F910895EF92FF920F931F93AF
:100E9000CF93DF937C0100913D0110913E01000F43
:100EA000111FE80107C02FEF4C2F6D2F80EADADE0B
:100EB000F4DD2196CE01801B910B8E159F059CF3CE
:100EC00080E1DF91CF911F910F91FF90EF900895F6
:100ED0001F93CF93DF9306DED82F04DEC82F02DEE8
:100EE000182F00DE803259F080913A0190913B0139
:100EF000019690933B0180933A0185E113C03D2F09
:100F000020E0C9018C0F911DEC0184E1C6DD16348F
:100F100019F4CE01F4DE06C0153419F4CE01B4DFA5
:100F200001C081E1DF91CF911F91B7CD5D9A20E0A3
:100F3000482F692F8CE496DE2FEF86E791E0215051
:100F400080409040E1F700C0000080E296CD8091A3
:100F50003F019091400120913D0130913E0180324E
:100F6000910511F4207F0EC08034910511F4207E8C
:100F700009C08038910511F4207C04C0811591408E
:100F800009F42078C9010895962F672F242F880F20
:100F9000880F880F492F805C65CECF92DF92EF9249
:100FA000FF920F931F93CF93DF936C01D0DF8C01DF
:100FB000C0E0D0E029C0CBDF0817190721F0C80135
:100FC000B5DFC5DF8C0146E3E42E41E0F42EEC0EE4
:100FD000FD1E60913D0170913E01F701468580E064
:100FE000D3DF229660913D0170913E01F701478564
:100FF00081E0CADF20913D0130913E012F5F3F4FDC
:1010000030933E0120933D01CC15DD05A4F2C801CB
:101010008DDF80E1DF91CF911F910F91FF90EF90D5
:10102000DF90CF900895CF93DF93EC0162DD5ADD1E
:10103000803229F484E131DDCE01AFDF0AC0809136
:101040003A0190913B01019690933B0180933A01C4
:1010500085E1DF91CF9121CDCF93DF9343DDD82F71
:1010600080E0C82F3FDDC80FD11DC13081E0D80717
:1010700064F081E112DD80913A0190913B0101968B
:1010800090933B0180933A0122C02CDD863421F4F9
:10109000CE01DF91CF91C7CF8534A9F4CE01C3DE55
:1010A000C82F20DD803221F484E1F7DC8C2F0CC0C6
:1010B00080913A0190913B01019690933B0180937E
:1010C0003A0185E101C081E1DF91CF91E6CCDF916A
:1010D000CF910895CF93DF93EC0180913C01882359
:1010E00019F080E2CADC01C05D9A80913A019091CA
:1010F0003B01892B19F080E1C0DC01C05C9AD7FD6F
:10110000AEC0C135D10509F485C0E4F4C134D105C0
:1011100009F452C054F4C033D10599F1C133D1055B
:10112000A9F1A09709F089C07EC0C534D10509F4A2
:101130004EC0C035D10509F44EC0C234D10509F006
:101140007CC03EC0C136D10509F459C06CF4C63527
:10115000D10509F45CC0C036D10509F44FC0C535CE
:10116000D10509F06AC039C0C437D10509F44CC0B3
:10117000C537D10509F454C0C436D10509F05DC0A6
:1011800040C010923B0110923A011EC0ABDC80328D
:1011900009F065C084E181DC81E47FDC86E57DDCEB
:1011A00082E57BDC80E279DC89E477DC83E575DC51
:1011B00080E573DC80E150C095DCDF91CF91E4CC19
:1011C00084E190E096DCB0DCDF91CF91F2CC85E059
:1011D00090E08FDCF9CF5EDDF7CF84DCC82FD0E064
:1011E000D0933E01C0933D017DDC382F20E02C0FD1
:1011F0003D1F30933E0120933D01E6CF73DC72DC4E
:10120000E3CFDF91CF9128CFDF91CF9161CEDF91F6
:10121000CF919FCD10923B0110923A01FEDCD4CFCA
:10122000DF91CF91A3CD80913A0190913B0101963E
:1012300090933B0180933A010EC080913A019091C6
:101240003B01019690933B0180933A014BDC803245
:1012500011F482E101C085E1DF91CF911ECCDF91D5
:10126000CF910895FC01208120682F7B2083089571
:101270000F931F93FB01908196FF0FC0292F269596
:10128000269526952770DB01A20FB11D15962C918E
:101290002583977C98609F7B03C097FF02C0907C5A
:1012A000908390819695969596959770DF01A90FFA
:1012B000B11D15968C93292F2F5F2770220F220FB7
:1012C000220F4081477C422B4083282F207C342FE3
:1012D0003770203809F463C0203C09F045C0282F3E
:1012E0002873269526952695332349F0990F990F53
:1012F000990F477C492B406440839EEF01C090E0EA
:10130000223098F4908196FB222720F9892F869528
:1013100086958695820F8770880F880F880F977C37
:10132000982B9F7B90839FEF3FC0273059F4082F65
:101330000F7010E020E030E00183128323833483B8
:1013400025E00AC0482F477050E060E070E041831C
:10135000528363837483215027708081887F822B1E
:101360008083992329F120C0032F10E0023011055A
:1013700024F1395F3770487F432B4083418152818C
:101380006381748197E0440F551F661F771F9A95FC
:10139000D1F7482B418352836383748309C0313072
:1013A00071F4982F9F739F5F80818068808309C04C
:1013B00080818F77808390E004C09DEFF5CF9CEF14
:1013C000F3CF892F1F910F9108950F931F93CF9300
:1013D000DF93EB014DDF1816B4F409811A812B81DC
:1013E0003C81A901662777272227332740275127E9
:1013F000622773274F3F5F4F6105710521F0888198
:10140000806888838BEFDF91CF911F910F910895B2
:10141000FA012CE130E097E0AB01022E02C05695B4
:1014200047950A94E2F7483028F0973059F4408302
:1014300096E008C040839150411104C02750310903
:10144000923051F7492F42500DC0DF01A40FB11D5A
:101450009B012F7733272C93660F672F661F770B1F
:10146000719541504111F1CF492F50E09A0163E04D
:10147000220F331F6A95E1F7206C3F6F3081322BCA
:101480003083E40FF51F319781508F73806880831C
:10149000892F0895FC01208920FF02C05F980895DC
:1014A0005F9A8BB180638BB90895CF93DF9380E10E
:1014B00090E09093CD008093CC00CAECD0E096E011
:1014C0009883A8ECB0E082E08C93E9ECF0E028E1AE
:1014D0002083539A5A9A5B9A10821C92188298839E
:1014E0008C9388E980835B98DF91CF9108951F9357
:1014F000CF93DF93EC01E98DE150E23028F4F0E086
:10150000EC5CFE4F108101C010E0888D823009F440
:1015100018608A8D873031F0883031F0863029F4B8
:10152000126003C0146001C016605B9A1092C9007B
:101530001092C8001092CA002C893D894E895F899B
:10154000211581EE38074105510579F0CA01B9012D
:10155000969587957795679560587B47814E9F4F05
:101560000E9447132150310902C020E130E030933E
:10157000CD002093CC001093CA008C899D89AE8940
:10158000BF898115914EA105B10511F480E001C01C
:1015900082E08093C80088E98093C9005B988C89B9
:1015A0009D89AE89BF890197A105B10551F47DDF01
:1015B000E6E3F1E08FB7F8941082118212828FBFB8
:1015C00061DA80913C01882321F0DF91CF911F9156
:1015D00024CBDF91CF911F910895680F791F09C027
:1015E000FC012191CF013091C80035FFFCCF209341
:1015F000CE0086179707A1F70895BF92CF92DF928A
:10160000EF92FF920F931F93CF93DF937C018B0197
:10161000EA01D7D1B82E811132C0209731F028814C
:101620003981021B130BE20EF31EC12CD12C22C0F8
:101630008091E80085FD14C08091E8008E7780934A
:10164000E800209749F0888199818C0D9D1D998330
:10165000888325E0B22E13C0B4D1882359F00EC080
:10166000F70181917F018093F10001501109FFEF93
:10167000CF1ADF0A01151105D9F601C0B82E8B2D3E
:10168000DF91CF911F910F91FF90EF90DF90CF905E
:10169000BF90089520914F023091500226173707CE
:1016A00048F06115710539F42091E8002E772093F8
:1016B000E80001C0B9019C0180E034C0909148026B
:1016C000992309F443C0953009F442C09091E80091
:1016D00093FD3AC09091E80092FD30C09091E800EF
:1016E00090FF20C08091F20090E0F901821B930BE3
:1016F00005C021912093F100615071099F01280FCD
:10170000391F6115710519F02830310590F381E01A
:101710002830310509F080E09091E8009E779093A1
:10172000E8009F016115710549F68111C7CF06C018
:1017300080914802882351F0853051F08091E80073
:1017400082FFF6CF80E0089581E0089582E0089559
:1017500083E008956115710529F42091E8002B7745
:101760002093E8009C0121C080914802882381F1E8
:10177000853041F18091E80083FD26C08091E8002A
:1017800082FFF2CFF90107C08091F10081939F01A0
:101790006150710929F09F018091F2008111F4CF0D
:1017A0008091E8008B778093E80061157105E1F680
:1017B0008091E80080FD0AC080914802882341F0B2
:1017C0008530B1F783E0089581E0089580E00895C1
:1017D00082E0089520914F0230915002261737077A
:1017E00048F06115710539F42091E8002E772093B7
:1017F000E80001C0B9019C0180E035C09091480229
:10180000992309F444C0953009F443C09091E8004D
:1018100093FD3BC09091E80092FD31C09091E800AB
:1018200090FF21C08091F20090E0F901821B930BA0
:1018300006C024912093F1003196615071099C01FA
:101840002E0F3F1F6115710519F02830310588F3FF
:1018500081E02830310509F080E09091E8009E7722
:101860009093E8009F016115710541F68111C6CF83
:1018700006C080914802882351F0853051F0809154
:10188000E80082FFF6CF80E0089581E0089582E0CD
:10189000089583E00895982F2CC09093E90098173D
:1018A00039F07091EC002091ED005091F00003C0F0
:1018B000242F762F50E021FD02C09F5F1AC0309187
:1018C000EB003E7F3093EB003091ED003D7F309395
:1018D000ED003091EB0031603093EB007093EC0041
:1018E0002093ED005093F0002091EE0027FDE5CF0E
:1018F00007C0953090F28F708093E90081E00895E1
:1019000080E008950F931F93CF93DF93062FEC0190
:1019100010E02EC09881911103C01F5F259628C04A
:101920002C81E981FA816B81892F8F70853010F0CD
:1019300080E021C0223010F056E001C052E028E0E3
:1019400030E040E003C04F5F220F331F2E173F07E8
:10195000D0F34295407F452B991F9927991F629597
:10196000660F660F607C692B96DF8111D6CFE0CFC2
:101970001013D0CF81E0DF91CF911F910F91089587
:101980008091490287FD05C08091E80080FF0EC06C
:1019900012C08091E80082FD05C08091480281114B
:1019A000F8CF08958091E8008B7708C080914802B5
:1019B0008111EACF08958091E8008E778093E80046
:1019C00008958091E4009091E50045E62091EC00B7
:1019D00020FD1FC023C020914802222391F0253012
:1019E00091F02091EB0025FD10C02091E400309192
:1019F000E5002817390751F34150C90139F784E050
:101A0000089582E0089583E0089581E0089580E0DC
:101A100008952091E80020FFDECFF9CF2091E80063
:101A200022FFD9CFF4CF41D043D08091D8008F7717
:101A30008093D8008091D80080688093D8008091EE
:101A4000D8008F7D8093D80084E089BD86E089BD71
:101A500009B400FEFDCF1092480210924402109289
:101A600046021092450242E060E080E014DF80917F
:101A7000E1008E7F8093E1008091E200816080939D
:101A8000E2008091E20088608093E2008091E000B3
:101A90008E7F8093E0000895E3E6F0E080818E7F02
:101AA000808381E080934702BECF1092E2000895C8
:101AB0001092E10008951F920F920FB60F92112419
:101AC0002F933F934F935F936F937F938F939F9346
:101AD000AF93BF93EF93FF938091E10082FF0BC020
:101AE0008091E20082FF07C08091E1008B7F8093AC
:101AF000E1000E9488038091E10080FF18C080917E
:101B0000E20080FF14C08091E2008E7F8093E200AB
:101B10008091E20080618093E2008091D800806231
:101B20008093D80019BC109248020E94380380911B
:101B3000E10084FF30C08091E20084FF2CC084E08B
:101B400089BD86E089BD09B400FEFDCF8091D80033
:101B50008F7D8093D8008091E1008F7E8093E1009B
:101B60008091E2008F7E8093E2008091E2008160AC
:101B70008093E20080914402882311F084E007C042
:101B80008091E30087FF02C083E001C081E0809381
:101B900048020E9437038091E10083FF27C08091B3
:101BA000E20083FF23C08091E100877F8093E10002
:101BB00082E080934802109244028091E1008E7F7F
:101BC0008093E1008091E2008E7F8093E20080911B
:101BD000E20080618093E20042E060E080E05BDE52
:101BE0008091F00088608093F000B8D1FF91EF9170
:101BF000BF91AF919F918F917F916F915F914F9125
:101C00003F912F910F900FBE0F901F9018951F922C
:101C10000F920FB60F9211242F933F934F935F9320
:101C20006F937F938F939F93AF93BF93CF93EF93D4
:101C3000FF938091E9008F709091EC0090FF02C0BB
:101C400090E801C090E0C92FC82B1092E900809164
:101C5000F000877F8093F00078941CD01092E90008
:101C60008091F00088608093F000CF70C093E9000D
:101C7000FF91EF91CF91BF91AF919F918F917F9104
:101C80006F915F914F913F912F910F900FBE0F90E9
:101C90001F9018951F93CF93DF93CDB7DEB7AC9706
:101CA0000FB6F894DEBF0FBECDBFE9E4F2E080913D
:101CB000F100819322E0E135F207C9F70E94800329
:101CC0008091E80083FF32C18091490290914A02DD
:101CD000953009F487C038F49130B1F170F0933049
:101CE00009F024C131C0983009F4F4C0993009F4E6
:101CF00000C1963009F01AC19BC0803821F08238AB
:101D000009F014C108C080914502909146029923C0
:101D100089F082600FC080914D0290914E028F70C9
:101D200099278093E9008091EB0085FB882780F953
:101D30001092E9009091E800977F9093E8008093DB
:101D4000F1001092F100D1C0882319F0823009F01F
:101D5000EDC08F7121F0823009F0E8C00BC0809196
:101D60004B02813009F0E2C0933009F080E08093AB
:101D700046022FC080914B0281112BC080914D02F1
:101D800090914E028F709927009709F4CFC08093ED
:101D9000E9002091EB0020FF1CC020914A02233073
:101DA00021F48091EB00806212C09091EB00906171
:101DB0009093EB0021E030E001C0220F8A95EAF712
:101DC0002093EA001092EA008091EB0088608093F3
:101DD000EB001092E9008091E800877F8093E80093
:101DE000CFDDA4C08111A2C080914B0290914C0222
:101DF0008F779927182F9091E3009078982B9093E4
:101E0000E3008091E800877F8093E800B9DD80914E
:101E1000E80080FFFCCF8091E30080688093E300BE
:101E2000112311F083E001C082E0809348027EC05C
:101E30008058823008F07AC080914B0290914C0219
:101E40008C3D23E0920771F583E08A838AE28983DF
:101E50004FB7F894DE01139620E03EE051E2E32F05
:101E6000F0E050935700E49120FF03C0E295EF703B
:101E70003F5FEF708E2F90E0EA3010F0C79601C000
:101E8000C0968D939D932F5F243149F74FBF80916A
:101E9000E800877F8093E8006AE270E0CE01019657
:101EA000F9DB12C0AE01455D5F4F60914D020E94AB
:101EB00094030097D9F12091E800277F2093E80050
:101EC000BC018BA59CA586DC8091E8008B77809374
:101ED000E8002CC0803851F58091E800877F80931E
:101EE000E800809144028093F1008091E8008E77B1
:101EF00075CF81111BC090914B029230B8F4809144
:101F0000E800877F8093E8009093440239DD809158
:101F10004402811104C08091E30087FF02C084E085
:101F200001C081E0809348020E9439038091E8005B
:101F300083FF0AC08091E800877F8093E80080914A
:101F4000EB0080628093EB00AC960FB6F894DEBF96
:101F50000FBECDBFDF91CF911F9108950895CF930C
:101F6000809148028823A9F08091E9008F709091B8
:101F7000EC0090FF02C090E801C090E0C92FC82B90
:101F80001092E9008091E80083FD84DECF70C09359
:101F9000E900CF910895CF93DF93EC014096FC01C7
:101FA0008BE0DF011D928A95E9F782E08C838987B7
:101FB00083E08E8761E0CE010196A4DC882361F086
:101FC00061E0CE0106969EDC882331F061E0CE010F
:101FD0000B96DF91CF9196CC80E0DF91CF91089561
:101FE000CF93C62F209148022430F1F4FC0144899C
:101FF000558966897789452B462B472BA9F0818126
:102000008F708093E9008091E80085FF04C0C09341
:10201000F10080E00AC08091E8008E778093E800AC
:10202000D0DC8823A1F301C082E0CF9108952091F4
:102030004802243029F5FC0144895589668977894D
:10204000452B462B472BE1F081818F708093E9006F
:102050008091F200811102C080E008959091E80023
:102060008091E8008E778093E80095FDF5CFA9DC9C
:10207000811107C09091E8009E779093E800089541
:1020800082E0089520914802243089F4FC014489BB
:10209000558966897789452B462B472B41F021814D
:1020A0002F702093E9002091E80020FDC0CF089513
:1020B00020914802243019F02FEF3FEF24C0FC019B
:1020C0004489558966897789452B462B472BA1F38F
:1020D00086818F708093E9008091E80082FFECCFC9
:1020E0008091F200882321F02091F10030E002C0BD
:1020F0002FEF3FEF8091F200811105C08091E80041
:102100008B778093E800C90108950895CF93DF93FA
:10211000EC018091E80083FFA7C0888190E02091C6
:102120004D0230914E022817390709F09DC0809169
:102130004A02813261F020F4803209F095C03DC03E
:10214000823209F46DC0833209F08EC07DC0809167
:102150004902813A09F088C08091E800877F809326
:10216000E8008091E80080FFFCCF4C895D896E8992
:102170007F894093F100BB27A72F962F852F80934F
:10218000F100CB01AA27BB278093F100472F5527E9
:10219000662777274093F100888D8093F100898D21
:1021A0008093F1008A8D8093F1008091E8008E7712
:1021B0008093E800DF91CF91E3CB80914902813297
:1021C00009F052C08091E800877F8093E80005C045
:1021D00080914802882309F447C08091E80082FF7B
:1021E000F7CF3091F1002091F1009091F1008091B2
:1021F000F1003C8B2D8B9E8B8F8B8091F100888F13
:102200008091F100898F8091F1008A8F8091E800A0
:102210008B778093E800B4DBCE01DF91CF9167C963
:1022200080914902813201F58091E800877F809397
:10223000E800A6DB80914B0290914C02998B888B31
:10224000CE01DF91CF9126C980914902813261F49C
:102250008091E800877F8093E80092DB60914B02D9
:10226000CE01DF91CF9151CFDF91CF9108956F9241
:102270007F928F929F92AF92BF92CF92DF92EF9216
:10228000FF920F931F93CF93DF9300D01F92CDB790
:10229000DEB77C01ADB6BEB68091E80083FF07C112
:1022A000F701808190E020914D0230914E02281775
:1022B000390709F0FCC080914A02833009F49EC0BE
:1022C00030F4813071F0823009F0F1C0D4C08A302E
:1022D00009F4B9C08B3009F4A2C0893009F0E7C015
:1022E0004CC080914902813A09F0E1C08DB69EB69A
:1022F0001A82198280914B0210914C028B83F70154
:1023000040858DB79EB7841B91090FB6F8949EBF88
:102310000FBE8DBFCDB6DEB6EFEFCE1ADE0A3601A8
:1023200050E060E070E0C601EAD1412F41508E01DB
:102330000F5F1F4F9601BE016D5F7F4FC7010E9467
:102340001A04F701268137812115310529F04085CE
:1023500050E0B601C901CAD11092E9008091E800AD
:10236000877F8093E80069817A81C30193D9809146
:10237000E8008B778093E80039C080914902813270
:1023800009F095C08DB69EB600914F021091500293
:1023900070904B0260904C028DB79EB7801B910BE2
:1023A0000FB6F8949EBF0FBE8DBFCDB6DEB6EFEF71
:1023B000CE1ADE0A8091E800877F8093E800B8019A
:1023C000C601C8D98091E8008E778093E80021E0AB
:1023D000711001C020E030E0021B130B2C0D3D1DDD
:1023E000462D4150672DC7010E945404882D992D18
:1023F0000FB6F8949EBF0FBE8DBF59C080914902A1
:10240000813A09F054C08091E800877F8093E8000A
:102410008091E80080FFFCCFF701818540C080916A
:102420004902813209F043C08091E800877F8093A0
:10243000E800A6DA90914B0281E0911101C080E0A2
:10244000F701818734C080914902813281F5809102
:10245000E800877F8093E80093DA80914B029091A7
:102460004C02882736E0969587953A95E1F7F70173
:10247000958784871CC080914902813AC1F480917C
:10248000E800877F8093E8008091E80080FFFCCF20
:10249000F701848595859695879596958795809380
:1024A000F1008091E8008E778093E80069DA0FB63A
:1024B000F894BEBE0FBEADBE0F900F900F90DF918F
:1024C000CF911F910F91FF90EF90DF90CF90BF9031
:1024D000AF909F908F907F906F9008959C01275FA1
:1024E0003F4FF90127E0DF011D922A95E9F721E02E
:1024F000FC01218724EF31E03587248723E0248302
:1025000061E00196FFC94F925F926F927F928F9226
:102510009F92AF92BF92CF92DF92EF92FF920F9372
:102520001F93CF93DF9300D01F92CDB7DEB77C010E
:10253000ADB6BEB680914802843009F08FC080915C
:10254000E4009091E500F7012285338528173907CB
:1025500009F484C081818F708093E9008091E80044
:1025600085FF7CC06DB67EB640858DB79EB7841B57
:1025700091090FB6F8949EBF0FBE8DBFCDB6DEB6E3
:10258000EFEFCE1ADE0A1B821A821982460150E052
:1025900060E070E0C601B3D08E010F5F1F4F96015F
:1025A00040E0BE016D5F7F4FC7010E941A04582EA4
:1025B000F70184859585892B31F001E010E086854F
:1025C0009785892B11F000E010E0F701C680D780D5
:1025D000C114D10489F049815A81B601C40179D06E
:1025E00044244394009709F4412CF701408550E0BE
:1025F000B401C6017BD001C0412C89819A81892B0D
:10260000F9F0511004C0411002C000FF19C0F701D9
:10261000848595859787868781818F708093E9006F
:102620008B8181118093F10069817A8140E050E0D3
:10263000C4010E94FD0A8091E8008E778093E80033
:102640008091E4009091E500F70193878287862DC1
:10265000972D0FB6F8949EBF0FBE8DBF0FB6F8949E
:10266000BEBE0FBEADBE0F900F900F90DF91CF9109
:102670001F910F91FF90EF90DF90CF90BF90AF90A0
:102680009F908F907F906F905F904F900895A1E200
:102690001A2EAA1BBB1BFD010DC0AA1FBB1FEE1FDC
:1026A000FF1FA217B307E407F50720F0A21BB30B27
:1026B000E40BF50B661F771F881F991F1A9469F7A3
:1026C00060957095809590959B01AC01BD01CF01FF
:1026D0000895FB01DC0104C08D910190801921F463
:1026E00041505040C8F7881B990B0895FB01DC014D
:1026F00002C001900D9241505040D8F70895DC017E
:1027000001C06D9341505040E0F70895F894FFCF19
:1027100002812000000100003F00000000000000D6
:102720000083400000010440000001820800000115
:10273000000000000000000000000004083F080145
:062740001111030330201B
:00000001FF
