:1000000078C1000092C1000090C100008EC10000C4
:100010008CC100008AC1000088C1000086C10000B8
:1000200084C1000082C1000080C100000C949208CD
:100030000C943B097AC1000078C1000076C1000031
:1000400074C1000072C1000070C100006EC10000E8
:100050006CC100006AC1000068C1000016C2000047
:1000600064C1000062C1000060C100005EC1000008
:100070005CC100003A034100720064007500690031
:100080006E006F00200048006F006F0064006C007D
:100090006F00610064006500720020004C00690080
:1000A00074006500200042006500740061000000DB
:1000B00012034E00690063006F0048006F006F007C
:1000C000640000000403090409025F00030100C08A
:1000D00032080B00020202010009040000010202C2
:1000E0000100052400100104240206052406000175
:1000F000070582030800FF09040100020A0000004E
:1001000007050402400001070583024000010904BD
:100110000200010300000009211101000122B801C1
:100120000705810320000112011001EF020108EB15
:1001300003484E72010102DC0105010902A1010917
:1001400001A1008501050919012905150025019561
:1001500005750181029501750381030501093009C7
:100160003109381581257F750895038106C0C005C2
:10017000010906A1018502050719E029E7150025F7
:100180000175019508810295017508810395067531
:10019000081500256505071900296581000508195E
:1001A000012905950575019102950175039103C01B
:1001B00006C0FF0A000CA10185037508150026FF83
:1001C00000953F09018102953F09029102C0050C8B
:1001D0000901A1018504150026FFFF19002AFFFF70
:1001E000950475108100C005010980A101850515E0
:1001F0000026FF00190029FF950175088100C00540
:10020000010905A101850605091901292015002507
:10021000017501952081020501A10009300931090C
:1002200032093309340935150027FFFF0000751026
:1002300095068102C005010939093915012508957E
:100240000275048102C005010905A10185070509A0
:10025000190129201500250175019520810205014C
:10026000A100093009310932093309340935150073
:1002700027FFFF0000751095068102C00939093972
:1002800015012508950275048102C005010904A124
:10029000018508A10005091901290215002501752C
:1002A0000195028102050109300931150026FF037D
:1002B000750A95028102750295018103C0C005018E
:1002C0000904A1018509A1000509190129021500E8
:1002D00025017501950281020501093009311500DA
:1002E00026FF03750A95028102750295018103C0FC
:1002F000C00011241FBECFEFD2E0DEBFCDBF11E0A2
:10030000A0E0B1E0E4EBFDE102C005900D92AE3259
:10031000B107D9F712E0AEE2B1E001C01D92A634F8
:10032000B107E1F79FD30C94D80E6ACE9BB18095AC
:1003300089238BB908959BB1982B9BB90895CF93CE
:10034000DF9384B7877F84BF28E10FB6F8942093AA
:100350006000109260000FBE80E190E09093CD00AD
:100360008093CC00CAECD0E096E09883A8ECB0E093
:1003700082E08C93E9ECF0E02083539A5A9A5B9ADE
:1003800010821C92188298838C9388E980835B98F2
:100390008AB180638AB98BB180638BB9B4D684E0AB
:1003A00085BD5F9A579A209A22982A9ADF91CF9119
:1003B00008950895089580E091E00E94C00D80E1C5
:1003C00091E00E94FD0AE2EEF0E08081846080838B
:1003D00008951F93CF93DF93EC01E98DE150E23054
:1003E00028F4F0E0E55DFE4F108101C010E0888D3B
:1003F000823009F418608A8D873031F0883031F00E
:10040000863029F4126003C0146001C016605B9A44
:100410001092C9001092C8001092CA002C893D8920
:100420004E895F89211581EE38074105510579F024
:10043000CA01B901969587957795679560587B476E
:10044000814E9F4F0E94990E2150310902C020E138
:1004500030E03093CD002093CC001093CA008C89FB
:100460009D89AE89BF898115914EA105B10511F411
:1004700080E001C082E08093C80088E98093C900D1
:100480005B98DF91CF911F9108951F920F920FB645
:100490000F9211242F933F938F939F93AF93BF930A
:1004A000EF93FF938091CE0090912E019330F9F05D
:1004B00090913D029430D9F4EFE2F1E0A081B18156
:1004C0008C938081918101969183808326813781ED
:1004D0008217930721F484819581918380832FB7BC
:1004E000F894828593850196938782872FBFFF9129
:1004F000EF91BF91AF919F918F913F912F910F906D
:100500000FBE0F901F901895FC01208920FF02C09C
:100510005F9808955F9A8BB180638BB9089580E1ED
:1005200091E00E94D60B80E091E00C94890C8091C0
:100530000E0190910F01009729F0019790930F0100
:1005400080930E010895EF92FF920F931F93CF9324
:10055000DF937B01C901E8012091BD012223E1F075
:100560004091BE012091BF01421316C0E0ECF1E0C2
:1005700050E0BF010E94C80E8091BD01F701808349
:100580008091BE01888319821092BD011092BF0133
:100590001092BE0181E001C080E0DF91CF911F91F8
:1005A0000F91FF90EF900895EF92FF920F931F939A
:1005B000CF93DF931F92CDB7DEB77901633081F41B
:1005C00080E16983B3DE69816093BC01B801C70132
:1005D0000F90DF91CF911F910F91FF90EF9034C357
:1005E0000F90DF91CF911F910F91FF90EF900895A1
:1005F00010920B021092FF01089520912E0180911C
:10060000240190912501A0912601B09127011A9B08
:100610000DC00097A105B10539F0811532EC9307A3
:1006200031E0A307B10511F482E007C00197A105ED
:10063000B10511F483E001C081E080932E01809127
:100640002E01281709F43BC0233011F021111DC0E1
:10065000EFE2F1E02FB7F8948BE391E09183808390
:1006600093838283958384838BEB91E09783868346
:1006700080E890E091878087138612862FBF1092C2
:10068000BB011092BC0180E356DE80912E018230C6
:1006900021F4AEDF1092BD010895833081F41092F1
:1006A000300110922F0110923201109231011092FC
:1006B00034011092330180E33EDE22982A9A089595
:1006C000462F209111012F702093E9002091E8001E
:1006D00020FFFCCF2091200120FF05C050E0BC018D
:1006E00080E191E0AFC70895CF92DF92EF92FF9241
:1006F0000F931F93FA018B010095109520E030E0D5
:10070000980111270027AB0160E070E0042B152B46
:10071000262B372B4CE150E097E068017901042E3D
:1007200004C0F694E794D794C7940A94D2F76C2D3A
:10073000683028F0973059F4C08296E008C0C08233
:100740009150C11004C047505109923031F7492FE0
:10075000425013C0DF01A40FB11D68017901E89474
:10076000C7F8DD24EE24FF24CC92B7E03695279518
:1007700017950795BA95D1F741504111EBCF492F05
:1007800050E09A01A3E0220F331FAA95E1F7206CF5
:100790003F6F3081322B3083E40FF51F319781504A
:1007A0008F7380688083892F1F910F91FF90EF9046
:1007B000DF90CF900895CF93DF9300D000D000D08A
:1007C000CDB7DEB76091BD01662379F08091BF019E
:1007D00081110BC070E07160AE014F5F5F4F81E02F
:1007E00083DF682FCE0101966BDF1092BD01269644
:1007F0000FB6F894DEBF0FBECDBFDF91CF91089545
:100800000F931F93982F40910B02E42FF0E0EB5FC2
:10081000FD4F808380910B028F5F80930B02892FA5
:10082000807C803809F444C0803C09F05FC0292FE7
:100830002873269526952695223008F477C0273010
:1008400079F4492F4F7050E060E070E0409300026F
:1008500050930102609302027093030215E00FC0EF
:10086000892F877090E0A0E0B0E080930002909321
:100870000102A0930202B0930302122F1150809143
:10088000FF01882391F097DF60910B02615085E0B2
:1008900092E016DFE0910B02F0E0EC5FFD4F80810B
:1008A0008093050281E080930B021093FF0145C005
:1008B0008091FF018130D1F5009100021091010279
:1008C0002091020230910302A9016627772722278F
:1008D000332740275127622773274F3F5F4F61051A
:1008E000710521F5892F8F738F5F28C08091FF01DB
:1008F0008230E0F081508093FF01409100025091DE
:100900000102609102027091030227E0440F551F1B
:10091000661F771F2A95D1F7492B40930002509309
:100920000102609302027093030207C044DF6091EA
:100930000B0285E092E0C4DE5BDE80E01F910F9148
:100940000895CF935DDFC82F882309F489C0809173
:10095000BD01811104C0C13009F046C010C09091A2
:10096000BE018091BF019813F6CF04C080E091E0F2
:100970000E94D50D8091BD018111F8CFECCF8091FF
:100980000102813089F517DF909100029093BD013B
:100990001092BF018FE3E0ECF1E0DF01282F1D9200
:1009A0002A95E9F79530A9F058F4923081F018F4BF
:1009B0009130C1F40AC0933091F0943099F407C09B
:1009C000983050F09A3070F409C084E008C088E094
:1009D00006C0C093BE0142C081E101C083E08093A4
:1009E000BE013CC0E8DE3AC08091BD01882381F1A0
:1009F0006091BF01462F50E08C2F90E09A012E5F4E
:100A00003F4F359527952F5F3F4F8217930701F58D
:100A1000FA01E054FE4F809100028083E62FEF5FE1
:100A2000E093BF018091BE018E1749F0F0E0E054E1
:100A3000FE4F9091010290836E5F6093BF01909191
:100A4000BF0189130BC080E091E00E94D50D06C064
:100A5000B2DE60910B0285E092E032DECF91C8CD2C
:100A6000CF91089510922E016ADC7894E3E0FE2E77
:100A70000FE211E0C2DD80912E01833009F48EC0B7
:100A800080E191E065D6EC0197FD0AC080E14EDC83
:100A9000F092BC018091C80085FFFCCFC093CE00CE
:100AA0008FB7F894C0913901D0913A018FBF209748
:100AB00019F4A89949C06AC080E238DCF092BB0101
:100AC000809111018F708093E9008091E80080FF90
:100AD000F0CFCE01C034D10510F08FE390E0E82EC6
:100AE000C0E0D0E02EC080912E01813061F0F8018D
:100AF000A281B3818D91B383A28326813781A2170E
:100B0000B30781F40BC0E0913101F09132016081B3
:100B100080E191E0B5D5882351F3CBCF2481358195
:100B2000338322839FB7F89422853385215031097E
:100B3000338722879FBF90912E01923009F401DF05
:100B40002196EC12D0CFB5CFA89A8091BB01882313
:100B500091F081508093BB0181110DC080912E01D5
:100B6000823039F428DE60910B0285E092E0A8DD46
:100B70003FDD80E2E0DB8091BC01882339F08150C9
:100B80008093BC01811102C080E1D5DB80912E01F0
:100B9000823021F480E091E00E94D50D80E191E067
:100BA000C1D50FD567CF292F332723303105B1F0B9
:100BB0004CF42130310509F439C02230310509F0F7
:100BC0003AC007C02132310539F12232310549F1ED
:100BD00032C0EFE5F0E088EC90E031C09927813039
:100BE000910561F08230910581F0892B21F5E4ECCB
:100BF000F0E0E491F0E084EC90E021C0E0EBF0E084
:100C0000E491F0E080EB90E01AC0E4E7F0E0E491DA
:100C1000F0E084E790E013C0E9E0F0E087E191E0E4
:100C20000EC0E8EBF1E089E391E009C0E2E1F0E019
:100C300087E291E004C0E0E0F0E080E090E0DA01DB
:100C40008D939C93CF010895680F791F09C0FC0113
:100C50002191CF013091C80035FFFCCF2093CE0009
:100C600086179707A1F70895BF92CF92DF92EF9270
:100C7000FF920F931F93CF93DF937C018B01EA01C7
:100C8000D7D1B82E811132C0209731F02881398117
:100C9000021B130BE20EF31EC12CD12C22C080913B
:100CA000E80085FD14C08091E8008E778093E8000D
:100CB000209749F0888199818C0D9D1D99838883A7
:100CC00025E0B22E13C0B4D1882359F00EC0F7012D
:100CD00081917F018093F10001501109FFEFCF1A3C
:100CE000DF0A01151105D9F601C0B82E8B2DDF9151
:100CF000CF911F910F91FF90EF90DF90CF90BF9019
:100D0000089520914402309145022617370748F094
:100D10006115710539F42091E8002E772093E800E1
:100D200001C0B9019C0180E034C090913D0299233B
:100D300009F443C0953009F442C09091E80093FD56
:100D40003AC09091E80092FD30C09091E80090FF89
:100D500020C08091F20090E0F901821B930B05C046
:100D600021912093F100615071099F01280F391FD3
:100D70006115710519F02830310590F381E02830B4
:100D8000310509F080E09091E8009E779093E800AB
:100D90009F016115710549F68111C7CF06C0809189
:100DA0003D02882351F0853051F08091E80082FFA8
:100DB000F6CF80E0089581E0089582E0089583E011
:100DC00008956115710529F42091E8002B7720938F
:100DD000E8009C0121C080913D02882381F185308B
:100DE00041F18091E80083FD26C08091E80082FFF8
:100DF000F2CFF90107C08091F10081939F0161500A
:100E0000710929F09F018091F2008111F4CF809146
:100E1000E8008B778093E80061157105E1F6809119
:100E2000E80080FD0AC080913D02882341F08530B2
:100E3000B1F783E0089581E0089580E0089582E0AD
:100E4000089520914402309145022617370748F053
:100E50006115710539F42091E8002E772093E800A0
:100E600001C0B9019C0180E035C090913D029923F9
:100E700009F444C0953009F443C09091E80093FD13
:100E80003BC09091E80092FD31C09091E80090FF46
:100E900021C08091F20090E0F901821B930B06C003
:100EA00024912093F1003196615071099C012E0F1D
:100EB0003F1F6115710519F02830310588F381E075
:100EC0002830310509F080E09091E8009E779093FA
:100ED000E8009F016115710541F68111C6CF06C07A
:100EE00080913D02882351F0853051F08091E800D7
:100EF00082FFF6CF80E0089581E0089582E00895B2
:100F000083E00895982F2CC09093E900981739F04A
:100F10007091EC002091ED005091F00003C0242F5F
:100F2000762F50E021FD02C09F5F1AC03091EB0088
:100F30003E7F3093EB003091ED003D7F3093ED002C
:100F40003091EB0031603093EB007093EC00209314
:100F5000ED005093F0002091EE0027FDE5CF07C093
:100F6000953090F28F708093E90081E0089580E0E1
:100F700008950F931F93CF93DF93062FEC0110E09A
:100F80002EC09881911103C01F5F259628C02C8127
:100F9000E981FA816B81892F8F70853010F080E0B4
:100FA00021C0223010F056E001C052E028E030E0CD
:100FB00040E003C04F5F220F331F2E173F07D0F3CF
:100FC0004295407F452B991F9927991F6295660F7F
:100FD000660F607C692B96DF8111D6CFE0CF1013AE
:100FE000D0CF81E0DF91CF911F910F910895809133
:100FF0003E0287FD05C08091E80080FF0EC012C050
:101000008091E80082FD05C080913D028111F8CFFA
:1010100008958091E8008B7708C080913D0281118E
:10102000EACF08958091E8008E778093E8000895D4
:101030008091E4009091E50045E62091EC0020FDD0
:101040001FC023C020913D02222391F0253091F052
:101050002091EB0025FD10C02091E4003091E500C7
:101060002817390751F34150C90139F784E0089531
:1010700082E0089583E0089581E0089580E0089576
:101080002091E80020FFDECFF9CF2091E80022FF79
:10109000D9CFF4CF41D043D08091D8008F778093BF
:1010A000D8008091D80080688093D8008091D800C3
:1010B0008F7D8093D80084E089BD86E089BD09B426
:1010C00000FEFDCF10923D021092390210923B02B9
:1010D00010923A0242E060E080E014DF8091E1008B
:1010E0008E7F8093E1008091E20081608093E20036
:1010F0008091E20088608093E2008091E0008E7F22
:101100008093E0000895E3E6F0E080818E7F8083A5
:1011100081E080933C02BECF1092E20008951092CD
:10112000E10008951F920F920FB60F9211242F9392
:101130003F934F935F936F937F938F939F93AF935F
:10114000BF93EF93FF938091E10082FF0AC08091EB
:10115000E20082FF06C08091E1008B7F8093E10076
:10116000E6D98091E10080FF17C08091E20080FF06
:1011700013C08091E2008E7F8093E2008091E200B4
:1011800080618093E2008091D80080628093D800D3
:1011900019BC10923D020ED98091E10084FF2FC04E
:1011A0008091E20084FF2BC084E089BD86E089BD88
:1011B00009B400FEFDCF8091D8008F7D8093D800C8
:1011C0008091E1008F7E8093E1008091E2008F7E2C
:1011D0008093E2008091E20081608093E200809140
:1011E0003902882311F084E007C08091E30087FF73
:1011F00002C083E001C081E080933D02DAD8809193
:10120000E10083FF27C08091E20083FF23C080912B
:10121000E100877F8093E10082E080933D0210929D
:1012200039028091E1008E7F8093E1008091E2009D
:101230008E7F8093E2008091E20080618093E200E3
:1012400042E060E080E05EDE8091F00088608093A4
:10125000F000B6D1FF91EF91BF91AF919F918F9127
:101260007F916F915F914F913F912F910F900FBEA2
:101270000F901F9018951F920F920FB60F92112486
:101280002F933F934F935F936F937F938F939F938E
:10129000AF93BF93CF93EF93FF938091E9008F704B
:1012A0009091EC0090FF02C090E801C090E0C92F3F
:1012B000C82B1092E9008091F000877F8093F000A6
:1012C00078941CD01092E9008091F000886080939F
:1012D000F000CF70C093E900FF91EF91CF91BF91E3
:1012E000AF919F918F917F916F915F914F913F91BE
:1012F0002F910F900FBE0F901F9018951F93CF93B3
:10130000DF93CDB7DEB7AC970FB6F894DEBF0FBE54
:10131000CDBFEEE3F2E08091F100819322E0E6346C
:10132000F207C9F7FCD88091E80083FF31C18091B2
:101330003E0290913F02953009F487C038F4913015
:10134000B1F170F0933009F023C131C0983009F445
:10135000F3C0993009F4FFC0963009F019C19BC061
:10136000803821F0823809F013C108C080913A0218
:1013700090913B02992389F082600FC080914202D4
:10138000909143028F7099278093E9008091EB0040
:1013900085FB882780F91092E9009091E800977FFB
:1013A0009093E8008093F1001092F100D0C0882360
:1013B00019F0823009F0ECC08F7121F0823009F011
:1013C000E7C00BC080914002813009F0E1C093304A
:1013D00009F080E080933B022FC080914002811190
:1013E0002BC080914202909143028F709927009701
:1013F00009F4CEC08093E9002091EB0020FF1CC0CF
:1014000020913F02233021F48091EB00806212C0D2
:101410009091EB0090619093EB0021E030E001C0EF
:10142000220F8A95EAF72093EA001092EA00809151
:10143000EB0088608093EB001092E9008091E80057
:10144000877F8093E800D3DDA3C08111A1C0809184
:101450004002909141028F779927182F9091E300D5
:101460009078982B9093E3008091E800877F809399
:10147000E800BDDD8091E80080FFFCCF8091E300B3
:1014800080688093E300112311F083E001C082E0C3
:1014900080933D027DC08058823008F079C08091F1
:1014A0004002909141028C3D23E0920771F583E068
:1014B0008A838AE289834FB7F894DE01139620E08D
:1014C0003EE051E2E32FF0E050935700E49120FF1B
:1014D00003C0E295EF703F5FEF708E2F90E0EA302F
:1014E00010F0C79601C0C0968D939D932F5F243155
:1014F00049F74FBF8091E800877F8093E8006AE258
:1015000070E0CE010196FDDB11C0AE01455D5F4F7D
:101510006091420248DB0097D9F12091E800277FD3
:101520002093E800BC018BA59CA58BDC8091E80092
:101530008B778093E8002CC0803851F58091E800CB
:10154000877F8093E800809139028093F100809139
:10155000E8008E7776CF81111BC0909140029230C7
:10156000B8F48091E800877F8093E8009093390277
:101570003EDD80913902811104C08091E30087FF34
:1015800002C084E001C081E080933D020E94DB0143
:101590008091E80083FF0AC08091E800877F8093F4
:1015A000E8008091EB0080628093EB00AC960FB670
:1015B000F894DEBF0FBECDBFDF91CF911F9108958C
:1015C0000895CF9380913D028823A9F08091E9008E
:1015D0008F709091EC0090FF02C090E801C090E005
:1015E000C92FC82B1092E9008091E80083FD86DEA8
:1015F000CF70C093E900CF910895CF93DF93EC01B2
:101600004096FC018BE0DF011D928A95E9F782E0AC
:101610008C83898783E08E8761E0CE010196A9DC07
:10162000882361F061E0CE010696A3DC882331F0C7
:1016300061E0CE010B96DF91CF919BCC80E0DF91F2
:10164000CF9108950F931F93FC01CB01BA01209114
:101650003D02243089F40489158926893789012BB4
:10166000022B032B49F021812F702093E90040E0E9
:1016700050E01F910F91F8CA82E01F910F910895D9
:10168000CF93C62F20913D022430F1F4FC01448910
:10169000558966897789452B462B472BA9F081818F
:1016A0008F708093E9008091E80085FF04C0C093AB
:1016B000F10080E00AC08091E8008E778093E80016
:1016C000B7DC8823A1F301C082E0CF910895209177
:1016D0003D02243029F5FC014489558966897789C2
:1016E000452B462B472BE1F081818F708093E900D9
:1016F0008091F200811102C080E008959091E8008D
:101700008091E8008E778093E80095FDF5CF90DC1E
:10171000811107C09091E8009E779093E8000895AA
:1017200082E0089520913D02243089F4FC0144892F
:10173000558966897789452B462B472B41F02181B6
:101740002F702093E9002091E80020FDC0CF08957C
:1017500020913D02243019F02FEF3FEF24C0FC010F
:101760004489558966897789452B462B472BA1F3F8
:1017700086818F708093E9008091E80082FFECCF32
:101780008091F200882321F02091F10030E002C026
:101790002FEF3FEF8091F200811105C08091E800AA
:1017A0008B778093E800C90108950895CF93DF9364
:1017B000EC018091E80083FFA9C0888190E020912E
:1017C0004202309143022817390709F09FC08091E7
:1017D0003F02813261F020F4803209F097C03DC0B1
:1017E000823209F46EC0833209F090C07FC08091CC
:1017F0003E02813A09F08AC08091E800877F809399
:10180000E8008091E80080FFFCCF4C895D896E89FB
:101810007F894093F100BB27A72F962F852F8093B8
:10182000F100CB01AA27BB278093F100472F552752
:10183000662777274093F100888D8093F100898D8A
:101840008093F1008A8D8093F1008091E8008E777B
:101850008093E800DF91CF91CACB80913E02813224
:1018600009F054C08091E800877F8093E80005C0AC
:1018700080913D02882309F449C08091E80082FFED
:10188000F7CF3091F1002091F1009091F10080911B
:10189000F1003C8B2D8B9E8B8F8B8091F100888F7C
:1018A0008091F100898F8091F1008A8F8091E8000A
:1018B0008B778093E8009BDBCE01DF91CF910C9476
:1018C000E90180913E02813209F58091E800877F2D
:1018D0008093E8008CDB8091400290914102998BCB
:1018E000888BCE01DF91CF910C94840280913E02CF
:1018F000813261F48091E800877F8093E80077DB94
:1019000060914002CE01DF91CF914FCFDF91CF9117
:1019100008956F927F928F929F92AF92BF92CF92D3
:10192000DF92EF92FF920F931F93CF93DF9300D03C
:101930001F92CDB7DEB77C01ADB6BEB68091E80090
:1019400083FF07C1F701808190E02091420230912E
:1019500043022817390709F0FCC080913F02833009
:1019600009F49EC030F4813071F0823009F0F1C08A
:10197000D4C08A3009F4B9C08B3009F4A2C08930D0
:1019800009F0E7C04CC080913E02813A09F0E1C005
:101990008DB69EB61A821982809140021091410242
:1019A0008B83F70140858DB79EB7841B91090FB6D5
:1019B000F8949EBF0FBE8DBFCDB6DEB6EFEFCE1A48
:1019C000DE0A360150E060E070E0C601EAD1412F46
:1019D00041508E010F5F1F4F9601BE016D5F7F4F1B
:1019E000C7010E94A302F701268137812115310525
:1019F00029F0408550E0B601C901CAD11092E90032
:101A00008091E800877F8093E80069817A81C30133
:101A100078D98091E8008B778093E80039C0809175
:101A20003E02813209F095C08DB69EB60091440207
:101A30001091450270904002609041028DB79EB7B0
:101A4000801B910B0FB6F8949EBF0FBE8DBFCDB615
:101A5000DEB6EFEFCE1ADE0A8091E800877F809332
:101A6000E800B801C601ADD98091E8008E77809377
:101A7000E80021E0711001C020E030E0021B130BF0
:101A80002C0D3D1D462D4150672DC7010E94D402EB
:101A9000882D992D0FB6F8949EBF0FBE8DBF59C0EB
:101AA00080913E02813A09F054C08091E800877F1E
:101AB0008093E8008091E80080FFFCCFF7018185EA
:101AC00040C080913E02813209F043C08091E8001D
:101AD000877F8093E8008BDA9091400281E091113A
:101AE00001C080E0F701818734C080913E028132DD
:101AF00081F58091E800877F8093E80078DA809113
:101B0000400290914102882736E0969587953A9554
:101B1000E1F7F701958784871CC080913E02813AE6
:101B2000C1F48091E800877F8093E8008091E8000D
:101B300080FFFCCFF70184859585969587959695CE
:101B400087958093F1008091E8008E778093E8007C
:101B50004EDA0FB6F894BEBE0FBEADBE0F900F901A
:101B60000F90DF91CF911F910F91FF90EF90DF9039
:101B7000CF90BF90AF909F908F907F906F9008957F
:101B80009C01275F3F4FF90127E0DF011D922A9555
:101B9000E9F721E0FC01218724EF31E03587248734
:101BA00023E0248361E00196E4C94F925F926F9233
:101BB0007F928F929F92AF92BF92CF92DF92EF92DD
:101BC000FF920F931F93CF93DF9300D01F92CDB757
:101BD000DEB77C01ADB6BEB680913D02843009F01F
:101BE0008FC08091E4009091E500F7012285338554
:101BF0002817390709F484C081818F708093E90028
:101C00008091E80085FF7CC06DB67EB640858DB7BB
:101C10009EB7841B91090FB6F8949EBF0FBE8DBF6F
:101C2000CDB6DEB6EFEFCE1ADE0A1B821A8219821B
:101C3000460150E060E070E0C601B3D08E010F5F56
:101C40001F4F960140E0BE016D5F7F4FC7010E94AC
:101C5000A302582EF70184859585892B31F001E088
:101C600010E086859785892B11F000E010E0F701E0
:101C7000C680D780C114D10489F049815A81B60148
:101C8000C40179D044244394009709F4412CF7010E
:101C9000408550E0B401C6017BD001C0412C898150
:101CA0009A81892BF9F0511004C0411002C000FF45
:101CB00019C0F701848595859787868781818F7004
:101CC0008093E9008B8181118093F10069817A8191
:101CD00040E050E0C4010E9434068091E8008E7715
:101CE0008093E8008091E4009091E500F7019387EC
:101CF0008287862D972D0FB6F8949EBF0FBE8DBF9D
:101D00000FB6F894BEBE0FBEADBE0F900F900F90F1
:101D1000DF91CF911F910F91FF90EF90DF90CF90C7
:101D2000BF90AF909F908F907F906F905F904F90FB
:101D30000895A1E21A2EAA1BBB1BFD010DC0AA1F0C
:101D4000BB1FEE1FFF1FA217B307E407F50720F024
:101D5000A21BB30BE40BF50B661F771F881F991F9F
:101D60001A9469F760957095809590959B01AC01E8
:101D7000BD01CF010895FB01DC0104C08D910190EC
:101D8000801921F441505040C8F7881B990B0895E1
:101D9000FB01DC0102C001900D9241505040D8F788
:101DA0000895DC0101C06D9341505040E0F7089563
:041DB000F894FFCFD5
:101DB40002812000000100003F000000000000003C
:101DC400008340000001044000000182080000017B
:0E1DD4000000000000000000000000302000B1
:00000001FF
