:1000000090C00000A9C00000A7C00000A5C000006B
:10001000A3C00000A1C000009FC000009DC0000060
:100020009BC0000099C0000097C00000ABC3000057
:1000300093C0000091C000008FC000008DC0000080
:100040008BC0000089C0000087C0000085C0000090
:1000500083C0000081C000007FC000007DC00000A0
:100060007BC0000079C0000077C0000075C00000B0
:1000700073C0000020034C005500460041002000E2
:100080004D006F007500730065002000440065009E
:100090006D006F00000018034400650061006E00F1
:1000A0002000430061006D006500720061000000E7
:1000B0000403090409022200010100C032090400FE
:1000C000000103010200092111010001223A000789
:1000D0000581030800051201100100000008EB0370
:1000E000412001000102000105010902A1010901ED
:1000F000A1000509190129031500250195037501C2
:10010000810295017505810105010930093116FF4C
:10011000FF26010036FFFF460100950275088106A3
:10012000C0C011241FBECFEFD2E0DEBFCDBF11E0B3
:10013000A0E0B1E0EEE1F0E102C005900D92A03147
:10014000B107D9F711E0A0E1B1E001C01D92A032E2
:10015000B107E1F725D061C753CF9BB1809590637C
:1001600089238BB9089584B7877F84BF88E10FB650
:10017000F89480936000109260000FBE90E080E8D9
:100180000FB6F89480936100909361000FBE8AB11E
:1001900080638AB98BB180638BB925982D9AE3C2AD
:1001A000E2DF80E2DADF789480E091E057D6F0D4A5
:1001B000FBCF80E1D2CF80E2D0CF80E091E039D692
:1001C0009091E20094609093E200882311F080E126
:1001D00001C080E2C2CF80E091E0F6C480910E01C0
:1001E00090910F01009729F0019790930F01809350
:1001F0000E0108950F931F931D9B03C08BB18F7C3D
:1002000006C0F9018081816080838BB180638BB9E6
:1002100083E090E0F8019183808381E01F910F914A
:1002200008950895292F332723303105B1F04CF478
:100230002130310509F439C02230310509F03AC0C6
:1002400007C02132310539F12232310549F132C07E
:10025000E2E2F0E084EB90E031C099278130910533
:1002600061F08230910581F0892B21F5E0EBF0E01F
:10027000E491F0E080EB90E021C0E6E9F0E0E49169
:10028000F0E086E990E01AC0E4E7F0E0E491F0E005
:1002900084E790E013C0E9E0F0E086EC90E00EC067
:1002A000EAE3F0E088EE90E009C0E2E1F0E086EDFC
:1002B00090E004C0E0E0F0E080E090E0DA018D93AF
:1002C0009C93CF010895BF92CF92DF92EF92FF925D
:1002D0000F931F93CF93DF937C018B01EA01D8D159
:1002E000B82E811133C0209731F028813981021B4B
:1002F000130BE20EF31EC12CD12C23C08091E80019
:1003000085FD15C08091E8008E778093E80040D489
:10031000209749F0888199818C0D9D1D9983888350
:1003200025E0B22E13C0B4D1882359F00EC0F701D6
:1003300081917F018093F10001501109FFEFCF1AE5
:10034000DF0A01151105D1F601C0B82E8B2DDF9102
:10035000CF911F910F91FF90EF90DF90CF90BF90C2
:10036000089520911E0130911F012617370748F08C
:100370006115710539F42091E8002E772093E8008B
:1003800001C0B9019C0180E034C09091170199230C
:1003900009F443C0953009F442C09091E80093FD00
:1003A0003AC09091E80092FD30C09091E80090FF33
:1003B00020C08091F20090E0F901821B930B05C0F0
:1003C00021912093F100615071099F01280F391F7D
:1003D0006115710519F02830310590F381E028305E
:1003E000310509F080E09091E8009E779093E80055
:1003F0009F016115710549F68111C7CF06C0809133
:100400001701882351F0853051F08091E80082FF78
:10041000F6CF80E0089581E0089582E0089583E0BA
:1004200008956115710529F42091E8002B77209338
:10043000E8009C0121C080911701882381F185305B
:1004400041F18091E80083FD26C08091E80082FFA1
:10045000F2CFF90107C08091F10081939F016150B3
:10046000710929F09F018091F2008111F4CF8091F0
:10047000E8008B778093E80061157105E1F68091C3
:10048000E80080FD0AC080911701882341F0853083
:10049000B1F783E0089581E0089580E0089582E057
:1004A000089520911E0130911F012617370748F04B
:1004B0006115710539F42091E8002E772093E8004A
:1004C00001C0B9019C0180E035C0909117019923CA
:1004D00009F444C0953009F443C09091E80093FDBD
:1004E0003BC09091E80092FD31C09091E80090FFF0
:1004F00021C08091F20090E0F901821B930B06C0AD
:1005000024912093F1003196615071099C012E0FC6
:100510003F1F6115710519F02830310588F381E01E
:100520002830310509F080E09091E8009E779093A3
:10053000E8009F016115710541F68111C6CF06C023
:1005400080911701882351F0853051F08091E800A7
:1005500082FFF6CF80E0089581E0089582E008955B
:1005600083E00895982F2CC09093E900981739F0F4
:100570007091EC002091ED005091F00003C0242F09
:10058000762F50E021FD02C09F5F1AC03091EB0032
:100590003E7F3093EB003091ED003D7F3093ED00D6
:1005A0003091EB0031603093EB007093EC002093BE
:1005B000ED005093F0002091EE0027FDE5CF07C03D
:1005C000953090F28F708093E90081E0089580E08B
:1005D00008950F931F93CF93DF93062FEC0110E044
:1005E0002EC09881911103C01F5F259628C02C81D1
:1005F000E981FA816B81892F8F70853010F080E05E
:1006000021C0223010F056E001C052E028E030E076
:1006100040E003C04F5F220F331F2E173F07D0F378
:100620004295407F452B991F9927991F6295660F28
:10063000660F607C692B96DF8111D6CFE0CF101357
:10064000D0CF81E0DF91CF911F910F9108958091DC
:10065000180187FD05C08091E80080FF0EC012C020
:100660008091E80082FD05C0809117018111F8CFCB
:1006700008958091E8008B7708C08091170181115F
:10068000EACF08958091E8008E778093E80008957E
:100690008091E4009091E50045E62091EC0020FD7A
:1006A0001FC023C020911701222391F0253091F023
:1006B0002091EB0025FD10C02091E4003091E50071
:1006C0002817390751F34150C90139F784E00895DB
:1006D00082E0089583E0089581E0089580E0089520
:1006E0002091E80020FFDECFF9CF2091E80022FF23
:1006F000D9CFF4CF41D043D08091D8008F77809369
:10070000D8008091D80080688093D8008091D8006C
:100710008F7D8093D80084E089BD86E089BD09B4CF
:1007200000FEFDCF109217011092130110921501D7
:100730001092140142E060E080E014DF8091E1005B
:100740008E7F8093E1008091E20081608093E200DF
:100750008091E20088608093E2008091E0008E7FCB
:100760008093E0000895E3E6F0E080818E7F80834F
:1007700081E080931601BECF1092E200089510929E
:10078000E10008951F920F920FB60F9211242F933C
:100790003F934F935F936F937F938F939F93AF9309
:1007A000BF93EF93FF938091E10082FF0AC0809195
:1007B000E20082FF06C08091E1008B7F8093E10020
:1007C0000DDD8091E10080FF17C08091E20080FF85
:1007D00013C08091E2008E7F8093E2008091E2005E
:1007E00080618093E2008091D80080628093D8007D
:1007F00019BC10921701DFDC8091E10084FF2FC04B
:100800008091E20084FF2BC084E089BD86E089BD31
:1008100009B400FEFDCF8091D8008F7D8093D80071
:100820008091E1008F7E8093E1008091E2008F7ED5
:100830008093E2008091E20081608093E2008091E9
:100840001301882311F084E007C08091E30087FF43
:1008500002C083E001C081E080931701AADC80918F
:10086000E10083FF22C08091E20083FF1EC08091DF
:10087000E100877F8093E10082E08093170110926E
:1008800013018091E1008E7F8093E1008091E2006E
:100890008E7F8093E2008091E20080618093E2008D
:1008A00042E060E080E05EDE72D1FF91EF91BF91A7
:1008B000AF919F918F917F916F915F914F913F91F8
:1008C0002F910F900FBE0F901F9018951F93CF93ED
:1008D000DF93CDB7DEB7AC970FB6F894DEBF0FBE8F
:1008E000CDBFE8E1F1E08091F100819321E0E032B9
:1008F000F207C9F770DC8091E80083FF30C1809176
:10090000180190911901953009F487C038F491309D
:10091000B1F170F0933009F022C131C0983009F480
:10092000F3C0993009F4FFC0963009F018C19BC09C
:10093000803821F0823809F012C108C0809114017A
:1009400090911501992389F082600FC080911C015C
:1009500090911D018F7099278093E9008091EB00A1
:1009600085FB882780F91092E9009091E800977F35
:100970009093E8008093F1001092F100D0C088239A
:1009800019F0823009F0EBC08F7121F0823009F04C
:10099000E6C00BC080911A01813009F0E0C09330AD
:1009A00009F080E0809315012FC080911A01811118
:1009B0002BC080911C0190911D018F709927009789
:1009C00009F4CDC08093E9002091EB0020FF1CC00A
:1009D00020911901233021F48091EB00806212C034
:1009E0009091EB0090619093EB0021E030E001C02A
:1009F000220F8A95EAF72093EA001092EA0080918C
:100A0000EB0088608093EB001092E9008091E80091
:100A1000877F8093E8001BDEA2C08111A0C0809177
:100A20001A0190911B018F779927182F9091E3005D
:100A30009078982B9093E3008091E800877F8093D3
:100A4000E80005DE8091E80080FFFCCF8091E300A4
:100A500080688093E300112311F083E001C082E0FD
:100A6000809317017CC08058823008F078C0809154
:100A70001A0190911B018C3D23E0920771F583E0F0
:100A80008A838AE289834FB7F894DE01139620E0C7
:100A90003EE051E2E32FF0E050935700E49120FF55
:100AA00003C0E295EF703F5FEF708E2F90E0EA3069
:100AB00010F0C79601C0C0968D939D932F5F24318F
:100AC00049F74FBF8091E800877F8093E8006AE292
:100AD00070E0CE01019645DC11C0AE01455D5F4F6F
:100AE00060911C019FDB0097D1F12091E800277FE6
:100AF0002093E800BC018BA59CA5D3DC8091E80085
:100B00008B778093E8002BC0803849F58091E8000E
:100B1000877F8093E800809113018093F10080919A
:100B2000E8008E7776CF81111AC090911A01923029
:100B3000B0F48091E800877F8093E80090931301E0
:100B400086DD80911301811104C08091E30087FF4D
:100B500002C084E001C081E0809317012EDB809108
:100B6000E80083FF0AC08091E800877F8093E80057
:100B70008091EB0080628093EB00AC960FB6F89406
:100B8000DEBF0FBECDBFDF91CF911F9108950895B5
:100B9000CF93809117018823A9F08091E9008F708D
:100BA0009091EC0090FF02C090E801C090E0C92F46
:100BB000C82B1092E9008091E80083FD87DECF709A
:100BC000C093E900CF9108956F927F928F929F9288
:100BD000AF92BF92CF92DF92EF92FF920F931F934B
:100BE000CF93DF9300D01F92CDB7DEB77C01ADB6B7
:100BF000BEB68091E80083FF05C1F701808190E0D7
:100C000020911C0130911D012817390709F0FAC005
:100C100080911901833009F49CC030F4813071F067
:100C2000823009F0EFC0D2C08A3009F4B7C08B30EF
:100C300009F4A0C0893009F0E5C04BC080911801CB
:100C4000813A09F0DFC08DB69EB61A821982809172
:100C50001A0110911B018B83F70140858DB79EB758
:100C6000841B91090FB6F8949EBF0FBE8DBFCDB601
:100C7000DEB6EFEFCE1ADE0A360150E060E070E03B
:100C8000C601C4D1412F41508E010F5F1F4F960105
:100C9000BE016D5F7F4FC701ADDAF7012681378155
:100CA0002115310529F0408550E0B601C901A5D1D3
:100CB0001092E9008091E800877F8093E8006981C5
:100CC0007A81C3014EDB8091E8008B778093E80046
:100CD00038C080911801813209F094C08DB69EB65B
:100CE00000911E0110911F0170901A0160901B016C
:100CF0008DB79EB7801B910B0FB6F8949EBF0FBEA9
:100D00008DBFCDB6DEB6EFEFCE1ADE0A8091E800D9
:100D1000877F8093E800B801C60183DB8091E800FB
:100D20008E778093E80021E0711001C020E030E070
:100D3000021B130B2C0D3D1D462D4150672DC70185
:100D400070DA882D992D0FB6F8949EBF0FBE8DBF17
:100D500059C080911801813A09F054C08091E8008F
:100D6000877F8093E8008091E80080FFFCCFF70147
:100D7000818540C080911801813209F043C0809183
:100D8000E800877F8093E80062DC90911A0181E09F
:100D9000911101C080E0F701818734C08091180172
:100DA000813281F58091E800877F8093E8004FDCF5
:100DB00080911A0190911B01882736E096958795BE
:100DC0003A95E1F7F701958784871CC08091180157
:100DD000813AC1F48091E800877F8093E800809198
:100DE000E80080FFFCCFF70184859585969587956F
:100DF000969587958093F1008091E8008E77809397
:100E0000E80025DC0FB6F894BEBE0FBEADBE0F9055
:100E10000F900F90DF91CF911F910F91FF90EF9066
:100E2000DF90CF90BF90AF909F908F907F906F900A
:100E300008959C01275F3F4FF90127E0DF011D92D4
:100E40002A95E9F721E0FC01218724EF31E035877D
:100E5000248723E0248361E00196BBCB4F925F920D
:100E60006F927F928F929F92AF92BF92CF92DF92BA
:100E7000EF92FF920F931F93CF93DF9300D01F92B7
:100E8000CDB7DEB77C01ADB6BEB680911701843018
:100E900009F08DC08091E4009091E500F701228572
:100EA00033852817390709F482C081818F708093B8
:100EB000E9008091E80085FF7AC06DB67EB6408576
:100EC0008DB79EB7841B91090FB6F8949EBF0FBED5
:100ED0008DBFCDB6DEB6EFEFCE1ADE0A1B821A82C8
:100EE0001982460150E060E070E0C6018FD08E01AB
:100EF0000F5F1F4F960140E0BE016D5F7F4FC7013E
:100F000079D9582EF70184859585892B31F001E038
:100F100010E086859785892B11F000E010E0F7013D
:100F2000C680D780C114D10489F049815A81B601A5
:100F3000C40156D044244394009709F4412CF7018E
:100F4000408550E0B401C60158D001C0412C8981D0
:100F50009A81892BF1F0511004C0411002C000FFAA
:100F600018C0F701848595859787868781818F7062
:100F70008093E9008B8181118093F10069817A81EE
:100F800040E050E0C4019FD98091E8008E778093C3
:100F9000E8008091E4009091E500F7019387828753
:100FA000862D972D0FB6F8949EBF0FBE8DBF0FB63E
:100FB000F894BEBE0FBEADBE0F900F900F90DF91A4
:100FC000CF911F910F91FF90EF90DF90CF90BF9046
:100FD000AF909F908F907F906F905F904F9008950B
:100FE000FB01DC0104C08D910190801921F4415076
:100FF0005040C8F7881B990B0895FB01DC0102C023
:1010000001900D9241505040D8F70895DC0101C085
:0E1010006D9341505040E0F70895F894FFCFE3
:10101E000081080000011001030000000000000024
:00000001FF
