:1000000088C00000A2C00000A0C000009EC0000088
:100010009CC000009AC0000098C0000096C000007C
:1000200094C0000092C0000090C00000A3C6000071
:100030004AC700008AC0000088C0000086C00000D7
:1000400084C0000082C0000080C000007EC00000AC
:100050007CC000007AC0000078C0000032C20000FE
:1000600074C0000072C0000070C000006EC00000CC
:100070006CC000002E034C005500460041002000DB
:100080005500530042002D0052005300320033004F
:1000900032002000410064006100700074006500BF
:1000A0007200000018034400650061006E0020002B
:1000B000430061006D0065007200610000000403F0
:1000C000090409023E00020100C0320904000001D7
:1000D0000202010005240010010424020605240682
:1000E0000001070582030800FF09040100020A005D
:1000F0000000070504021000050705830210000533
:100100001201100102000008EB03686E01000102F9
:10011000DC0111241FBECFEFD2E0DEBFCDBF11E066
:10012000A0E0B1E0E6E2F7E102C005900D92A6334F
:10013000B107D9F712E0A6E3B1E001C01D92A535E1
:10014000B107E1F763D00C94910B5ACFE6E3F1E0ED
:100150004FB7F894208131812115310509F41DC074
:10016000828190E05481851B9109019797FF03C01C
:100170005381850F911DD901A80FB91F6C938481FC
:100180009381891308C09281911101C08283828179
:100190008150828302C08F5F84834FBF0895CF93C5
:1001A000DF9384B7877F84BF28E10FB6F89420934C
:1001B0006000109260000FBE84E085BD80E190E099
:1001C0009093CD008093CC00CAECD0E096E0988369
:1001D000A8ECB0E082E08C93E9ECF0E02083539A45
:1001E0005A9A5B9A10821C92188298838C9388E9A1
:1001F00080835B988AB180638AB98BB180638BB945
:10020000AAD55F9A579ADF91CF910895E6E3F1E07E
:100210002FB7F89486E491E091838083128284E67C
:10022000838314822FBF10923B0186EF91E0D6D2D8
:1002300010924501BBD2C7D2B2DF7894C6E3D1E0B9
:1002400080913E01811106C083B1807283B9811112
:1002500001C068D280E191E00E94B10997FD19C008
:100260004091240150912501609126017091270150
:10027000413051056105710561F05C98909145012F
:100280009C60909345019091C80095FFFCCF8093AE
:10029000CE002FB7F8948091360190913701892BC9
:1002A00019F080913A0101C080E02FBF90E00097E3
:1002B00019F4A89972C0F8C05D9820914501236097
:1002C00020934501209111012F702093E900209186
:1002D000E80020FFEECF8031910510F08FE090E034
:1002E000F82E00E010E056C080913B01882331F0E9
:1002F0008091450180638093450101C013D28091B4
:10030000200180FD0CC080913B01882341F0FE015B
:100310002FB7F89480819181892B61F531C07FB727
:10032000F89420913601309137012115310541F0C3
:1003300040913A01442321F050E01416150624F0B0
:100340007FBF6FEF7FEF10C08091380190E0841B7A
:10035000950B97FF04C040913901840F911DF9015D
:10036000E80FF91F60817FBF80E191E092D7882379
:1003700071F29FCF8481811101C002C081508483BA
:100380002FBF80913B01882319F0815080933B015E
:100390000F5F1F4FF012A8CF8CCFA89A9091450104
:1003A000892F807309F45EC0892F82958F708D5FCD
:1003B0008370282F2295207F9F7C922B909345015C
:1003C000811150C080913E0181114CC0E091F60135
:1003D000E6FF15C0E695E695E695E770F0E0E55096
:1003E000FE4F608186E391E0B1DE8091F60186FBED
:1003F000882780F990913B01890F80933B01809180
:10040000F60187FD2BC0869586958695877000E05E
:1004100010E0E82EF12C86E3C82E81E0D82ECE0C19
:10042000DF1C09C0F601E00FF11FEB53FF4F6081A5
:1004300086E391E08BDE01501109C801809590950B
:100440008E159F057CF38091F6018695869586959D
:10045000877090913B01890F80933B0186EF91E07B
:10046000BDD170D190914501892F837049F08150A1
:1004700083709C7F982B90934501811101C05D9AF8
:1004800090914501892F8C7079F0892F86958695FA
:100490008D5F8370282F220F220F937F922B9093D2
:1004A0004501811101C05C9A80E191E044D7B0D64A
:1004B000C7CE0895089580E191E0C6C680E191E03D
:1004C0007EC71F920F920FB60F9211242F933F9366
:1004D0004F935F938F939F93AF93BF93EF93FF934C
:1004E0004091CE0080914C028430E9F4E6E3F1E0E3
:1004F0002FB7F894808191810097A1F054813381C6
:10050000531301C00FC03281DC01A30FB11D4C9306
:10051000832F8F5F82839381891301C0128284812C
:100520008F5F84832FBFFF91EF91BF91AF919F9118
:100530008F915F914F913F912F910F900FBE0F9030
:100540001F901895292F33272230310539F0233099
:10055000310549F02130310521F128C0EEE3F0E00A
:1005600082EC90E027C099278130910561F08230BC
:10057000910581F0892BD1F4EEEBF0E0E491F0E00D
:100580008EEB90E017C0E4EAF0E0E491F0E084EA5A
:1005900090E010C0E4E7F0E0E491F0E084E790E060
:1005A00009C0E2E1F0E080E091E004C0E0E0F0E0CA
:1005B00080E090E0DA018D939C93CF010895FF9243
:1005C0000F931F93CF93DF9320E030E050E0640F50
:1005D000751FC6E3D1E02CC0FB01E21BF30B319782
:1005E0000081FE011FB7F894A081B181109709F432
:1005F0001CC0828190E0F4808F199109019797FFC8
:1006000003C0F3808F0D911DA80FB91F0C93848137
:100610009381891308C09281911101C082838281E4
:100620008150828302C08F5F84831FBF2F5F3F4F43
:10063000241735078CF2DF91CF911F910F91FF9016
:100640000895EF92FF920F931F93CF93DF937B0157
:10065000C901E801E091AA01E33031F01092EC0108
:10066000F0E0E451FE4F10824091AB01EDEAF1E081
:1006700050E0BF010E94810B8091AA01F7018083A5
:100680008091AB01888319821092AA011092AC016B
:100690001092AB0181E0DF91CF911F910F91FF90FC
:1006A000EF90089503C080E091E03AD78091AA01CD
:1006B000882331F09091AB018091AC01981799F3A8
:1006C00008958150893030F4E82FF0E0E55DFE4F69
:1006D0008081089580E008951F93CF93DF93182FB2
:1006E000C82FD0E0C451DE4F8881811117C013306C
:1006F000A9F0812FE6DF882389F08093AC018093F5
:10070000AB011093AA012DEA31E0482F50E060E0E0
:1007100070E0C901FFD7C6DF81E08883DF91CF9108
:100720001F910895CF938091EC01811109C0C1E020
:100730008C2FD2DFCF5FCA30D9F781E08093EC01F4
:10074000CF9108951F93CF93DF9300D000D000D0B6
:10075000CDB7DEB76091AA016623C1F08091AC01EC
:10076000811114C070E07160AE014F5F5F4F81E096
:100770003BD0182F482FBE016F5F7F4F86E391E07B
:100780001EDF90913B01910F90933B011092AA01C3
:100790001092AC011092AB0126960FB6F894DEBF12
:1007A0000FBECDBFDF91CF911F9108951092AA0186
:1007B0001092AC011092AB014AE050E061E070E0B1
:1007C0008CEE91E0A7C710923D0110923C0110926F
:1007D0003E011092400110923F010895FC012081DA
:1007E00020682F7B20830895FA012CE130E097E008
:1007F000AB01022E02C0569547950A94E2F74830A5
:1008000028F0973059F4408396E008C04083915017
:10081000411104C027503109923051F7492F4250FD
:100820000DC0DF01A40FB11D9B012F7733272C933F
:10083000660F672F661F770B719541504111F1CFFD
:10084000492F50E09A0163E0220F331F6A95E1F7C8
:10085000206C3F6F3081322B3083E40FF51F3197CE
:1008600081508F7380688083892F08951F93CF9361
:10087000DF93EC01E98DE150E23028F4F0E0EC5C2C
:10088000FE4F108101C010E0888D823009F418609D
:100890008A8D873031F0883031F0863029F412604B
:1008A00003C0146001C016605B9A1092C9001092D8
:1008B000C8001092CA002C893D894E895F89211594
:1008C00081EE38074105510571F0CA01B9019695CD
:1008D00087957795679560587B47814E9F4FE2D605
:1008E0002150310902C020E130E03093CD00209347
:1008F000CC001093CA008C899D89AE89BF8981156F
:10090000914EA105B10511F480E001C082E0809311
:10091000C80088E98093C9005B98DF91CF911F914F
:100920000895FC01208920FF02C05F9808955F9A16
:100930008BB180638BB90895BF92CF92DF92EF9213
:10094000FF920F931F93CF93DF937C018B01EA01FA
:1009500097D1B82E811132C0209731F0288139818A
:10096000021B130BE20EF31EC12CD12C22C080916E
:10097000E80085FD14C08091E8008E778093E80040
:10098000209749F0888199818C0D9D1D99838883DA
:1009900025E0B22E13C074D1882359F00EC0F701A0
:1009A00081917F018093F10001501109FFEFCF1A6F
:1009B000DF0A01151105D9F601C0B82E8B2DDF9184
:1009C000CF911F910F91FF90EF90DF90CF90BF904C
:1009D000089520915302309154022617370748F0AA
:1009E0006115710539F42091E8002E772093E80015
:1009F00001C0B9019C0180E034C090914C02992360
:100A000009F443C0953009F442C09091E80093FD89
:100A10003AC09091E80092FD30C09091E80090FFBC
:100A200020C08091F20090E0F901821B930B05C079
:100A300021912093F100615071099F01280F391F06
:100A40006115710519F02830310590F381E02830E7
:100A5000310509F080E09091E8009E779093E800DE
:100A60009F016115710549F68111C7CF06C08091BC
:100A70004C02882351F0853051F08091E80082FFCC
:100A8000F6CF80E0089581E0089582E0089583E044
:100A9000089520915302309154022617370748F0E9
:100AA0006115710539F42091E8002E772093E80054
:100AB00001C0B9019C0180E035C090914C0299239E
:100AC00009F444C0953009F443C09091E80093FDC7
:100AD0003BC09091E80092FD31C09091E80090FFFA
:100AE00021C08091F20090E0F901821B930B06C0B7
:100AF00024912093F1003196615071099C012E0FD1
:100B00003F1F6115710519F02830310588F381E028
:100B10002830310509F080E09091E8009E779093AD
:100B2000E8009F016115710541F68111C6CF06C02D
:100B300080914C02882351F0853051F08091E8007B
:100B400082FFF6CF80E0089581E0089582E0089565
:100B500083E00895982F2CC09093E900981739F0FE
:100B60007091EC002091ED005091F00003C0242F13
:100B7000762F50E021FD02C09F5F1AC03091EB003C
:100B80003E7F3093EB003091ED003D7F3093ED00E0
:100B90003091EB0031603093EB007093EC002093C8
:100BA000ED005093F0002091EE0027FDE5CF07C047
:100BB000953090F28F708093E90081E0089580E095
:100BC00008950F931F93CF93DF93062FEC0110E04E
:100BD0002EC09881911103C01F5F259628C02C81DB
:100BE000E981FA816B81892F8F70853010F080E068
:100BF00021C0223010F056E001C052E028E030E081
:100C000040E003C04F5F220F331F2E173F07D0F382
:100C10004295407F452B991F9927991F6295660F32
:100C2000660F607C692B96DF8111D6CFE0CF101361
:100C3000D0CF81E0DF91CF911F910F9108958091E6
:100C40004D0287FD05C08091E80080FF0EC012C0F4
:100C50008091E80082FD05C080914C028111F8CF9F
:100C600008958091E8008B7708C080914C02811133
:100C7000EACF08958091E8008E778093E800089588
:100C80008091E4009091E50045E62091EC0020FD84
:100C90001FC023C020914C02222391F0253091F0F7
:100CA0002091EB0025FD10C02091E4003091E5007B
:100CB0002817390751F34150C90139F784E00895E5
:100CC00082E0089583E0089581E0089580E008952A
:100CD0002091E80020FFDECFF9CF2091E80022FF2D
:100CE000D9CFF4CF41D043D08091D8008F77809373
:100CF000D8008091D80080688093D8008091D80077
:100D00008F7D8093D80084E089BD86E089BD09B4D9
:100D100000FEFDCF10924C021092480210924A023F
:100D20001092490242E060E080E014DF8091E1002F
:100D30008E7F8093E1008091E20081608093E200E9
:100D40008091E20088608093E2008091E0008E7FD5
:100D50008093E0000895E3E6F0E080818E7F808359
:100D600081E080934B02BECF1092E2000895109272
:100D7000E10008951F920F920FB60F9211242F9346
:100D80003F934F935F936F937F938F939F93AF9313
:100D9000BF93EF93FF938091E10082FF0AC080919F
:100DA000E20082FF06C08091E1008B7F8093E1002A
:100DB0002ED28091E10080FF17C08091E20080FF79
:100DC00013C08091E2008E7F8093E2008091E20068
:100DD00080618093E2008091D80080628093D80087
:100DE00019BC10924C0266DB8091E10084FF2FC099
:100DF0008091E20084FF2BC084E089BD86E089BD3C
:100E000009B400FEFDCF8091D8008F7D8093D8007B
:100E10008091E1008F7E8093E1008091E2008F7EDF
:100E20008093E2008091E20081608093E2008091F3
:100E30004802882311F084E007C08091E30087FF17
:100E400002C083E001C081E080934C0232DB8091DC
:100E5000E10083FF27C08091E20083FF23C08091DF
:100E6000E100877F8093E10082E080934C02109242
:100E700048028091E1008E7F8093E1008091E20042
:100E80008E7F8093E2008091E20080618093E20097
:100E900042E060E080E05EDE8091F0008860809358
:100EA000F000B5D1FF91EF91BF91AF919F918F91DC
:100EB0007F916F915F914F913F912F910F900FBE56
:100EC0000F901F9018951F920F920FB60F9211243A
:100ED0002F933F934F935F936F937F938F939F9342
:100EE000AF93BF93CF93EF93FF938091E9008F70FF
:100EF0009091EC0090FF02C090E801C090E0C92FF3
:100F0000C82B1092E9008091F000877F8093F00059
:100F100078941CD01092E9008091F0008860809352
:100F2000F000CF70C093E900FF91EF91CF91BF9196
:100F3000AF919F918F917F916F915F914F913F9171
:100F40002F910F900FBE0F901F9018951F93CF9366
:100F5000DF93CDB7DEB7AC970FB6F894DEBF0FBE08
:100F6000CDBFEDE4F2E08091F100819322E0E53520
:100F7000F207C9F7A3DA8091E80083FF30C18091BE
:100F80004D0290914E02953009F487C038F49130AB
:100F9000B1F170F0933009F022C131C0983009F4FA
:100FA000F3C0993009F4FFC0963009F018C19BC016
:100FB000803821F0823809F012C108C080914902BE
:100FC00090914A02992389F082600FC0809151026A
:100FD000909152028F7099278093E9008091EB00E5
:100FE00085FB882780F91092E9009091E800977FAF
:100FF0009093E8008093F1001092F100D0C0882314
:1010000019F0823009F0EBC08F7121F0823009F0C5
:10101000E6C00BC080914F02813009F0E0C09330F0
:1010200009F080E080934A022FC080914F02811125
:101030002BC080915102909152028F709927009796
:1010400009F4CDC08093E9002091EB0020FF1CC083
:1010500020914E02233021F48091EB00806212C077
:101060009091EB0090619093EB0021E030E001C0A3
:10107000220F8A95EAF72093EA001092EA00809105
:10108000EB0088608093EB001092E9008091E8000B
:10109000877F8093E800D3DDA2C08111A0C080913A
:1010A0004F02909150028F779927182F9091E3006B
:1010B0009078982B9093E3008091E800877F80934D
:1010C000E800BDDD8091E80080FFFCCF8091E30067
:1010D00080688093E300112311F083E001C082E077
:1010E00080934C027CC08058823008F078C0809198
:1010F0004F02909150028C3D23E0920771F583E0FE
:101100008A838AE289834FB7F894DE01139620E040
:101110003EE051E2E32FF0E050935700E49120FFCE
:1011200003C0E295EF703F5FEF708E2F90E0EA30E2
:1011300010F0C79601C0C0968D939D932F5F243108
:1011400049F74FBF8091E800877F8093E8006AE20B
:1011500070E0CE0101963DDC11C0AE01455D5F4FF0
:1011600060915102EFD90097D1F12091E800277FDB
:101170002093E800BC018BA59CA58BDC8091E80046
:101180008B778093E8002BC0803849F58091E80088
:10119000877F8093E800809148028093F1008091DE
:1011A000E8008E7776CF81111AC090914F0292306D
:1011B000B0F48091E800877F8093E8009093480224
:1011C0003EDD80914802811104C08091E30087FFD9
:1011D00002C084E001C081E080934C026CD9809110
:1011E000E80083FF0AC08091E800877F8093E800D1
:1011F0008091EB0080628093EB00AC960FB6F89480
:10120000DEBF0FBECDBFDF91CF911F91089508952E
:10121000CF9380914C028823A9F08091E9008F70D0
:101220009091EC0090FF02C090E801C090E0C92FBF
:10123000C82B1092E9008091E80083FD87DECF7013
:10124000C093E900CF910895CF93DF93EC014096CE
:10125000FC018BE0DF011D928A95E9F782E08C8327
:10126000898783E08E8761E0CE010196AADC88231E
:1012700061F061E0CE010696A4DC882331F061E0E4
:10128000CE010B96DF91CF919CCC80E0DF91CF9186
:101290000895CF93C62F20914C022430F1F4FC0125
:1012A0004489558966897789452B462B472BA9F0B8
:1012B00081818F708093E9008091E80085FF04C0F0
:1012C000C093F10080E00AC08091E8008E7780939F
:1012D000E800D6DC8823A1F301C082E0CF91089515
:1012E00020914C02243029F5FC01448955896689F6
:1012F0007789452B462B472BE1F081818F708093B6
:10130000E9008091F200811102C080E0089590917F
:10131000E8008091E8008E778093E80095FDF5CF96
:10132000AFDC811107C09091E8009E779093E800B0
:10133000089582E0089520914C02243089F4FC0144
:101340004489558966897789452B462B472B41F07F
:1013500021812F702093E9002091E80020FDC0CF6B
:10136000089520914C02243019F02FEF3FEF24C054
:10137000FC014489558966897789452B462B472B83
:10138000A1F386818F708093E9008091E80082FF4D
:10139000ECCF8091F200882321F02091F10030E021
:1013A00002C02FEF3FEF8091F200811105C08091C4
:1013B000E8008B778093E800C90108950895CF93E2
:1013C000DF93EC018091E80083FFA7C0888190E063
:1013D00020915102309152022817390709F09DC01F
:1013E00080914E02813261F020F4803209F095C084
:1013F0003DC0823209F46DC0833209F08EC07DC0D9
:1014000080914D02813A09F088C08091E800877F81
:101410008093E8008091E80080FFFCCF4C895D89D3
:101420006E897F894093F100BB27A72F962F852FC8
:101430008093F100CB01AA27BB278093F100472FAF
:101440005527662777274093F100888D8093F10018
:10145000898D8093F1008A8D8093F1008091E8005E
:101460008E778093E800DF91CF91E9CB80914D0298
:10147000813209F052C08091E800877F8093E800B4
:1014800005C080914C02882309F447C08091E80090
:1014900082FFF7CF3091F1002091F1009091F1009F
:1014A0008091F1003C8B2D8B9E8B8F8B8091F10076
:1014B000888F8091F100898F8091F1008A8F8091CF
:1014C000E8008B778093E800BADBCE01DF91CF9103
:1014D000CDC980914D02813201F58091E800877F6E
:1014E0008093E800ACDB80914F0290915002998B81
:1014F000888BCE01DF91CF9114CA80914D02813249
:1015000061F48091E800877F8093E80098DB609128
:101510004F02CE01DF91CF9151CFDF91CF9108954E
:101520004F925F926F927F928F929F92AF92BF92F3
:10153000CF92DF92EF92FF920F931F93CF93DF939F
:1015400000D01F92CDB7DEB77C01ADB6BEB680919C
:101550004C02843009F08DC08091E4009091E50048
:10156000F701228533852817390709F482C0818164
:101570008F708093E9008091E80085FF7AC06DB696
:101580007EB640858DB79EB7841B91090FB6F8943F
:101590009EBF0FBE8DBFCDB6DEB6EFEFCE1ADE0A10
:1015A0001B821A821982460150E060E070E0C60199
:1015B000B1D08E010F5F1F4F960140E0BE016D5FFD
:1015C0007F4FC7013ED8582EF70184859585892B1A
:1015D00031F001E010E086859785892B11F000E05D
:1015E00010E0F701C680D780C114D10489F0498189
:1015F0005A81B601C40178D044244394009709F479
:10160000412CF701408550E0B401C6017AD001C0F9
:10161000412C89819A81892BF1F0511004C041102D
:1016200002C000FF18C0F7018485958597878687DB
:1016300081818F708093E9008B8181118093F1000B
:1016400069817A8140E050E0C40176D98091E80058
:101650008E778093E8008091E4009091E500F70197
:1016600093878287862D972D0FB6F8949EBF0FBE65
:101670008DBF0FB6F894BEBE0FBEADBE0F900F90DB
:101680000F90DF91CF911F910F91FF90EF90DF901E
:10169000CF90BF90AF909F908F907F906F905F9012
:1016A0004F900895A1E21A2EAA1BBB1BFD010DC08D
:1016B000AA1FBB1FEE1FFF1FA217B307E407F50702
:1016C00020F0A21BB30BE40BF50B661F771F881FDE
:1016D000991F1A9469F760957095809590959B0174
:1016E000AC01BD01CF010895FB01DC0104C08D9167
:1016F0000190801921F441505040C8F7881B990B84
:101700000895FB01DC0102C001900D924150504050
:10171000D8F70895DC0101C06D9341505040E0F7C7
:061720000895F894FFCFCC
:1017260002812000000100003F00000000000000D0
:10173600008310000001041000000182080000016F
:10174600000000000000000000000004083F08013F
:0617560011110303302015
:00000001FF
