:1000000088C00000A1C000009FC000009DC000008B
:100010009BC0000099C0000097C0000095C0000080
:1000200093C0000091C000008FC0000032C40000E7
:10003000D9C4000089C0000087C0000085C000004E
:1000400083C0000081C000007FC000007DC00000B0
:100050007BC0000079C0000077C000006BC10000C9
:1000600073C0000071C000006FC000006DC00000D0
:100070006BC000002E034C005500460041002000DC
:100080005500530042002D0052005300320033004F
:1000900032002000410064006100700074006500BF
:1000A0007200000018034400650061006E0020002B
:1000B000430061006D0065007200610000000403F0
:1000C000090409023E00020100C0320904000001D7
:1000D0000202010005240010010424020605240682
:1000E0000001070582030800FF09040100020A005D
:1000F0000000070504021000050705830210000533
:100100001201100102000008EB03686E01000102F9
:10011000DC0111241FBECFEFD2E0DEBFCDBF11E066
:10012000A0E0B1E0E6E8F0E102C005900D92AE314A
:10013000B107D9F712E0AEE1B1E001C01D92A434DD
:10014000B107E1F739D09DC75BCFCF93DF9384B779
:10015000877F84BF28E10FB6F89420936000109247
:1001600060000FBE84E085BD80E190E09093CD00FB
:100170008093CC00CAECD0E096E09883A8ECB0E085
:1001800082E08C93E9ECF0E02083539A5A9A5B9AD0
:1001900010821C92188298838C9388E980835B98E4
:1001A0008AB180638AB98BB180638BB963D35F9A5C
:1001B000579ADF91CF910895C8DFEEE1F1E04FB794
:1001C000F8948AE291E0918380839383828395837C
:1001D00084838AEA91E09783868320E830E0318740
:1001E0002087138612864FBFEAEAF1E04FB7F894F2
:1001F00086EB91E0918380839383828395838483CC
:1002000086E392E097838683318720871386128660
:100210004FBF8BB180638F7D8BB978940AEA11E070
:1002200080E091E02DD697FD0CC05C98909136024D
:100230009C60909336029091C80095FFFCCF80930C
:10024000CE002FB7F8948091B4019091B5012FBFE3
:10025000009719F4A8993EC060C05D9820913602BD
:10026000236020933602209101012F702093E90032
:100270002091E80020FFEECF8031910510F08FE053
:1002800090E0F82EC0E0D0E022C0E091AC01F09107
:10029000AD01608180E091E08BD58111DBCFF80169
:1002A000828193810196938382832681378182178D
:1002B000930721F424813581338322832FB7F89467
:1002C000828593850197938782872FBF2196FC12A1
:1002D000DCCFC0CFA89A90913602892F837049F065
:1002E000815083709C7F982B90933602811101C0BE
:1002F0005D9A90913602892F8C7079F0892F8695BE
:1003000086958D5F8370282F220F220F937F922B6B
:1003100090933602811101C05C9A80E091E09AD5F9
:1003200006D57ECF0895089580E091E01CC580E059
:1003300091E0D4C51F920F920FB60F9211242F9304
:100340003F938F939F93AF93BF93EF93FF938091CE
:10035000CE0090913B029430D9F4EAEAF1E0A0811A
:10036000B1818C93808191810196918380832681D4
:1003700037818217930721F484819581918380834B
:100380002FB7F894828593850196938782872FBF34
:10039000FF91EF91BF91AF919F918F913F912F91DD
:1003A0000F900FBE0F901F901895292F33272230E2
:1003B000310539F02330310549F02130310521F183
:1003C00028C0EEE3F0E082EC90E027C0992781306E
:1003D000910561F08230910581F0892BD1F4EEEB2B
:1003E000F0E0E491F0E08EEB90E017C0E4EAF0E09A
:1003F000E491F0E084EA90E010C0E4E7F0E0E491FA
:10040000F0E084E790E009C0E2E1F0E080E091E014
:1004100004C0E0E0F0E080E090E0DA018D939C938E
:10042000CF0108951F93CF93DF93EC01E98DE15045
:10043000E23028F4F0E0E55EFE4F108101C010E0EC
:10044000888D823009F418608A8D873031F08830C9
:1004500031F0863029F4126003C0146001C01660C8
:100460005B9A1092C9001092C8001092CA002C89A1
:100470003D894E895F89211581EE38074105510577
:1004800071F0CA01B901969587957795679560587F
:100490007B47814E9F4FD3D52150310902C020E1C7
:1004A00030E03093CD002093CC001093CA008C89AB
:1004B0009D89AE89BF898115914EA105B10511F4C1
:1004C00080E001C082E08093C80088E98093C90081
:1004D0005B98DF91CF911F910895FC01208920FF47
:1004E00002C05F9808955F9A8BB180638BB90895BD
:1004F00020914202309143022617370748F06115D8
:10050000710539F42091E8002E772093E80001C0AE
:10051000B9019C0180E034C090913B02992309F419
:1005200043C0953009F442C09091E80093FD3AC071
:100530009091E80092FD30C09091E80090FF20C0BB
:100540008091F20090E0F901821B930B05C021918C
:100550002093F100615071099F01280F391F611527
:10056000710519F02830310590F381E0283031050C
:1005700009F080E09091E8009E779093E8009F0159
:100580006115710549F68111C7CF06C080913B0204
:10059000882351F0853051F08091E80082FFF6CF3A
:1005A00080E0089581E0089582E0089583E0089551
:1005B00020914202309143022617370748F0611517
:1005C000710539F42091E8002E772093E80001C0EE
:1005D000B9019C0180E035C090913B02992309F458
:1005E00044C0953009F443C09091E80093FD3BC0AE
:1005F0009091E80092FD31C09091E80090FF21C0F9
:100600008091F20090E0F901821B930B06C02491C7
:100610002093F1003196615071099C012E0F3F1F0C
:100620006115710519F02830310588F381E0283013
:10063000310509F080E09091E8009E779093E80002
:100640009F016115710541F68111C6CF06C08091E9
:100650003B02882351F0853051F08091E80082FF01
:10066000F6CF80E0089581E0089582E0089583E068
:100670000895982F2CC09093E900981739F0709145
:10068000EC002091ED005091F00003C0242F762F54
:1006900050E021FD02C09F5F1AC03091EB003E7F09
:1006A0003093EB003091ED003D7F3093ED003091C1
:1006B000EB0031603093EB007093EC002093ED0081
:1006C0005093F0002091EE0027FDE5CF07C0953054
:1006D00090F28F708093E90081E0089580E00895A2
:1006E0000F931F93CF93DF93062FEC0110E02EC0E2
:1006F0009881911103C01F5F259628C02C81E98144
:10070000FA816B81892F8F70853010F080E021C0D5
:10071000223010F056E001C052E028E030E040E026
:1007200003C04F5F220F331F2E173F07D0F34295B0
:10073000407F452B991F9927991F6295660F660F79
:10074000607C692B96DF8111D6CFE0CF1013D0CF1C
:1007500081E0DF91CF911F910F91089580913C022C
:1007600087FD05C08091E80080FF0EC012C0809117
:10077000E80082FD05C080913B028111F8CF089509
:100780008091E8008B7708C080913B028111EACF0D
:1007900008958091E8008E778093E8000895809115
:1007A000E4009091E50045E62091EC0020FD1FC09B
:1007B00023C020913B02222391F0253091F020911B
:1007C000EB0025FD10C02091E4003091E5002817D2
:1007D000390751F34150C90139F784E0089582E0A7
:1007E000089583E0089581E0089580E008952091C0
:1007F000E80020FFDECFF9CF2091E80022FFD9CF1B
:10080000F4CF41D043D08091D8008F778093D80027
:100810008091D80080688093D8008091D8008F7D27
:100820008093D80084E089BD86E089BD09B400FECC
:10083000FDCF10923B0210923702109239021092B3
:10084000380242E060E080E014DF8091E1008E7FBA
:100850008093E1008091E20081608093E2008091CA
:10086000E20088608093E2008091E0008E7F8093B8
:10087000E0000895E3E6F0E080818E7F808381E0F0
:1008800080933A02BECF1092E20008951092E100E8
:1008900008951F920F920FB60F9211242F933F933A
:1008A0004F935F936F937F938F939F93AF93BF9378
:1008B000EF93FF938091E10082FF0AC08091E200F4
:1008C00082FF06C08091E1008B7F8093E1002ED2F1
:1008D0008091E10080FF17C08091E20080FF13C08B
:1008E0008091E2008E7F8093E2008091E20080613F
:1008F0008093E2008091D80080628093D80019BC78
:1009000010923B0210DD8091E10084FF2FC08091A6
:10091000E20084FF2BC084E089BD86E089BD09B474
:1009200000FEFDCF8091D8008F7D8093D80080910C
:10093000E1008F7E8093E1008091E2008F7E8093C2
:10094000E2008091E20081608093E20080913702B2
:10095000882311F084E007C08091E30087FF02C084
:1009600083E001C081E080933B02DCDC8091E10008
:1009700083FF27C08091E20083FF23C08091E100C4
:10098000877F8093E10082E080933B0210923702E0
:100990008091E1008E7F8093E1008091E2008E7F64
:1009A0008093E2008091E20080618093E20042E067
:1009B00060E080E05EDE8091F00088608093F0006F
:1009C000B5D1FF91EF91BF91AF919F918F917F91A1
:1009D0006F915F914F913F912F910F900FBE0F90AC
:1009E0001F9018951F920F920FB60F9211242F93FC
:1009F0003F934F935F936F937F938F939F93AF93A7
:100A0000BF93CF93EF93FF938091E9008F70909104
:100A1000EC0090FF02C090E801C090E0C92FC82B05
:100A20001092E9008091F000877F8093F000789425
:100A30001CD01092E9008091F00088608093F00053
:100A4000CF70C093E900FF91EF91CF91BF91AF912B
:100A50009F918F917F916F915F914F913F912F91D6
:100A60000F900FBE0F901F9018951F93CF93DF9399
:100A7000CDB7DEB7AC970FB6F894DEBF0FBECDBFD3
:100A8000ECE3F2E08091F100819322E0E434F2079C
:100A9000C9F74DDC8091E80083FF30C180913C02B2
:100AA00090913D02953009F487C038F49130B1F14E
:100AB00070F0933009F022C131C0983009F4F3C0CE
:100AC000993009F4FFC0963009F018C19BC08038F6
:100AD00021F0823809F012C108C08091380290914B
:100AE0003902992389F082600FC080914002909171
:100AF00041028F7099278093E9008091EB0085FB7C
:100B0000882780F91092E9009091E800977F9093F0
:100B1000E8008093F1001092F100D0C0882319F012
:100B2000823009F0EBC08F7121F0823009F0E6C00D
:100B30000BC080913E02813009F0E0C0933009F093
:100B400080E0809339022FC080913E0281112BC03A
:100B500080914002909141028F709927009709F48B
:100B6000CDC08093E9002091EB0020FF1CC02091B4
:100B70003D02233021F48091EB00806212C09091FD
:100B8000EB0090619093EB0021E030E001C0220F78
:100B90008A95EAF72093EA001092EA008091EB0030
:100BA00088608093EB001092E9008091E800877FD5
:100BB0008093E800D3DDA2C08111A0C080913E02E5
:100BC00090913F028F779927182F9091E3009078AA
:100BD000982B9093E3008091E800877F8093E80052
:100BE000BDDD8091E80080FFFCCF8091E30080684C
:100BF0008093E300112311F083E001C082E0809331
:100C00003B027CC08058823008F078C080913E0260
:100C100090913F028C3D23E0920771F583E08A8337
:100C20008AE289834FB7F894DE01139620E03EE014
:100C300051E2E32FF0E050935700E49120FF03C00E
:100C4000E295EF703F5FEF708E2F90E0EA3010F08A
:100C5000C79601C0C0968D939D932F5F243149F7AD
:100C60004FBF8091E800877F8093E8006AE270E0E0
:100C7000CE0101963DDC11C0AE01455D5F4F609134
:100C8000400293DB0097D1F12091E800277F209369
:100C9000E800BC018BA59CA58BDC8091E8008B77DC
:100CA0008093E8002BC0803849F58091E800877F69
:100CB0008093E800809137028093F1008091E800F2
:100CC0008E7776CF81111AC090913E029230B0F4A7
:100CD0008091E800877F8093E800909337023EDDA3
:100CE00080913702811104C08091E30087FF02C028
:100CF00084E001C081E080933B0216DB8091E80034
:100D000083FF0AC08091E800877F8093E80080918C
:100D1000EB0080628093EB00AC960FB6F894DEBFD8
:100D20000FBECDBFDF91CF911F9108950895CF934E
:100D300080913B028823A9F08091E9008F70909107
:100D4000EC0090FF02C090E801C090E0C92FC82BD2
:100D50001092E9008091E80083FD87DECF70C09398
:100D6000E900CF910895CF93DF93EC014096FC0109
:100D70008BE0DF011D928A95E9F782E08C838987F9
:100D800083E08E8761E0CE010196AADC882361F0C2
:100D900061E0CE010696A4DC882331F061E0CE014B
:100DA0000B96DF91CF919CCC80E0DF91CF9108959D
:100DB000CF93C62F20913B022430F1F4FC014489EB
:100DC000558966897789452B462B472BA9F0818168
:100DD0008F708093E9008091E80085FF04C0C09384
:100DE000F10080E00AC08091E8008E778093E800EF
:100DF000D6DC8823A1F301C082E0CF910895209131
:100E00003B02243029F5FC0144895589668977899C
:100E1000452B462B472BE1F081818F708093E900B1
:100E20008091F200811102C080E008959091E80065
:100E30008091E8008E778093E80095FDF5CFAFDCD8
:100E4000811107C09091E8009E779093E800089583
:100E500082E0089520913B02243089F4FC0144890A
:100E6000558966897789452B462B472B41F021818F
:100E70002F702093E9002091E80020FDC0CF089555
:100E800020913B02243019F02FEF3FEF24C0FC01EA
:100E90004489558966897789452B462B472BA1F3D1
:100EA00086818F708093E9008091E80082FFECCF0B
:100EB0008091F200882321F02091F10030E002C0FF
:100EC0002FEF3FEF8091F200811105C08091E80083
:100ED0008B778093E800C90108950895CF93DF933D
:100EE000EC018091E80083FFA7C0888190E0209109
:100EF0004002309141022817390709F09DC08091C6
:100F00003D02813261F020F4803209F095C03DC08D
:100F1000823209F46DC0833209F08EC07DC08091A9
:100F20003C02813A09F088C08091E800877F809375
:100F3000E8008091E80080FFFCCF4C895D896E89D4
:100F40007F894093F100BB27A72F962F852F809391
:100F5000F100CB01AA27BB278093F100472F55272B
:100F6000662777274093F100888D8093F100898D63
:100F70008093F1008A8D8093F1008091E8008E7754
:100F80008093E800DF91CF91E9CB80913C028132E0
:100F900009F052C08091E800877F8093E80005C087
:100FA00080913B02882309F447C08091E80082FFCA
:100FB000F7CF3091F1002091F1009091F1008091F4
:100FC000F1003C8B2D8B9E8B8F8B8091F100888F55
:100FD0008091F100898F8091F1008A8F8091E800E3
:100FE0008B778093E800BADBCE01DF91CF911ACAEC
:100FF00080913C02813201F58091E800877F8093E7
:10100000E800ACDB80913E0290913F02998B888B87
:10101000CE01DF91CF9161CA80913C02813261F4AF
:101020008091E800877F8093E80098DB60913E0222
:10103000CE01DF91CF9151CFDF91CF910895A1E201
:101040001A2EAA1BBB1BFD010DC0AA1FBB1FEE1F42
:10105000FF1FA217B307E407F50720F0A21BB30B8D
:10106000E40BF50B661F771F881F991F1A9469F709
:1010700060957095809590959B01AC01BD01CF0165
:061080000895F894FFCF73
:101086000083100000010410000001820800000126
:0E1096000000000000000000000000302000FC
:00000001FF
